{
	"data": {
		"bytecode": {
			"linkReferences": {},
			"object": "608060405234801561001057600080fd5b50613bf1806100206000396000f3fe608060405234801561001057600080fd5b50600436106101cf5760003560e01c8063a57e314111610104578063d3cac885116100a2578063e3676f8811610071578063e3676f8814610433578063eb80bdae14610446578063eeacf78614610459578063fd981c661461046c57600080fd5b8063d3cac8851461038b578063da1d8cff1461039e578063e0da83ce146103b1578063e1444fd6146103d157600080fd5b8063b3b9aa48116100de578063b3b9aa481461034a578063b982922e1461035d578063cb645e3214610365578063cd83eadc1461037857600080fd5b8063a57e314114610311578063aec640c614610324578063aef0e5401461033757600080fd5b80635a04fb69116101715780636dbdeab31161014b5780636dbdeab3146102ab57806376c12822146102be5780637e6706d3146102de578063a20b8c18146102fe57600080fd5b80635a04fb6914610270578063618df7a3146102855780636198e3391461029857600080fd5b80630d4f581a116101ad5780630d4f581a1461022d5780631982242c14610240578063332f26d714610248578063475831c81461026857600080fd5b806307279357146101d457806307873ef1146101fa57806308f124701461020d575b600080fd5b6101e76101e23660046133d8565b610474565b6040519081526020015b60405180910390f35b6101e76102083660046133a0565b6105b9565b61022061021b366004613657565b6105e0565b6040516101f19190613a69565b61022061023b366004613657565b610740565b6101e7610769565b61025b61025636600461352c565b61078a565b6040516101f191906138d3565b6101e76108ee565b61028361027e366004613687565b6108fa565b005b610220610293366004613501565b610a9a565b6102836102a6366004613657565b610b0f565b6101e76102b9366004613657565b610ba5565b6102d16102cc3660046136fb565b610bbc565b6040516101f19190613863565b6102f16102ec366004613657565b610d2f565b6040516101f19190613a3a565b6102f161030c366004613657565b610da6565b61028361031f366004613657565b610dd2565b6102d16103323660046136fb565b610de0565b61025b6103453660046133a0565b610f48565b61028361035836600461371c565b61104b565b6101e76112ef565b6101e761037336600461345d565b6112fb565b6101e76103863660046133a0565b611542565b6102836103993660046136b6565b611560565b61025b6103ac3660046133a0565b611624565b6103c46103bf366004613560565b61171f565b6040516101f19190613934565b61040d6103df3660046133a0565b6007602052600090815260409020805460018201546002909201546001600160a01b03918216929091169083565b604080516001600160a01b039485168152939092166020840152908201526060016101f1565b6101e76104413660046133a0565b61192e565b6101e76104543660046133a0565b61194f565b610220610467366004613501565b611970565b6000546101e7565b60006001600160a01b0386166104a55760405162461bcd60e51b815260040161049c906139c1565b60405180910390fd5b600084116104f55760405162461bcd60e51b815260206004820152601f60248201527f416d6f756e742073686f756c642062652067726561746572207468616e203000604482015260640161049c565b4283116105505760405162461bcd60e51b815260206004820152602360248201527f556e6c6f636b20646174652073686f756c6420626520696e207468652066757460448201526275726560e81b606482015260840161049c565b610563878787878760008060008a6119e5565b905061057186333087611a31565b807f694af1cc8727cdd0afbdd53d9b87b69248bd490224e9dd090e788546506e076f878987876040516105a7949392919061383a565b60405180910390a29695505050505050565b6001600160a01b03811660009081526001602052604081206105da90611ba4565b92915050565b6105e86131af565b60006105f383611bae565b8154811061061157634e487b7160e01b600052603260045260246000fd5b60009182526020918290206040805161016081018252600b9093029091018054835260018101546001600160a01b03908116948401949094526002810154909316908201526003820154606082015260048201546080820152600582015460a0820152600682015460c0820152600782015460e082015260088201546101008201526009820154610120820152600a82018054919291610140840191906106b790613b16565b80601f01602080910402602001604051908101604052809291908181526020018280546106e390613b16565b80156107305780601f1061070557610100808354040283529160200191610730565b820191906000526020600020905b81548152906001019060200180831161071357829003601f168201915b5050505050815250509050919050565b6107486131af565b6000828154811061061157634e487b7160e01b600052603260045260246000fd5b60006107736108ee565b61077b6112ef565b6107859190613a7c565b905090565b6001600160a01b03831660009081526008602052604090206060906107ae90611ba4565b82106107e5576001600160a01b03841660009081526008602052604090206001906107d890611ba4565b6107e29190613ad3565b91505b60006107f18484613ad3565b6107fc906001613a7c565b905060008167ffffffffffffffff81111561082757634e487b7160e01b600052604160045260246000fd5b60405190808252806020026020018201604052801561086057816020015b61084d6131af565b8152602001906001900390816108455790505b5090506000855b8581116108e0576001600160a01b03881660009081526008602052604090206108949061021b9083611c4a565b8383815181106108b457634e487b7160e01b600052603260045260246000fd5b602002602001018190525081806108ca90613b51565b92505080806108d890613b51565b915050610867565b5090925050505b9392505050565b60006107856005611ba4565b8161090481611bae565b5060008061091185611bae565b8154811061092f57634e487b7160e01b600052603260045260246000fd5b60009182526020909120600b9091020160028101549091506001600160a01b031633811461096f5760405162461bcd60e51b815260040161049c9061397f565b6002820180546001600160a01b0319166001600160a01b0386811691909117909155600180840154821660009081526007602052604090209081015490911615801590610a01576001600160a01b03831660009081526001602052604090206109d89088611c56565b506001600160a01b03861660009081526001602052604090206109fb9088611c62565b50610a48565b6001600160a01b0383166000908152600260205260409020610a239088611c56565b506001600160a01b0386166000908152600260205260409020610a469088611c62565b505b604080518881526001600160a01b03858116602083015288168183015290517f9075ad040756c0d8743a1fed927066a92c4755071615bf61e04b17583d961caf9181900360600190a150505050505050565b610aa26131af565b81610aac8461194f565b11610ae95760405162461bcd60e51b815260206004820152600d60248201526c092dcecc2d8d2c840d2dcc8caf609b1b604482015260640161049c565b6001600160a01b03831660009081526002602052604090206108e79061021b9084611c4a565b80610b1981611bae565b50600080610b2684611bae565b81548110610b4457634e487b7160e01b600052603260045260246000fd5b600091825260209091206002600b90920201908101549091506001600160a01b03163314610b845760405162461bcd60e51b815260040161049c9061397f565b600681015415610b9c57610b9781611c6e565b505050565b610b9781612001565b600080610bb1836105e0565b90506108e78161221d565b6060610bc86005611ba4565b8210610be7576001610bda6005611ba4565b610be49190613ad3565b91505b6000610bf38484613ad3565b610bfe906001613a7c565b905060008167ffffffffffffffff811115610c2957634e487b7160e01b600052604160045260246000fd5b604051908082528060200260200182016040528015610c7457816020015b6040805160608101825260008082526020808301829052928201528252600019909201910181610c475790505b5090506000855b858111610d245760076000610c91600584611c4a565b6001600160a01b03908116825260208083019390935260409182016000208251606081018452815483168152600182015490921693820193909352600290920154908201528351849084908110610cf857634e487b7160e01b600052603260045260246000fd5b60200260200101819052508180610d0e90613b51565b9250508080610d1c90613b51565b915050610c7b565b509095945050505050565b604080516060810182526000808252602082018190529181019190915260076000610d5b600585611c4a565b6001600160a01b039081168252602080830193909352604091820160002082516060810184528154831681526001820154909216938201939093526002909201549082015292915050565b604080516060810182526000808252602082018190529181019190915260076000610d5b600385611c4a565b610ddd8160006108fa565b50565b6060610dec6003611ba4565b8210610e0b576001610dfe6003611ba4565b610e089190613ad3565b91505b6000610e178484613ad3565b610e22906001613a7c565b905060008167ffffffffffffffff811115610e4d57634e487b7160e01b600052604160045260246000fd5b604051908082528060200260200182016040528015610e9857816020015b6040805160608101825260008082526020808301829052928201528252600019909201910181610e6b5790505b5090506000855b858111610d245760076000610eb5600384611c4a565b6001600160a01b03908116825260208083019390935260409182016000208251606081018452815483168152600182015490921693820193909352600290920154908201528351849084908110610f1c57634e487b7160e01b600052603260045260246000fd5b60200260200101819052508180610f3290613b51565b9250508080610f4090613b51565b915050610e9f565b6001600160a01b038116600090815260016020526040812060609190610f6d90611ba4565b905060008167ffffffffffffffff811115610f9857634e487b7160e01b600052604160045260246000fd5b604051908082528060200260200182016040528015610fd157816020015b610fbe6131af565b815260200190600190039081610fb65790505b50905060005b82811015611043576001600160a01b03851660009081526001602052604090206110059061021b9083611c4a565b82828151811061102557634e487b7160e01b600052603260045260246000fd5b6020026020010181905250808061103b90613b51565b915050610fd7565b509392505050565b8261105581611bae565b5060008061106286611bae565b8154811061108057634e487b7160e01b600052603260045260246000fd5b600091825260209091206002600b90920201908101549091506001600160a01b031633146110c05760405162461bcd60e51b815260040161049c9061397f565b6009810154156111065760405162461bcd60e51b8152602060048201526011602482015270131bd8dac81dd85cc81d5b9b1bd8dad959607a1b604482015260640161049c565b82156111a7578060050154831015801561111f57504283115b61119f5760405162461bcd60e51b8152602060048201526044602482018190527f4e657720756e6c6f636b2074696d652073686f756c64206e6f74206265206265908201527f666f7265206f6c6420756e6c6f636b2074696d65206f722063757272656e742060648201526374696d6560e01b608482015260a40161049c565b600581018390555b831561128b57806003015484101561121b5760405162461bcd60e51b815260206004820152603160248201527f4e657720616d6f756e742073686f756c64206e6f74206265206c657373207468604482015270185b8818dd5c9c995b9d08185b5bdd5b9d607a1b606482015260840161049c565b600081600301548561122d9190613ad3565b90508015611289576003820185905560018201546001600160a01b031660009081526007602052604090206002810154611268908390613a7c565b60028201556001830154611287906001600160a01b0316333085611a31565b505b505b805460018201546002830154600384015460058501546040517fa8b26360df8d5e154ffa5a8a7e894e85f781acfbbef0b744fb9551d8fd0fd36c946112e0946001600160a01b0391821694911692909161383a565b60405180910390a25050505050565b60006107856003611ba4565b60006001600160a01b0389166113235760405162461bcd60e51b815260040161049c906139c1565b600087116113735760405162461bcd60e51b815260206004820152601f60248201527f416d6f756e742073686f756c642062652067726561746572207468616e203000604482015260640161049c565b4286116113c25760405162461bcd60e51b815260206004820181905260248201527f54474520646174652073686f756c6420626520696e2074686520667574757265604482015260640161049c565b600084116114025760405162461bcd60e51b815260206004820152600d60248201526c496e76616c6964206379636c6560981b604482015260640161049c565b600085118015611413575061271085105b6114565760405162461bcd60e51b8152602060048201526014602482015273496e76616c6964206269707320666f722054474560601b604482015260640161049c565b600083118015611467575061271083105b6114ac5760405162461bcd60e51b8152602060048201526016602482015275496e76616c6964206269707320666f72206379636c6560501b604482015260640161049c565b6127106114b98487613a7c565b11156114d75760405162461bcd60e51b815260040161049c906139e8565b6114e88a8a8a8a8a8a8a8a8a6119e5565b90506114f68933308a611a31565b807f694af1cc8727cdd0afbdd53d9b87b69248bd490224e9dd090e788546506e076f8a8c8a8a60405161152c949392919061383a565b60405180910390a25b9998505050505050505050565b600061154d826105b9565b6115568361194f565b6105da9190613a7c565b8161156a81611bae565b5060008061157785611bae565b8154811061159557634e487b7160e01b600052603260045260246000fd5b600091825260209091206002600b90920201908101549091506001600160a01b031633146115d55760405162461bcd60e51b815260040161049c9061397f565b82516115ea90600a830190602086019061321b565b506040518481527fe4a1120fd509c50aec65802fd3c3c9a4b72bf746fe9a552396185c6de928e8aa9060200160405180910390a150505050565b6001600160a01b03811660009081526002602052604081206060919061164990611ba4565b905060008167ffffffffffffffff81111561167457634e487b7160e01b600052604160045260246000fd5b6040519080825280602002602001820160405280156116ad57816020015b61169a6131af565b8152602001906001900390816116925790505b50905060005b82811015611043576001600160a01b03851660009081526002602052604090206116e19061021b9083611c4a565b82828151811061170157634e487b7160e01b600052603260045260246000fd5b6020026020010181905250808061171790613b51565b9150506116b3565b60606001600160a01b0388166117475760405162461bcd60e51b815260040161049c906139c1565b8a891461178a5760405162461bcd60e51b815260206004820152601160248201527013195b99dd1a081b5a5cdb585d18da1959607a1b604482015260640161049c565b4286116117d95760405162461bcd60e51b815260206004820181905260248201527f54474520646174652073686f756c6420626520696e2074686520667574757265604482015260640161049c565b600084116118195760405162461bcd60e51b815260206004820152600d60248201526c496e76616c6964206379636c6560981b604482015260640161049c565b60008511801561182a575061271085105b61186d5760405162461bcd60e51b8152602060048201526014602482015273496e76616c6964206269707320666f722054474560601b604482015260640161049c565b60008311801561187e575061271083105b6118c35760405162461bcd60e51b8152602060048201526016602482015275496e76616c6964206269707320666f72206379636c6560501b604482015260640161049c565b6127106118d08487613a7c565b11156118ee5760405162461bcd60e51b815260040161049c906139e8565b61191e8c8c8c8c8c8c60405180608001604052808e81526020018d81526020018c81526020018b8152508961232f565b9c9b505050505050505050505050565b6001600160a01b03811660009081526008602052604081206105da90611ba4565b6001600160a01b03811660009081526002602052604081206105da90611ba4565b6119786131af565b81611982846105b9565b116119bf5760405162461bcd60e51b815260206004820152600d60248201526c092dcecc2d8d2c840d2dcc8caf609b1b604482015260640161049c565b6001600160a01b03831660009081526001602052604090206108e79061021b9084611c4a565b60008715611a135760006119f88a6125a4565b9050611a0b8b8b838b8b8b8b8b8b6126c7565b915050611535565b611a238a8a8989898989896127a0565b9a9950505050505050505050565b6040516370a0823160e01b81526001600160a01b038381166004830152600091908616906370a082319060240160206040518083038186803b158015611a7657600080fd5b505afa158015611a8a573d6000803e3d6000fd5b505050506040513d601f19601f82011682018060405250810190611aae919061366f565b9050611ac56001600160a01b038616858585612872565b6040516370a0823160e01b81526001600160a01b038481166004830152600091908716906370a082319060240160206040518083038186803b158015611b0a57600080fd5b505afa158015611b1e573d6000803e3d6000fd5b505050506040513d601f19601f82011682018060405250810190611b42919061366f565b905082611b4f8383613ad3565b14611b9c5760405162461bcd60e51b815260206004820152601f60248201527f4e6f7420656e6f75676820746f6b656e20776173207472616e73666572656400604482015260640161049c565b505050505050565b60006105da825490565b6000620f4240821015611bf55760405162461bcd60e51b815260206004820152600f60248201526e125b9d985b1a59081b1bd8dac81a59608a1b604482015260640161049c565b6000611c04620f424084613ad3565b60005490915081106105da5760405162461bcd60e51b815260206004820152600f60248201526e125b9d985b1a59081b1bd8dac81a59608a1b604482015260640161049c565b60006108e783836128e3565b60006108e7838361291b565b60006108e78383612a38565b60408051610160810182528254815260018301546001600160a01b039081166020830152600284015416918101919091526003820154606082015260048201546080820152600582015460a0820152600682015460c0820152600782015460e082015260088201546101008201526009820154610120820152600a82018054600092611d8e9290918591610140840191611d0790613b16565b80601f0160208091040260200160405190810160405280929190818152602001828054611d3390613b16565b8015611d805780601f10611d5557610100808354040283529160200191611d80565b820191906000526020600020905b815481529060010190602001808311611d6357829003601f168201915b50505050508152505061221d565b90506000818360090154611da29190613a7c565b9050600082118015611db8575082600301548111155b611df85760405162461bcd60e51b81526020600482015260116024820152704e6f7468696e6720746f20756e6c6f636b60781b604482015260640161049c565b6001808401546001600160a01b0390811660009081526007602052604090209182015460038601549116151590831415611ee6578015611e52578454336000908152600160205260409020611e4c91611c56565b50611e6e565b8454336000908152600260205260409020611e6c91611c56565b505b845460018601546001600160a01b03166000908152600860205260409020611e9591611c56565b50845460018601546040517fc6532367992b32e42a62dd89fc3574876d97d081a263aa6e030f34b79b7e6e8b91611edd916001600160a01b039091169033908890429061383a565b60405180910390a25b83826002015411611efd5760006002830155611f13565b838260020154611f0d9190613ad3565b60028301555b6002820154611f5e578015611f42576001850154611f3c906003906001600160a01b0316612a87565b50611f5e565b6001850154611f5c906005906001600160a01b0316612a87565b505b6009850183905560028501546001860154611f86916001600160a01b03918216911686612a9c565b84546001860154600987015460038801547ff93385ffdf40b698b13993c059834b8e91d0ca8e7abf827a34001ca03c03f6ff926001600160a01b03169133918991611fd091613ad3565b604080516001600160a01b03958616815294909316602085015291830152606082015242608082015260a0016112e0565b80600501544210156120555760405162461bcd60e51b815260206004820152601860248201527f4974206973206e6f742074696d6520746f20756e6c6f636b0000000000000000604482015260640161049c565b60098101541561209b5760405162461bcd60e51b81526020600482015260116024820152704e6f7468696e6720746f20756e6c6f636b60781b604482015260640161049c565b6001808201546001600160a01b0390811660009081526007602052604090209182015416158015906120e75782543360009081526001602052604090206120e191611c56565b50612103565b825433600090815260026020526040902061210191611c56565b505b60038301546002830154811061211f5760006002840155612135565b80836002015461212f9190613ad3565b60028401555b600283015461218057811561216457600184015461215e906003906001600160a01b0316612a87565b50612180565b600184015461217e906005906001600160a01b0316612a87565b505b60098401819055835460018501546001600160a01b031660009081526008602052604090206121ae91611c56565b5060018401546121c8906001600160a01b03163383612a9c565b835460018501546040517fc6532367992b32e42a62dd89fc3574876d97d081a263aa6e030f34b79b7e6e8b9161220f916001600160a01b039091169033908690429061383a565b60405180910390a250505050565b600081606001516000141561223457506000919050565b81606001518261012001511061224c57506000919050565b8160a0015142101561226057506000919050565b60e082015161227157506000919050565b600061228883606001518460c00151612710612acc565b905060006122a28460600151856101000151612710612acc565b905060008460a0015142106122e95782828660e001518760a00151426122c89190613ad3565b6122d29190613a94565b6122dc9190613ab4565b6122e69190613a7c565b90505b6000856060015182111561231357856101200151866060015161230c9190613ad3565b9050612326565b6101208601516123239083613ad3565b90505b95945050505050565b60606001600160a01b0385166123575760405162461bcd60e51b815260040161049c906139c1565b60006123638888612b7b565b90508860008167ffffffffffffffff81111561238f57634e487b7160e01b600052604160045260246000fd5b6040519080825280602002602001820160405280156123b8578160200160208202803683370190505b50905060005b82811015612588576124668d8d838181106123e957634e487b7160e01b600052603260045260246000fd5b90506020020160208101906123fe91906133a0565b8a8a8e8e8681811061242057634e487b7160e01b600052603260045260246000fd5b905060200201358b60006004811061244857634e487b7160e01b600052603260045260246000fd5b60209081029190910151908d015160408e015160608f01518e6119e5565b82828151811061248657634e487b7160e01b600052603260045260246000fd5b6020026020010181815250508181815181106124b257634e487b7160e01b600052603260045260246000fd5b60200260200101517f694af1cc8727cdd0afbdd53d9b87b69248bd490224e9dd090e788546506e076f8a8f8f858181106124fc57634e487b7160e01b600052603260045260246000fd5b905060200201602081019061251191906133a0565b8e8e8681811061253157634e487b7160e01b600052603260045260246000fd5b905060200201358b60006004811061255957634e487b7160e01b600052603260045260246000fd5b602002015160405161256e949392919061383a565b60405180910390a28061258081613b51565b9150506123be565b5061259588333086611a31565b9b9a5050505050505050505050565b600080826001600160a01b031663c45a01556040518163ffffffff1660e01b815260040160206040518083038186803b1580156125e057600080fd5b505afa925050508015612610575060408051601f3d908101601f1916820190925261260d918101906133bc565b60015b61265c5760405162461bcd60e51b815260206004820152601c60248201527f5468697320746f6b656e206973206e6f742061204c5020746f6b656e00000000604482015260640161049c565b90506001600160a01b0381161580159061267b575061267b8382612c3b565b6105da5760405162461bcd60e51b815260206004820152601d60248201527f5468697320746f6b656e206973206e6f742061204c5020746f6b656e2e000000604482015260640161049c565b60006126d98a8a898989898989612dcb565b6001600160a01b038b1660009081526001602052604090209091506126fe9082611c62565b5061270a60038a612f47565b506001600160a01b03808a166000908152600760205260409020805490911661275a5780546001600160a01b03808c166001600160a01b0319928316178355600183018054918c16919092161790555b87816002015461276a9190613a7c565b60028201556001600160a01b038a1660009081526008602052604090206127919083611c62565b50509998505050505050505050565b60006127b28989898989898989612dcb565b6001600160a01b038a1660009081526002602052604090209091506127d79082611c62565b506127e3600589612f47565b506001600160a01b038089166000908152600760205260409020805490911661282d5780546001600160a01b038a166001600160a01b031991821617825560018201805490911690555b87816002015461283d9190613a7c565b60028201556001600160a01b03891660009081526008602052604090206128649083611c62565b505098975050505050505050565b6040516001600160a01b03808516602483015283166044820152606481018290526128dd9085906323b872dd60e01b906084015b60408051601f198184030181529190526020810180516001600160e01b03166001600160e01b031990931692909217909152612f5c565b50505050565b600082600001828154811061290857634e487b7160e01b600052603260045260246000fd5b9060005260206000200154905092915050565b60008181526001830160205260408120548015612a2e57600061293f600183613ad3565b855490915060009061295390600190613ad3565b90508181146129d457600086600001828154811061298157634e487b7160e01b600052603260045260246000fd5b90600052602060002001549050808760000184815481106129b257634e487b7160e01b600052603260045260246000fd5b6000918252602080832090910192909255918252600188019052604090208390555b85548690806129f357634e487b7160e01b600052603160045260246000fd5b6001900381819060005260206000200160009055905585600101600086815260200190815260200160002060009055600193505050506105da565b60009150506105da565b6000818152600183016020526040812054612a7f575081546001818101845560008481526020808220909301849055845484825282860190935260409020919091556105da565b5060006105da565b60006108e7836001600160a01b03841661291b565b6040516001600160a01b038316602482015260448101829052610b9790849063a9059cbb60e01b906064016128a6565b600080806000198587098587029250828110838203039150508060001415612b065760008411612afb57600080fd5b5082900490506108e7565b808411612b1257600080fd5b60008486880960026001871981018816978890046003810283188082028403028082028403028082028403028082028403028082028403029081029092039091026000889003889004909101858311909403939093029303949094049190911702949350505050565b600080805b8381101561104357848482818110612ba857634e487b7160e01b600052603260045260246000fd5b9050602002013560001415612bf55760405162461bcd60e51b8152602060048201526013602482015272416d6f756e742063616e74206265207a65726f60681b604482015260640161049c565b848482818110612c1557634e487b7160e01b600052603260045260246000fd5b9050602002013582612c279190613a7c565b915080612c3381613b51565b915050612b80565b6000808390506000836001600160a01b031663e6a43905836001600160a01b0316630dfe16816040518163ffffffff1660e01b815260040160206040518083038186803b158015612c8b57600080fd5b505afa158015612c9f573d6000803e3d6000fd5b505050506040513d601f19601f82011682018060405250810190612cc391906133bc565b846001600160a01b031663d21220a76040518163ffffffff1660e01b815260040160206040518083038186803b158015612cfc57600080fd5b505afa158015612d10573d6000803e3d6000fd5b505050506040513d601f19601f82011682018060405250810190612d3491906133bc565b6040516001600160e01b031960e085901b1681526001600160a01b0392831660048201529116602482015260440160206040518083038186803b158015612d7a57600080fd5b505afa158015612d8e573d6000803e3d6000fd5b505050506040513d601f19601f82011682018060405250810190612db291906133bc565b6001600160a01b03908116908616149250505092915050565b60008054612ddd90620f424090613a7c565b905060006040518061016001604052808381526020018a6001600160a01b031681526020018b6001600160a01b031681526020018981526020014281526020018881526020018781526020018681526020018581526020016000815260200184815250905060008190806001815401808255809150506001900390600052602060002090600b02016000909190919091506000820151816000015560208201518160010160006101000a8154816001600160a01b0302191690836001600160a01b0316021790555060408201518160020160006101000a8154816001600160a01b0302191690836001600160a01b03160217905550606082015181600301556080820151816004015560a0820151816005015560c0820151816006015560e082015181600701556101008201518160080155610120820151816009015561014082015181600a019080519060200190612f3792919061321b565b5050505098975050505050505050565b60006108e7836001600160a01b038416612a38565b6000612fb1826040518060400160405280602081526020017f5361666545524332303a206c6f772d6c6576656c2063616c6c206661696c6564815250856001600160a01b031661302e9092919063ffffffff16565b805190915015610b975780806020019051810190612fcf919061363b565b610b975760405162461bcd60e51b815260206004820152602a60248201527f5361666545524332303a204552433230206f7065726174696f6e20646964206e6044820152691bdd081cdd58d8d9595960b21b606482015260840161049c565b606061303d8484600085613045565b949350505050565b6060824710156130a65760405162461bcd60e51b815260206004820152602660248201527f416464726573733a20696e73756666696369656e742062616c616e636520666f6044820152651c8818d85b1b60d21b606482015260840161049c565b6001600160a01b0385163b6130fd5760405162461bcd60e51b815260206004820152601d60248201527f416464726573733a2063616c6c20746f206e6f6e2d636f6e7472616374000000604482015260640161049c565b600080866001600160a01b03168587604051613119919061381e565b60006040518083038185875af1925050503d8060008114613156576040519150601f19603f3d011682016040523d82523d6000602084013e61315b565b606091505b509150915061316b828286613176565b979650505050505050565b606083156131855750816108e7565b8251156131955782518084602001fd5b8160405162461bcd60e51b815260040161049c919061396c565b6040518061016001604052806000815260200160006001600160a01b0316815260200160006001600160a01b0316815260200160008152602001600081526020016000815260200160008152602001600081526020016000815260200160008152602001606081525090565b82805461322790613b16565b90600052602060002090601f016020900481019282613249576000855561328f565b82601f1061326257805160ff191683800117855561328f565b8280016001018555821561328f579182015b8281111561328f578251825591602001919060010190613274565b5061329b92915061329f565b5090565b5b8082111561329b57600081556001016132a0565b80356132bf81613b98565b919050565b60008083601f8401126132d5578081fd5b50813567ffffffffffffffff8111156132ec578182fd5b6020830191508360208260051b850101111561330757600080fd5b9250929050565b80356132bf81613bad565b600082601f830112613329578081fd5b813567ffffffffffffffff8082111561334457613344613b82565b604051601f8301601f19908116603f0116810190828211818310171561336c5761336c613b82565b81604052838152866020858801011115613384578485fd5b8360208701602083013792830160200193909352509392505050565b6000602082840312156133b1578081fd5b81356108e781613b98565b6000602082840312156133cd578081fd5b81516108e781613b98565b60008060008060008060c087890312156133f0578182fd5b86356133fb81613b98565b9550602087013561340b81613b98565b9450604087013561341b81613bad565b9350606087013592506080870135915060a087013567ffffffffffffffff811115613444578182fd5b61345089828a01613319565b9150509295509295509295565b60008060008060008060008060006101208a8c03121561347b578283fd5b893561348681613b98565b985060208a013561349681613b98565b975060408a01356134a681613bad565b965060608a0135955060808a0135945060a08a0135935060c08a0135925060e08a013591506101008a013567ffffffffffffffff8111156134e5578182fd5b6134f18c828d01613319565b9150509295985092959850929598565b60008060408385031215613513578182fd5b823561351e81613b98565b946020939093013593505050565b600080600060608486031215613540578283fd5b833561354b81613b98565b95602085013595506040909401359392505050565b60008060008060008060008060008060006101208c8e031215613581578182fd5b67ffffffffffffffff808d351115613597578283fd5b6135a48e8e358f016132c4565b909c509a5060208d01358110156135b9578283fd5b6135c98e60208f01358f016132c4565b909a5098506135da60408e016132b4565b97506135e860608e0161330e565b965060808d0135955060a08d0135945060c08d0135935060e08d01359250806101008e01351115613617578182fd5b506136298d6101008e01358e01613319565b90509295989b509295989b9093969950565b60006020828403121561364c578081fd5b81516108e781613bad565b600060208284031215613668578081fd5b5035919050565b600060208284031215613680578081fd5b5051919050565b60008060408385031215613699578182fd5b8235915060208301356136ab81613b98565b809150509250929050565b600080604083850312156136c8578182fd5b82359150602083013567ffffffffffffffff8111156136e5578182fd5b6136f185828601613319565b9150509250929050565b6000806040838503121561370d578182fd5b50508035926020909101359150565b600080600060608486031215613730578081fd5b505081359360208301359350604090920135919050565b6000815180845261375f816020860160208601613aea565b601f01601f19169290920160200192915050565b600061016082518452602083015161379660208601826001600160a01b03169052565b5060408301516137b160408601826001600160a01b03169052565b50606083015160608501526080830151608085015260a083015160a085015260c083015160c085015260e083015160e085015261010080840151818601525061012080840151818601525061014080840151828287015261381483870182613747565b9695505050505050565b60008251613830818460208701613aea565b9190910192915050565b6001600160a01b0394851681529290931660208301526040820152606081019190915260800190565b6020808252825182820181905260009190848201906040850190845b818110156138c7576138b483855180516001600160a01b03908116835260208083015190911690830152604090810151910152565b928401926060929092019160010161387f565b50909695505050505050565b6000602080830181845280855180835260408601915060408160051b8701019250838701855b8281101561392757603f19888603018452613915858351613773565b945092850192908501906001016138f9565b5092979650505050505050565b6020808252825182820181905260009190848201906040850190845b818110156138c757835183529284019291840191600101613950565b6020815260006108e76020830184613747565b60208082526022908201527f596f7520617265206e6f7420746865206f776e6572206f662074686973206c6f604082015261636b60f01b606082015260800190565b6020808252600d908201526c24b73b30b634b2103a37b5b2b760991b604082015260600190565b60208082526032908201527f53756d206f66205447452062707320616e64206379636c652073686f756c642060408201527106265206c657373207468616e2031303030360741b606082015260800190565b81516001600160a01b0390811682526020808401519091169082015260408083015190820152606081016105da565b6020815260006108e76020830184613773565b60008219821115613a8f57613a8f613b6c565b500190565b600082613aaf57634e487b7160e01b81526012600452602481fd5b500490565b6000816000190483118215151615613ace57613ace613b6c565b500290565b600082821015613ae557613ae5613b6c565b500390565b60005b83811015613b05578181015183820152602001613aed565b838111156128dd5750506000910152565b600181811c90821680613b2a57607f821691505b60208210811415613b4b57634e487b7160e01b600052602260045260246000fd5b50919050565b6000600019821415613b6557613b65613b6c565b5060010190565b634e487b7160e01b600052601160045260246000fd5b634e487b7160e01b600052604160045260246000fd5b6001600160a01b0381168114610ddd57600080fd5b8015158114610ddd57600080fdfea264697066735822122047b9ed015070ba8eb24b402f61f7f4fd67498b5e316bf15fc748e177c772f06664736f6c63430008040033",
			"opcodes": "PUSH1 0x80 PUSH1 0x40 MSTORE CALLVALUE DUP1 ISZERO PUSH2 0x10 JUMPI PUSH1 0x0 DUP1 REVERT JUMPDEST POP PUSH2 0x3BF1 DUP1 PUSH2 0x20 PUSH1 0x0 CODECOPY PUSH1 0x0 RETURN INVALID PUSH1 0x80 PUSH1 0x40 MSTORE CALLVALUE DUP1 ISZERO PUSH2 0x10 JUMPI PUSH1 0x0 DUP1 REVERT JUMPDEST POP PUSH1 0x4 CALLDATASIZE LT PUSH2 0x1CF JUMPI PUSH1 0x0 CALLDATALOAD PUSH1 0xE0 SHR DUP1 PUSH4 0xA57E3141 GT PUSH2 0x104 JUMPI DUP1 PUSH4 0xD3CAC885 GT PUSH2 0xA2 JUMPI DUP1 PUSH4 0xE3676F88 GT PUSH2 0x71 JUMPI DUP1 PUSH4 0xE3676F88 EQ PUSH2 0x433 JUMPI DUP1 PUSH4 0xEB80BDAE EQ PUSH2 0x446 JUMPI DUP1 PUSH4 0xEEACF786 EQ PUSH2 0x459 JUMPI DUP1 PUSH4 0xFD981C66 EQ PUSH2 0x46C JUMPI PUSH1 0x0 DUP1 REVERT JUMPDEST DUP1 PUSH4 0xD3CAC885 EQ PUSH2 0x38B JUMPI DUP1 PUSH4 0xDA1D8CFF EQ PUSH2 0x39E JUMPI DUP1 PUSH4 0xE0DA83CE EQ PUSH2 0x3B1 JUMPI DUP1 PUSH4 0xE1444FD6 EQ PUSH2 0x3D1 JUMPI PUSH1 0x0 DUP1 REVERT JUMPDEST DUP1 PUSH4 0xB3B9AA48 GT PUSH2 0xDE JUMPI DUP1 PUSH4 0xB3B9AA48 EQ PUSH2 0x34A JUMPI DUP1 PUSH4 0xB982922E EQ PUSH2 0x35D JUMPI DUP1 PUSH4 0xCB645E32 EQ PUSH2 0x365 JUMPI DUP1 PUSH4 0xCD83EADC EQ PUSH2 0x378 JUMPI PUSH1 0x0 DUP1 REVERT JUMPDEST DUP1 PUSH4 0xA57E3141 EQ PUSH2 0x311 JUMPI DUP1 PUSH4 0xAEC640C6 EQ PUSH2 0x324 JUMPI DUP1 PUSH4 0xAEF0E540 EQ PUSH2 0x337 JUMPI PUSH1 0x0 DUP1 REVERT JUMPDEST DUP1 PUSH4 0x5A04FB69 GT PUSH2 0x171 JUMPI DUP1 PUSH4 0x6DBDEAB3 GT PUSH2 0x14B JUMPI DUP1 PUSH4 0x6DBDEAB3 EQ PUSH2 0x2AB JUMPI DUP1 PUSH4 0x76C12822 EQ PUSH2 0x2BE JUMPI DUP1 PUSH4 0x7E6706D3 EQ PUSH2 0x2DE JUMPI DUP1 PUSH4 0xA20B8C18 EQ PUSH2 0x2FE JUMPI PUSH1 0x0 DUP1 REVERT JUMPDEST DUP1 PUSH4 0x5A04FB69 EQ PUSH2 0x270 JUMPI DUP1 PUSH4 0x618DF7A3 EQ PUSH2 0x285 JUMPI DUP1 PUSH4 0x6198E339 EQ PUSH2 0x298 JUMPI PUSH1 0x0 DUP1 REVERT JUMPDEST DUP1 PUSH4 0xD4F581A GT PUSH2 0x1AD JUMPI DUP1 PUSH4 0xD4F581A EQ PUSH2 0x22D JUMPI DUP1 PUSH4 0x1982242C EQ PUSH2 0x240 JUMPI DUP1 PUSH4 0x332F26D7 EQ PUSH2 0x248 JUMPI DUP1 PUSH4 0x475831C8 EQ PUSH2 0x268 JUMPI PUSH1 0x0 DUP1 REVERT JUMPDEST DUP1 PUSH4 0x7279357 EQ PUSH2 0x1D4 JUMPI DUP1 PUSH4 0x7873EF1 EQ PUSH2 0x1FA JUMPI DUP1 PUSH4 0x8F12470 EQ PUSH2 0x20D JUMPI JUMPDEST PUSH1 0x0 DUP1 REVERT JUMPDEST PUSH2 0x1E7 PUSH2 0x1E2 CALLDATASIZE PUSH1 0x4 PUSH2 0x33D8 JUMP JUMPDEST PUSH2 0x474 JUMP JUMPDEST PUSH1 0x40 MLOAD SWAP1 DUP2 MSTORE PUSH1 0x20 ADD JUMPDEST PUSH1 0x40 MLOAD DUP1 SWAP2 SUB SWAP1 RETURN JUMPDEST PUSH2 0x1E7 PUSH2 0x208 CALLDATASIZE PUSH1 0x4 PUSH2 0x33A0 JUMP JUMPDEST PUSH2 0x5B9 JUMP JUMPDEST PUSH2 0x220 PUSH2 0x21B CALLDATASIZE PUSH1 0x4 PUSH2 0x3657 JUMP JUMPDEST PUSH2 0x5E0 JUMP JUMPDEST PUSH1 0x40 MLOAD PUSH2 0x1F1 SWAP2 SWAP1 PUSH2 0x3A69 JUMP JUMPDEST PUSH2 0x220 PUSH2 0x23B CALLDATASIZE PUSH1 0x4 PUSH2 0x3657 JUMP JUMPDEST PUSH2 0x740 JUMP JUMPDEST PUSH2 0x1E7 PUSH2 0x769 JUMP JUMPDEST PUSH2 0x25B PUSH2 0x256 CALLDATASIZE PUSH1 0x4 PUSH2 0x352C JUMP JUMPDEST PUSH2 0x78A JUMP JUMPDEST PUSH1 0x40 MLOAD PUSH2 0x1F1 SWAP2 SWAP1 PUSH2 0x38D3 JUMP JUMPDEST PUSH2 0x1E7 PUSH2 0x8EE JUMP JUMPDEST PUSH2 0x283 PUSH2 0x27E CALLDATASIZE PUSH1 0x4 PUSH2 0x3687 JUMP JUMPDEST PUSH2 0x8FA JUMP JUMPDEST STOP JUMPDEST PUSH2 0x220 PUSH2 0x293 CALLDATASIZE PUSH1 0x4 PUSH2 0x3501 JUMP JUMPDEST PUSH2 0xA9A JUMP JUMPDEST PUSH2 0x283 PUSH2 0x2A6 CALLDATASIZE PUSH1 0x4 PUSH2 0x3657 JUMP JUMPDEST PUSH2 0xB0F JUMP JUMPDEST PUSH2 0x1E7 PUSH2 0x2B9 CALLDATASIZE PUSH1 0x4 PUSH2 0x3657 JUMP JUMPDEST PUSH2 0xBA5 JUMP JUMPDEST PUSH2 0x2D1 PUSH2 0x2CC CALLDATASIZE PUSH1 0x4 PUSH2 0x36FB JUMP JUMPDEST PUSH2 0xBBC JUMP JUMPDEST PUSH1 0x40 MLOAD PUSH2 0x1F1 SWAP2 SWAP1 PUSH2 0x3863 JUMP JUMPDEST PUSH2 0x2F1 PUSH2 0x2EC CALLDATASIZE PUSH1 0x4 PUSH2 0x3657 JUMP JUMPDEST PUSH2 0xD2F JUMP JUMPDEST PUSH1 0x40 MLOAD PUSH2 0x1F1 SWAP2 SWAP1 PUSH2 0x3A3A JUMP JUMPDEST PUSH2 0x2F1 PUSH2 0x30C CALLDATASIZE PUSH1 0x4 PUSH2 0x3657 JUMP JUMPDEST PUSH2 0xDA6 JUMP JUMPDEST PUSH2 0x283 PUSH2 0x31F CALLDATASIZE PUSH1 0x4 PUSH2 0x3657 JUMP JUMPDEST PUSH2 0xDD2 JUMP JUMPDEST PUSH2 0x2D1 PUSH2 0x332 CALLDATASIZE PUSH1 0x4 PUSH2 0x36FB JUMP JUMPDEST PUSH2 0xDE0 JUMP JUMPDEST PUSH2 0x25B PUSH2 0x345 CALLDATASIZE PUSH1 0x4 PUSH2 0x33A0 JUMP JUMPDEST PUSH2 0xF48 JUMP JUMPDEST PUSH2 0x283 PUSH2 0x358 CALLDATASIZE PUSH1 0x4 PUSH2 0x371C JUMP JUMPDEST PUSH2 0x104B JUMP JUMPDEST PUSH2 0x1E7 PUSH2 0x12EF JUMP JUMPDEST PUSH2 0x1E7 PUSH2 0x373 CALLDATASIZE PUSH1 0x4 PUSH2 0x345D JUMP JUMPDEST PUSH2 0x12FB JUMP JUMPDEST PUSH2 0x1E7 PUSH2 0x386 CALLDATASIZE PUSH1 0x4 PUSH2 0x33A0 JUMP JUMPDEST PUSH2 0x1542 JUMP JUMPDEST PUSH2 0x283 PUSH2 0x399 CALLDATASIZE PUSH1 0x4 PUSH2 0x36B6 JUMP JUMPDEST PUSH2 0x1560 JUMP JUMPDEST PUSH2 0x25B PUSH2 0x3AC CALLDATASIZE PUSH1 0x4 PUSH2 0x33A0 JUMP JUMPDEST PUSH2 0x1624 JUMP JUMPDEST PUSH2 0x3C4 PUSH2 0x3BF CALLDATASIZE PUSH1 0x4 PUSH2 0x3560 JUMP JUMPDEST PUSH2 0x171F JUMP JUMPDEST PUSH1 0x40 MLOAD PUSH2 0x1F1 SWAP2 SWAP1 PUSH2 0x3934 JUMP JUMPDEST PUSH2 0x40D PUSH2 0x3DF CALLDATASIZE PUSH1 0x4 PUSH2 0x33A0 JUMP JUMPDEST PUSH1 0x7 PUSH1 0x20 MSTORE PUSH1 0x0 SWAP1 DUP2 MSTORE PUSH1 0x40 SWAP1 KECCAK256 DUP1 SLOAD PUSH1 0x1 DUP3 ADD SLOAD PUSH1 0x2 SWAP1 SWAP3 ADD SLOAD PUSH1 0x1 PUSH1 0x1 PUSH1 0xA0 SHL SUB SWAP2 DUP3 AND SWAP3 SWAP1 SWAP2 AND SWAP1 DUP4 JUMP JUMPDEST PUSH1 0x40 DUP1 MLOAD PUSH1 0x1 PUSH1 0x1 PUSH1 0xA0 SHL SUB SWAP5 DUP6 AND DUP2 MSTORE SWAP4 SWAP1 SWAP3 AND PUSH1 0x20 DUP5 ADD MSTORE SWAP1 DUP3 ADD MSTORE PUSH1 0x60 ADD PUSH2 0x1F1 JUMP JUMPDEST PUSH2 0x1E7 PUSH2 0x441 CALLDATASIZE PUSH1 0x4 PUSH2 0x33A0 JUMP JUMPDEST PUSH2 0x192E JUMP JUMPDEST PUSH2 0x1E7 PUSH2 0x454 CALLDATASIZE PUSH1 0x4 PUSH2 0x33A0 JUMP JUMPDEST PUSH2 0x194F JUMP JUMPDEST PUSH2 0x220 PUSH2 0x467 CALLDATASIZE PUSH1 0x4 PUSH2 0x3501 JUMP JUMPDEST PUSH2 0x1970 JUMP JUMPDEST PUSH1 0x0 SLOAD PUSH2 0x1E7 JUMP JUMPDEST PUSH1 0x0 PUSH1 0x1 PUSH1 0x1 PUSH1 0xA0 SHL SUB DUP7 AND PUSH2 0x4A5 JUMPI PUSH1 0x40 MLOAD PUSH3 0x461BCD PUSH1 0xE5 SHL DUP2 MSTORE PUSH1 0x4 ADD PUSH2 0x49C SWAP1 PUSH2 0x39C1 JUMP JUMPDEST PUSH1 0x40 MLOAD DUP1 SWAP2 SUB SWAP1 REVERT JUMPDEST PUSH1 0x0 DUP5 GT PUSH2 0x4F5 JUMPI PUSH1 0x40 MLOAD PUSH3 0x461BCD PUSH1 0xE5 SHL DUP2 MSTORE PUSH1 0x20 PUSH1 0x4 DUP3 ADD MSTORE PUSH1 0x1F PUSH1 0x24 DUP3 ADD MSTORE PUSH32 0x416D6F756E742073686F756C642062652067726561746572207468616E203000 PUSH1 0x44 DUP3 ADD MSTORE PUSH1 0x64 ADD PUSH2 0x49C JUMP JUMPDEST TIMESTAMP DUP4 GT PUSH2 0x550 JUMPI PUSH1 0x40 MLOAD PUSH3 0x461BCD PUSH1 0xE5 SHL DUP2 MSTORE PUSH1 0x20 PUSH1 0x4 DUP3 ADD MSTORE PUSH1 0x23 PUSH1 0x24 DUP3 ADD MSTORE PUSH32 0x556E6C6F636B20646174652073686F756C6420626520696E2074686520667574 PUSH1 0x44 DUP3 ADD MSTORE PUSH3 0x757265 PUSH1 0xE8 SHL PUSH1 0x64 DUP3 ADD MSTORE PUSH1 0x84 ADD PUSH2 0x49C JUMP JUMPDEST PUSH2 0x563 DUP8 DUP8 DUP8 DUP8 DUP8 PUSH1 0x0 DUP1 PUSH1 0x0 DUP11 PUSH2 0x19E5 JUMP JUMPDEST SWAP1 POP PUSH2 0x571 DUP7 CALLER ADDRESS DUP8 PUSH2 0x1A31 JUMP JUMPDEST DUP1 PUSH32 0x694AF1CC8727CDD0AFBDD53D9B87B69248BD490224E9DD090E788546506E076F DUP8 DUP10 DUP8 DUP8 PUSH1 0x40 MLOAD PUSH2 0x5A7 SWAP5 SWAP4 SWAP3 SWAP2 SWAP1 PUSH2 0x383A JUMP JUMPDEST PUSH1 0x40 MLOAD DUP1 SWAP2 SUB SWAP1 LOG2 SWAP7 SWAP6 POP POP POP POP POP POP JUMP JUMPDEST PUSH1 0x1 PUSH1 0x1 PUSH1 0xA0 SHL SUB DUP2 AND PUSH1 0x0 SWAP1 DUP2 MSTORE PUSH1 0x1 PUSH1 0x20 MSTORE PUSH1 0x40 DUP2 KECCAK256 PUSH2 0x5DA SWAP1 PUSH2 0x1BA4 JUMP JUMPDEST SWAP3 SWAP2 POP POP JUMP JUMPDEST PUSH2 0x5E8 PUSH2 0x31AF JUMP JUMPDEST PUSH1 0x0 PUSH2 0x5F3 DUP4 PUSH2 0x1BAE JUMP JUMPDEST DUP2 SLOAD DUP2 LT PUSH2 0x611 JUMPI PUSH4 0x4E487B71 PUSH1 0xE0 SHL PUSH1 0x0 MSTORE PUSH1 0x32 PUSH1 0x4 MSTORE PUSH1 0x24 PUSH1 0x0 REVERT JUMPDEST PUSH1 0x0 SWAP2 DUP3 MSTORE PUSH1 0x20 SWAP2 DUP3 SWAP1 KECCAK256 PUSH1 0x40 DUP1 MLOAD PUSH2 0x160 DUP2 ADD DUP3 MSTORE PUSH1 0xB SWAP1 SWAP4 MUL SWAP1 SWAP2 ADD DUP1 SLOAD DUP4 MSTORE PUSH1 0x1 DUP2 ADD SLOAD PUSH1 0x1 PUSH1 0x1 PUSH1 0xA0 SHL SUB SWAP1 DUP2 AND SWAP5 DUP5 ADD SWAP5 SWAP1 SWAP5 MSTORE PUSH1 0x2 DUP2 ADD SLOAD SWAP1 SWAP4 AND SWAP1 DUP3 ADD MSTORE PUSH1 0x3 DUP3 ADD SLOAD PUSH1 0x60 DUP3 ADD MSTORE PUSH1 0x4 DUP3 ADD SLOAD PUSH1 0x80 DUP3 ADD MSTORE PUSH1 0x5 DUP3 ADD SLOAD PUSH1 0xA0 DUP3 ADD MSTORE PUSH1 0x6 DUP3 ADD SLOAD PUSH1 0xC0 DUP3 ADD MSTORE PUSH1 0x7 DUP3 ADD SLOAD PUSH1 0xE0 DUP3 ADD MSTORE PUSH1 0x8 DUP3 ADD SLOAD PUSH2 0x100 DUP3 ADD MSTORE PUSH1 0x9 DUP3 ADD SLOAD PUSH2 0x120 DUP3 ADD MSTORE PUSH1 0xA DUP3 ADD DUP1 SLOAD SWAP2 SWAP3 SWAP2 PUSH2 0x140 DUP5 ADD SWAP2 SWAP1 PUSH2 0x6B7 SWAP1 PUSH2 0x3B16 JUMP JUMPDEST DUP1 PUSH1 0x1F ADD PUSH1 0x20 DUP1 SWAP2 DIV MUL PUSH1 0x20 ADD PUSH1 0x40 MLOAD SWAP1 DUP2 ADD PUSH1 0x40 MSTORE DUP1 SWAP3 SWAP2 SWAP1 DUP2 DUP2 MSTORE PUSH1 0x20 ADD DUP3 DUP1 SLOAD PUSH2 0x6E3 SWAP1 PUSH2 0x3B16 JUMP JUMPDEST DUP1 ISZERO PUSH2 0x730 JUMPI DUP1 PUSH1 0x1F LT PUSH2 0x705 JUMPI PUSH2 0x100 DUP1 DUP4 SLOAD DIV MUL DUP4 MSTORE SWAP2 PUSH1 0x20 ADD SWAP2 PUSH2 0x730 JUMP JUMPDEST DUP3 ADD SWAP2 SWAP1 PUSH1 0x0 MSTORE PUSH1 0x20 PUSH1 0x0 KECCAK256 SWAP1 JUMPDEST DUP2 SLOAD DUP2 MSTORE SWAP1 PUSH1 0x1 ADD SWAP1 PUSH1 0x20 ADD DUP1 DUP4 GT PUSH2 0x713 JUMPI DUP3 SWAP1 SUB PUSH1 0x1F AND DUP3 ADD SWAP2 JUMPDEST POP POP POP POP POP DUP2 MSTORE POP POP SWAP1 POP SWAP2 SWAP1 POP JUMP JUMPDEST PUSH2 0x748 PUSH2 0x31AF JUMP JUMPDEST PUSH1 0x0 DUP3 DUP2 SLOAD DUP2 LT PUSH2 0x611 JUMPI PUSH4 0x4E487B71 PUSH1 0xE0 SHL PUSH1 0x0 MSTORE PUSH1 0x32 PUSH1 0x4 MSTORE PUSH1 0x24 PUSH1 0x0 REVERT JUMPDEST PUSH1 0x0 PUSH2 0x773 PUSH2 0x8EE JUMP JUMPDEST PUSH2 0x77B PUSH2 0x12EF JUMP JUMPDEST PUSH2 0x785 SWAP2 SWAP1 PUSH2 0x3A7C JUMP JUMPDEST SWAP1 POP SWAP1 JUMP JUMPDEST PUSH1 0x1 PUSH1 0x1 PUSH1 0xA0 SHL SUB DUP4 AND PUSH1 0x0 SWAP1 DUP2 MSTORE PUSH1 0x8 PUSH1 0x20 MSTORE PUSH1 0x40 SWAP1 KECCAK256 PUSH1 0x60 SWAP1 PUSH2 0x7AE SWAP1 PUSH2 0x1BA4 JUMP JUMPDEST DUP3 LT PUSH2 0x7E5 JUMPI PUSH1 0x1 PUSH1 0x1 PUSH1 0xA0 SHL SUB DUP5 AND PUSH1 0x0 SWAP1 DUP2 MSTORE PUSH1 0x8 PUSH1 0x20 MSTORE PUSH1 0x40 SWAP1 KECCAK256 PUSH1 0x1 SWAP1 PUSH2 0x7D8 SWAP1 PUSH2 0x1BA4 JUMP JUMPDEST PUSH2 0x7E2 SWAP2 SWAP1 PUSH2 0x3AD3 JUMP JUMPDEST SWAP2 POP JUMPDEST PUSH1 0x0 PUSH2 0x7F1 DUP5 DUP5 PUSH2 0x3AD3 JUMP JUMPDEST PUSH2 0x7FC SWAP1 PUSH1 0x1 PUSH2 0x3A7C JUMP JUMPDEST SWAP1 POP PUSH1 0x0 DUP2 PUSH8 0xFFFFFFFFFFFFFFFF DUP2 GT ISZERO PUSH2 0x827 JUMPI PUSH4 0x4E487B71 PUSH1 0xE0 SHL PUSH1 0x0 MSTORE PUSH1 0x41 PUSH1 0x4 MSTORE PUSH1 0x24 PUSH1 0x0 REVERT JUMPDEST PUSH1 0x40 MLOAD SWAP1 DUP1 DUP3 MSTORE DUP1 PUSH1 0x20 MUL PUSH1 0x20 ADD DUP3 ADD PUSH1 0x40 MSTORE DUP1 ISZERO PUSH2 0x860 JUMPI DUP2 PUSH1 0x20 ADD JUMPDEST PUSH2 0x84D PUSH2 0x31AF JUMP JUMPDEST DUP2 MSTORE PUSH1 0x20 ADD SWAP1 PUSH1 0x1 SWAP1 SUB SWAP1 DUP2 PUSH2 0x845 JUMPI SWAP1 POP JUMPDEST POP SWAP1 POP PUSH1 0x0 DUP6 JUMPDEST DUP6 DUP2 GT PUSH2 0x8E0 JUMPI PUSH1 0x1 PUSH1 0x1 PUSH1 0xA0 SHL SUB DUP9 AND PUSH1 0x0 SWAP1 DUP2 MSTORE PUSH1 0x8 PUSH1 0x20 MSTORE PUSH1 0x40 SWAP1 KECCAK256 PUSH2 0x894 SWAP1 PUSH2 0x21B SWAP1 DUP4 PUSH2 0x1C4A JUMP JUMPDEST DUP4 DUP4 DUP2 MLOAD DUP2 LT PUSH2 0x8B4 JUMPI PUSH4 0x4E487B71 PUSH1 0xE0 SHL PUSH1 0x0 MSTORE PUSH1 0x32 PUSH1 0x4 MSTORE PUSH1 0x24 PUSH1 0x0 REVERT JUMPDEST PUSH1 0x20 MUL PUSH1 0x20 ADD ADD DUP2 SWAP1 MSTORE POP DUP2 DUP1 PUSH2 0x8CA SWAP1 PUSH2 0x3B51 JUMP JUMPDEST SWAP3 POP POP DUP1 DUP1 PUSH2 0x8D8 SWAP1 PUSH2 0x3B51 JUMP JUMPDEST SWAP2 POP POP PUSH2 0x867 JUMP JUMPDEST POP SWAP1 SWAP3 POP POP POP JUMPDEST SWAP4 SWAP3 POP POP POP JUMP JUMPDEST PUSH1 0x0 PUSH2 0x785 PUSH1 0x5 PUSH2 0x1BA4 JUMP JUMPDEST DUP2 PUSH2 0x904 DUP2 PUSH2 0x1BAE JUMP JUMPDEST POP PUSH1 0x0 DUP1 PUSH2 0x911 DUP6 PUSH2 0x1BAE JUMP JUMPDEST DUP2 SLOAD DUP2 LT PUSH2 0x92F JUMPI PUSH4 0x4E487B71 PUSH1 0xE0 SHL PUSH1 0x0 MSTORE PUSH1 0x32 PUSH1 0x4 MSTORE PUSH1 0x24 PUSH1 0x0 REVERT JUMPDEST PUSH1 0x0 SWAP2 DUP3 MSTORE PUSH1 0x20 SWAP1 SWAP2 KECCAK256 PUSH1 0xB SWAP1 SWAP2 MUL ADD PUSH1 0x2 DUP2 ADD SLOAD SWAP1 SWAP2 POP PUSH1 0x1 PUSH1 0x1 PUSH1 0xA0 SHL SUB AND CALLER DUP2 EQ PUSH2 0x96F JUMPI PUSH1 0x40 MLOAD PUSH3 0x461BCD PUSH1 0xE5 SHL DUP2 MSTORE PUSH1 0x4 ADD PUSH2 0x49C SWAP1 PUSH2 0x397F JUMP JUMPDEST PUSH1 0x2 DUP3 ADD DUP1 SLOAD PUSH1 0x1 PUSH1 0x1 PUSH1 0xA0 SHL SUB NOT AND PUSH1 0x1 PUSH1 0x1 PUSH1 0xA0 SHL SUB DUP7 DUP2 AND SWAP2 SWAP1 SWAP2 OR SWAP1 SWAP2 SSTORE PUSH1 0x1 DUP1 DUP5 ADD SLOAD DUP3 AND PUSH1 0x0 SWAP1 DUP2 MSTORE PUSH1 0x7 PUSH1 0x20 MSTORE PUSH1 0x40 SWAP1 KECCAK256 SWAP1 DUP2 ADD SLOAD SWAP1 SWAP2 AND ISZERO DUP1 ISZERO SWAP1 PUSH2 0xA01 JUMPI PUSH1 0x1 PUSH1 0x1 PUSH1 0xA0 SHL SUB DUP4 AND PUSH1 0x0 SWAP1 DUP2 MSTORE PUSH1 0x1 PUSH1 0x20 MSTORE PUSH1 0x40 SWAP1 KECCAK256 PUSH2 0x9D8 SWAP1 DUP9 PUSH2 0x1C56 JUMP JUMPDEST POP PUSH1 0x1 PUSH1 0x1 PUSH1 0xA0 SHL SUB DUP7 AND PUSH1 0x0 SWAP1 DUP2 MSTORE PUSH1 0x1 PUSH1 0x20 MSTORE PUSH1 0x40 SWAP1 KECCAK256 PUSH2 0x9FB SWAP1 DUP9 PUSH2 0x1C62 JUMP JUMPDEST POP PUSH2 0xA48 JUMP JUMPDEST PUSH1 0x1 PUSH1 0x1 PUSH1 0xA0 SHL SUB DUP4 AND PUSH1 0x0 SWAP1 DUP2 MSTORE PUSH1 0x2 PUSH1 0x20 MSTORE PUSH1 0x40 SWAP1 KECCAK256 PUSH2 0xA23 SWAP1 DUP9 PUSH2 0x1C56 JUMP JUMPDEST POP PUSH1 0x1 PUSH1 0x1 PUSH1 0xA0 SHL SUB DUP7 AND PUSH1 0x0 SWAP1 DUP2 MSTORE PUSH1 0x2 PUSH1 0x20 MSTORE PUSH1 0x40 SWAP1 KECCAK256 PUSH2 0xA46 SWAP1 DUP9 PUSH2 0x1C62 JUMP JUMPDEST POP JUMPDEST PUSH1 0x40 DUP1 MLOAD DUP9 DUP2 MSTORE PUSH1 0x1 PUSH1 0x1 PUSH1 0xA0 SHL SUB DUP6 DUP2 AND PUSH1 0x20 DUP4 ADD MSTORE DUP9 AND DUP2 DUP4 ADD MSTORE SWAP1 MLOAD PUSH32 0x9075AD040756C0D8743A1FED927066A92C4755071615BF61E04B17583D961CAF SWAP2 DUP2 SWAP1 SUB PUSH1 0x60 ADD SWAP1 LOG1 POP POP POP POP POP POP POP JUMP JUMPDEST PUSH2 0xAA2 PUSH2 0x31AF JUMP JUMPDEST DUP2 PUSH2 0xAAC DUP5 PUSH2 0x194F JUMP JUMPDEST GT PUSH2 0xAE9 JUMPI PUSH1 0x40 MLOAD PUSH3 0x461BCD PUSH1 0xE5 SHL DUP2 MSTORE PUSH1 0x20 PUSH1 0x4 DUP3 ADD MSTORE PUSH1 0xD PUSH1 0x24 DUP3 ADD MSTORE PUSH13 0x92DCECC2D8D2C840D2DCC8CAF PUSH1 0x9B SHL PUSH1 0x44 DUP3 ADD MSTORE PUSH1 0x64 ADD PUSH2 0x49C JUMP JUMPDEST PUSH1 0x1 PUSH1 0x1 PUSH1 0xA0 SHL SUB DUP4 AND PUSH1 0x0 SWAP1 DUP2 MSTORE PUSH1 0x2 PUSH1 0x20 MSTORE PUSH1 0x40 SWAP1 KECCAK256 PUSH2 0x8E7 SWAP1 PUSH2 0x21B SWAP1 DUP5 PUSH2 0x1C4A JUMP JUMPDEST DUP1 PUSH2 0xB19 DUP2 PUSH2 0x1BAE JUMP JUMPDEST POP PUSH1 0x0 DUP1 PUSH2 0xB26 DUP5 PUSH2 0x1BAE JUMP JUMPDEST DUP2 SLOAD DUP2 LT PUSH2 0xB44 JUMPI PUSH4 0x4E487B71 PUSH1 0xE0 SHL PUSH1 0x0 MSTORE PUSH1 0x32 PUSH1 0x4 MSTORE PUSH1 0x24 PUSH1 0x0 REVERT JUMPDEST PUSH1 0x0 SWAP2 DUP3 MSTORE PUSH1 0x20 SWAP1 SWAP2 KECCAK256 PUSH1 0x2 PUSH1 0xB SWAP1 SWAP3 MUL ADD SWAP1 DUP2 ADD SLOAD SWAP1 SWAP2 POP PUSH1 0x1 PUSH1 0x1 PUSH1 0xA0 SHL SUB AND CALLER EQ PUSH2 0xB84 JUMPI PUSH1 0x40 MLOAD PUSH3 0x461BCD PUSH1 0xE5 SHL DUP2 MSTORE PUSH1 0x4 ADD PUSH2 0x49C SWAP1 PUSH2 0x397F JUMP JUMPDEST PUSH1 0x6 DUP2 ADD SLOAD ISZERO PUSH2 0xB9C JUMPI PUSH2 0xB97 DUP2 PUSH2 0x1C6E JUMP JUMPDEST POP POP POP JUMP JUMPDEST PUSH2 0xB97 DUP2 PUSH2 0x2001 JUMP JUMPDEST PUSH1 0x0 DUP1 PUSH2 0xBB1 DUP4 PUSH2 0x5E0 JUMP JUMPDEST SWAP1 POP PUSH2 0x8E7 DUP2 PUSH2 0x221D JUMP JUMPDEST PUSH1 0x60 PUSH2 0xBC8 PUSH1 0x5 PUSH2 0x1BA4 JUMP JUMPDEST DUP3 LT PUSH2 0xBE7 JUMPI PUSH1 0x1 PUSH2 0xBDA PUSH1 0x5 PUSH2 0x1BA4 JUMP JUMPDEST PUSH2 0xBE4 SWAP2 SWAP1 PUSH2 0x3AD3 JUMP JUMPDEST SWAP2 POP JUMPDEST PUSH1 0x0 PUSH2 0xBF3 DUP5 DUP5 PUSH2 0x3AD3 JUMP JUMPDEST PUSH2 0xBFE SWAP1 PUSH1 0x1 PUSH2 0x3A7C JUMP JUMPDEST SWAP1 POP PUSH1 0x0 DUP2 PUSH8 0xFFFFFFFFFFFFFFFF DUP2 GT ISZERO PUSH2 0xC29 JUMPI PUSH4 0x4E487B71 PUSH1 0xE0 SHL PUSH1 0x0 MSTORE PUSH1 0x41 PUSH1 0x4 MSTORE PUSH1 0x24 PUSH1 0x0 REVERT JUMPDEST PUSH1 0x40 MLOAD SWAP1 DUP1 DUP3 MSTORE DUP1 PUSH1 0x20 MUL PUSH1 0x20 ADD DUP3 ADD PUSH1 0x40 MSTORE DUP1 ISZERO PUSH2 0xC74 JUMPI DUP2 PUSH1 0x20 ADD JUMPDEST PUSH1 0x40 DUP1 MLOAD PUSH1 0x60 DUP2 ADD DUP3 MSTORE PUSH1 0x0 DUP1 DUP3 MSTORE PUSH1 0x20 DUP1 DUP4 ADD DUP3 SWAP1 MSTORE SWAP3 DUP3 ADD MSTORE DUP3 MSTORE PUSH1 0x0 NOT SWAP1 SWAP3 ADD SWAP2 ADD DUP2 PUSH2 0xC47 JUMPI SWAP1 POP JUMPDEST POP SWAP1 POP PUSH1 0x0 DUP6 JUMPDEST DUP6 DUP2 GT PUSH2 0xD24 JUMPI PUSH1 0x7 PUSH1 0x0 PUSH2 0xC91 PUSH1 0x5 DUP5 PUSH2 0x1C4A JUMP JUMPDEST PUSH1 0x1 PUSH1 0x1 PUSH1 0xA0 SHL SUB SWAP1 DUP2 AND DUP3 MSTORE PUSH1 0x20 DUP1 DUP4 ADD SWAP4 SWAP1 SWAP4 MSTORE PUSH1 0x40 SWAP2 DUP3 ADD PUSH1 0x0 KECCAK256 DUP3 MLOAD PUSH1 0x60 DUP2 ADD DUP5 MSTORE DUP2 SLOAD DUP4 AND DUP2 MSTORE PUSH1 0x1 DUP3 ADD SLOAD SWAP1 SWAP3 AND SWAP4 DUP3 ADD SWAP4 SWAP1 SWAP4 MSTORE PUSH1 0x2 SWAP1 SWAP3 ADD SLOAD SWAP1 DUP3 ADD MSTORE DUP4 MLOAD DUP5 SWAP1 DUP5 SWAP1 DUP2 LT PUSH2 0xCF8 JUMPI PUSH4 0x4E487B71 PUSH1 0xE0 SHL PUSH1 0x0 MSTORE PUSH1 0x32 PUSH1 0x4 MSTORE PUSH1 0x24 PUSH1 0x0 REVERT JUMPDEST PUSH1 0x20 MUL PUSH1 0x20 ADD ADD DUP2 SWAP1 MSTORE POP DUP2 DUP1 PUSH2 0xD0E SWAP1 PUSH2 0x3B51 JUMP JUMPDEST SWAP3 POP POP DUP1 DUP1 PUSH2 0xD1C SWAP1 PUSH2 0x3B51 JUMP JUMPDEST SWAP2 POP POP PUSH2 0xC7B JUMP JUMPDEST POP SWAP1 SWAP6 SWAP5 POP POP POP POP POP JUMP JUMPDEST PUSH1 0x40 DUP1 MLOAD PUSH1 0x60 DUP2 ADD DUP3 MSTORE PUSH1 0x0 DUP1 DUP3 MSTORE PUSH1 0x20 DUP3 ADD DUP2 SWAP1 MSTORE SWAP2 DUP2 ADD SWAP2 SWAP1 SWAP2 MSTORE PUSH1 0x7 PUSH1 0x0 PUSH2 0xD5B PUSH1 0x5 DUP6 PUSH2 0x1C4A JUMP JUMPDEST PUSH1 0x1 PUSH1 0x1 PUSH1 0xA0 SHL SUB SWAP1 DUP2 AND DUP3 MSTORE PUSH1 0x20 DUP1 DUP4 ADD SWAP4 SWAP1 SWAP4 MSTORE PUSH1 0x40 SWAP2 DUP3 ADD PUSH1 0x0 KECCAK256 DUP3 MLOAD PUSH1 0x60 DUP2 ADD DUP5 MSTORE DUP2 SLOAD DUP4 AND DUP2 MSTORE PUSH1 0x1 DUP3 ADD SLOAD SWAP1 SWAP3 AND SWAP4 DUP3 ADD SWAP4 SWAP1 SWAP4 MSTORE PUSH1 0x2 SWAP1 SWAP3 ADD SLOAD SWAP1 DUP3 ADD MSTORE SWAP3 SWAP2 POP POP JUMP JUMPDEST PUSH1 0x40 DUP1 MLOAD PUSH1 0x60 DUP2 ADD DUP3 MSTORE PUSH1 0x0 DUP1 DUP3 MSTORE PUSH1 0x20 DUP3 ADD DUP2 SWAP1 MSTORE SWAP2 DUP2 ADD SWAP2 SWAP1 SWAP2 MSTORE PUSH1 0x7 PUSH1 0x0 PUSH2 0xD5B PUSH1 0x3 DUP6 PUSH2 0x1C4A JUMP JUMPDEST PUSH2 0xDDD DUP2 PUSH1 0x0 PUSH2 0x8FA JUMP JUMPDEST POP JUMP JUMPDEST PUSH1 0x60 PUSH2 0xDEC PUSH1 0x3 PUSH2 0x1BA4 JUMP JUMPDEST DUP3 LT PUSH2 0xE0B JUMPI PUSH1 0x1 PUSH2 0xDFE PUSH1 0x3 PUSH2 0x1BA4 JUMP JUMPDEST PUSH2 0xE08 SWAP2 SWAP1 PUSH2 0x3AD3 JUMP JUMPDEST SWAP2 POP JUMPDEST PUSH1 0x0 PUSH2 0xE17 DUP5 DUP5 PUSH2 0x3AD3 JUMP JUMPDEST PUSH2 0xE22 SWAP1 PUSH1 0x1 PUSH2 0x3A7C JUMP JUMPDEST SWAP1 POP PUSH1 0x0 DUP2 PUSH8 0xFFFFFFFFFFFFFFFF DUP2 GT ISZERO PUSH2 0xE4D JUMPI PUSH4 0x4E487B71 PUSH1 0xE0 SHL PUSH1 0x0 MSTORE PUSH1 0x41 PUSH1 0x4 MSTORE PUSH1 0x24 PUSH1 0x0 REVERT JUMPDEST PUSH1 0x40 MLOAD SWAP1 DUP1 DUP3 MSTORE DUP1 PUSH1 0x20 MUL PUSH1 0x20 ADD DUP3 ADD PUSH1 0x40 MSTORE DUP1 ISZERO PUSH2 0xE98 JUMPI DUP2 PUSH1 0x20 ADD JUMPDEST PUSH1 0x40 DUP1 MLOAD PUSH1 0x60 DUP2 ADD DUP3 MSTORE PUSH1 0x0 DUP1 DUP3 MSTORE PUSH1 0x20 DUP1 DUP4 ADD DUP3 SWAP1 MSTORE SWAP3 DUP3 ADD MSTORE DUP3 MSTORE PUSH1 0x0 NOT SWAP1 SWAP3 ADD SWAP2 ADD DUP2 PUSH2 0xE6B JUMPI SWAP1 POP JUMPDEST POP SWAP1 POP PUSH1 0x0 DUP6 JUMPDEST DUP6 DUP2 GT PUSH2 0xD24 JUMPI PUSH1 0x7 PUSH1 0x0 PUSH2 0xEB5 PUSH1 0x3 DUP5 PUSH2 0x1C4A JUMP JUMPDEST PUSH1 0x1 PUSH1 0x1 PUSH1 0xA0 SHL SUB SWAP1 DUP2 AND DUP3 MSTORE PUSH1 0x20 DUP1 DUP4 ADD SWAP4 SWAP1 SWAP4 MSTORE PUSH1 0x40 SWAP2 DUP3 ADD PUSH1 0x0 KECCAK256 DUP3 MLOAD PUSH1 0x60 DUP2 ADD DUP5 MSTORE DUP2 SLOAD DUP4 AND DUP2 MSTORE PUSH1 0x1 DUP3 ADD SLOAD SWAP1 SWAP3 AND SWAP4 DUP3 ADD SWAP4 SWAP1 SWAP4 MSTORE PUSH1 0x2 SWAP1 SWAP3 ADD SLOAD SWAP1 DUP3 ADD MSTORE DUP4 MLOAD DUP5 SWAP1 DUP5 SWAP1 DUP2 LT PUSH2 0xF1C JUMPI PUSH4 0x4E487B71 PUSH1 0xE0 SHL PUSH1 0x0 MSTORE PUSH1 0x32 PUSH1 0x4 MSTORE PUSH1 0x24 PUSH1 0x0 REVERT JUMPDEST PUSH1 0x20 MUL PUSH1 0x20 ADD ADD DUP2 SWAP1 MSTORE POP DUP2 DUP1 PUSH2 0xF32 SWAP1 PUSH2 0x3B51 JUMP JUMPDEST SWAP3 POP POP DUP1 DUP1 PUSH2 0xF40 SWAP1 PUSH2 0x3B51 JUMP JUMPDEST SWAP2 POP POP PUSH2 0xE9F JUMP JUMPDEST PUSH1 0x1 PUSH1 0x1 PUSH1 0xA0 SHL SUB DUP2 AND PUSH1 0x0 SWAP1 DUP2 MSTORE PUSH1 0x1 PUSH1 0x20 MSTORE PUSH1 0x40 DUP2 KECCAK256 PUSH1 0x60 SWAP2 SWAP1 PUSH2 0xF6D SWAP1 PUSH2 0x1BA4 JUMP JUMPDEST SWAP1 POP PUSH1 0x0 DUP2 PUSH8 0xFFFFFFFFFFFFFFFF DUP2 GT ISZERO PUSH2 0xF98 JUMPI PUSH4 0x4E487B71 PUSH1 0xE0 SHL PUSH1 0x0 MSTORE PUSH1 0x41 PUSH1 0x4 MSTORE PUSH1 0x24 PUSH1 0x0 REVERT JUMPDEST PUSH1 0x40 MLOAD SWAP1 DUP1 DUP3 MSTORE DUP1 PUSH1 0x20 MUL PUSH1 0x20 ADD DUP3 ADD PUSH1 0x40 MSTORE DUP1 ISZERO PUSH2 0xFD1 JUMPI DUP2 PUSH1 0x20 ADD JUMPDEST PUSH2 0xFBE PUSH2 0x31AF JUMP JUMPDEST DUP2 MSTORE PUSH1 0x20 ADD SWAP1 PUSH1 0x1 SWAP1 SUB SWAP1 DUP2 PUSH2 0xFB6 JUMPI SWAP1 POP JUMPDEST POP SWAP1 POP PUSH1 0x0 JUMPDEST DUP3 DUP2 LT ISZERO PUSH2 0x1043 JUMPI PUSH1 0x1 PUSH1 0x1 PUSH1 0xA0 SHL SUB DUP6 AND PUSH1 0x0 SWAP1 DUP2 MSTORE PUSH1 0x1 PUSH1 0x20 MSTORE PUSH1 0x40 SWAP1 KECCAK256 PUSH2 0x1005 SWAP1 PUSH2 0x21B SWAP1 DUP4 PUSH2 0x1C4A JUMP JUMPDEST DUP3 DUP3 DUP2 MLOAD DUP2 LT PUSH2 0x1025 JUMPI PUSH4 0x4E487B71 PUSH1 0xE0 SHL PUSH1 0x0 MSTORE PUSH1 0x32 PUSH1 0x4 MSTORE PUSH1 0x24 PUSH1 0x0 REVERT JUMPDEST PUSH1 0x20 MUL PUSH1 0x20 ADD ADD DUP2 SWAP1 MSTORE POP DUP1 DUP1 PUSH2 0x103B SWAP1 PUSH2 0x3B51 JUMP JUMPDEST SWAP2 POP POP PUSH2 0xFD7 JUMP JUMPDEST POP SWAP4 SWAP3 POP POP POP JUMP JUMPDEST DUP3 PUSH2 0x1055 DUP2 PUSH2 0x1BAE JUMP JUMPDEST POP PUSH1 0x0 DUP1 PUSH2 0x1062 DUP7 PUSH2 0x1BAE JUMP JUMPDEST DUP2 SLOAD DUP2 LT PUSH2 0x1080 JUMPI PUSH4 0x4E487B71 PUSH1 0xE0 SHL PUSH1 0x0 MSTORE PUSH1 0x32 PUSH1 0x4 MSTORE PUSH1 0x24 PUSH1 0x0 REVERT JUMPDEST PUSH1 0x0 SWAP2 DUP3 MSTORE PUSH1 0x20 SWAP1 SWAP2 KECCAK256 PUSH1 0x2 PUSH1 0xB SWAP1 SWAP3 MUL ADD SWAP1 DUP2 ADD SLOAD SWAP1 SWAP2 POP PUSH1 0x1 PUSH1 0x1 PUSH1 0xA0 SHL SUB AND CALLER EQ PUSH2 0x10C0 JUMPI PUSH1 0x40 MLOAD PUSH3 0x461BCD PUSH1 0xE5 SHL DUP2 MSTORE PUSH1 0x4 ADD PUSH2 0x49C SWAP1 PUSH2 0x397F JUMP JUMPDEST PUSH1 0x9 DUP2 ADD SLOAD ISZERO PUSH2 0x1106 JUMPI PUSH1 0x40 MLOAD PUSH3 0x461BCD PUSH1 0xE5 SHL DUP2 MSTORE PUSH1 0x20 PUSH1 0x4 DUP3 ADD MSTORE PUSH1 0x11 PUSH1 0x24 DUP3 ADD MSTORE PUSH17 0x131BD8DAC81DD85CC81D5B9B1BD8DAD959 PUSH1 0x7A SHL PUSH1 0x44 DUP3 ADD MSTORE PUSH1 0x64 ADD PUSH2 0x49C JUMP JUMPDEST DUP3 ISZERO PUSH2 0x11A7 JUMPI DUP1 PUSH1 0x5 ADD SLOAD DUP4 LT ISZERO DUP1 ISZERO PUSH2 0x111F JUMPI POP TIMESTAMP DUP4 GT JUMPDEST PUSH2 0x119F JUMPI PUSH1 0x40 MLOAD PUSH3 0x461BCD PUSH1 0xE5 SHL DUP2 MSTORE PUSH1 0x20 PUSH1 0x4 DUP3 ADD MSTORE PUSH1 0x44 PUSH1 0x24 DUP3 ADD DUP2 SWAP1 MSTORE PUSH32 0x4E657720756E6C6F636B2074696D652073686F756C64206E6F74206265206265 SWAP1 DUP3 ADD MSTORE PUSH32 0x666F7265206F6C6420756E6C6F636B2074696D65206F722063757272656E7420 PUSH1 0x64 DUP3 ADD MSTORE PUSH4 0x74696D65 PUSH1 0xE0 SHL PUSH1 0x84 DUP3 ADD MSTORE PUSH1 0xA4 ADD PUSH2 0x49C JUMP JUMPDEST PUSH1 0x5 DUP2 ADD DUP4 SWAP1 SSTORE JUMPDEST DUP4 ISZERO PUSH2 0x128B JUMPI DUP1 PUSH1 0x3 ADD SLOAD DUP5 LT ISZERO PUSH2 0x121B JUMPI PUSH1 0x40 MLOAD PUSH3 0x461BCD PUSH1 0xE5 SHL DUP2 MSTORE PUSH1 0x20 PUSH1 0x4 DUP3 ADD MSTORE PUSH1 0x31 PUSH1 0x24 DUP3 ADD MSTORE PUSH32 0x4E657720616D6F756E742073686F756C64206E6F74206265206C657373207468 PUSH1 0x44 DUP3 ADD MSTORE PUSH17 0x185B8818DD5C9C995B9D08185B5BDD5B9D PUSH1 0x7A SHL PUSH1 0x64 DUP3 ADD MSTORE PUSH1 0x84 ADD PUSH2 0x49C JUMP JUMPDEST PUSH1 0x0 DUP2 PUSH1 0x3 ADD SLOAD DUP6 PUSH2 0x122D SWAP2 SWAP1 PUSH2 0x3AD3 JUMP JUMPDEST SWAP1 POP DUP1 ISZERO PUSH2 0x1289 JUMPI PUSH1 0x3 DUP3 ADD DUP6 SWAP1 SSTORE PUSH1 0x1 DUP3 ADD SLOAD PUSH1 0x1 PUSH1 0x1 PUSH1 0xA0 SHL SUB AND PUSH1 0x0 SWAP1 DUP2 MSTORE PUSH1 0x7 PUSH1 0x20 MSTORE PUSH1 0x40 SWAP1 KECCAK256 PUSH1 0x2 DUP2 ADD SLOAD PUSH2 0x1268 SWAP1 DUP4 SWAP1 PUSH2 0x3A7C JUMP JUMPDEST PUSH1 0x2 DUP3 ADD SSTORE PUSH1 0x1 DUP4 ADD SLOAD PUSH2 0x1287 SWAP1 PUSH1 0x1 PUSH1 0x1 PUSH1 0xA0 SHL SUB AND CALLER ADDRESS DUP6 PUSH2 0x1A31 JUMP JUMPDEST POP JUMPDEST POP JUMPDEST DUP1 SLOAD PUSH1 0x1 DUP3 ADD SLOAD PUSH1 0x2 DUP4 ADD SLOAD PUSH1 0x3 DUP5 ADD SLOAD PUSH1 0x5 DUP6 ADD SLOAD PUSH1 0x40 MLOAD PUSH32 0xA8B26360DF8D5E154FFA5A8A7E894E85F781ACFBBEF0B744FB9551D8FD0FD36C SWAP5 PUSH2 0x12E0 SWAP5 PUSH1 0x1 PUSH1 0x1 PUSH1 0xA0 SHL SUB SWAP2 DUP3 AND SWAP5 SWAP2 AND SWAP3 SWAP1 SWAP2 PUSH2 0x383A JUMP JUMPDEST PUSH1 0x40 MLOAD DUP1 SWAP2 SUB SWAP1 LOG2 POP POP POP POP POP JUMP JUMPDEST PUSH1 0x0 PUSH2 0x785 PUSH1 0x3 PUSH2 0x1BA4 JUMP JUMPDEST PUSH1 0x0 PUSH1 0x1 PUSH1 0x1 PUSH1 0xA0 SHL SUB DUP10 AND PUSH2 0x1323 JUMPI PUSH1 0x40 MLOAD PUSH3 0x461BCD PUSH1 0xE5 SHL DUP2 MSTORE PUSH1 0x4 ADD PUSH2 0x49C SWAP1 PUSH2 0x39C1 JUMP JUMPDEST PUSH1 0x0 DUP8 GT PUSH2 0x1373 JUMPI PUSH1 0x40 MLOAD PUSH3 0x461BCD PUSH1 0xE5 SHL DUP2 MSTORE PUSH1 0x20 PUSH1 0x4 DUP3 ADD MSTORE PUSH1 0x1F PUSH1 0x24 DUP3 ADD MSTORE PUSH32 0x416D6F756E742073686F756C642062652067726561746572207468616E203000 PUSH1 0x44 DUP3 ADD MSTORE PUSH1 0x64 ADD PUSH2 0x49C JUMP JUMPDEST TIMESTAMP DUP7 GT PUSH2 0x13C2 JUMPI PUSH1 0x40 MLOAD PUSH3 0x461BCD PUSH1 0xE5 SHL DUP2 MSTORE PUSH1 0x20 PUSH1 0x4 DUP3 ADD DUP2 SWAP1 MSTORE PUSH1 0x24 DUP3 ADD MSTORE PUSH32 0x54474520646174652073686F756C6420626520696E2074686520667574757265 PUSH1 0x44 DUP3 ADD MSTORE PUSH1 0x64 ADD PUSH2 0x49C JUMP JUMPDEST PUSH1 0x0 DUP5 GT PUSH2 0x1402 JUMPI PUSH1 0x40 MLOAD PUSH3 0x461BCD PUSH1 0xE5 SHL DUP2 MSTORE PUSH1 0x20 PUSH1 0x4 DUP3 ADD MSTORE PUSH1 0xD PUSH1 0x24 DUP3 ADD MSTORE PUSH13 0x496E76616C6964206379636C65 PUSH1 0x98 SHL PUSH1 0x44 DUP3 ADD MSTORE PUSH1 0x64 ADD PUSH2 0x49C JUMP JUMPDEST PUSH1 0x0 DUP6 GT DUP1 ISZERO PUSH2 0x1413 JUMPI POP PUSH2 0x2710 DUP6 LT JUMPDEST PUSH2 0x1456 JUMPI PUSH1 0x40 MLOAD PUSH3 0x461BCD PUSH1 0xE5 SHL DUP2 MSTORE PUSH1 0x20 PUSH1 0x4 DUP3 ADD MSTORE PUSH1 0x14 PUSH1 0x24 DUP3 ADD MSTORE PUSH20 0x496E76616C6964206269707320666F7220544745 PUSH1 0x60 SHL PUSH1 0x44 DUP3 ADD MSTORE PUSH1 0x64 ADD PUSH2 0x49C JUMP JUMPDEST PUSH1 0x0 DUP4 GT DUP1 ISZERO PUSH2 0x1467 JUMPI POP PUSH2 0x2710 DUP4 LT JUMPDEST PUSH2 0x14AC JUMPI PUSH1 0x40 MLOAD PUSH3 0x461BCD PUSH1 0xE5 SHL DUP2 MSTORE PUSH1 0x20 PUSH1 0x4 DUP3 ADD MSTORE PUSH1 0x16 PUSH1 0x24 DUP3 ADD MSTORE PUSH22 0x496E76616C6964206269707320666F72206379636C65 PUSH1 0x50 SHL PUSH1 0x44 DUP3 ADD MSTORE PUSH1 0x64 ADD PUSH2 0x49C JUMP JUMPDEST PUSH2 0x2710 PUSH2 0x14B9 DUP5 DUP8 PUSH2 0x3A7C JUMP JUMPDEST GT ISZERO PUSH2 0x14D7 JUMPI PUSH1 0x40 MLOAD PUSH3 0x461BCD PUSH1 0xE5 SHL DUP2 MSTORE PUSH1 0x4 ADD PUSH2 0x49C SWAP1 PUSH2 0x39E8 JUMP JUMPDEST PUSH2 0x14E8 DUP11 DUP11 DUP11 DUP11 DUP11 DUP11 DUP11 DUP11 DUP11 PUSH2 0x19E5 JUMP JUMPDEST SWAP1 POP PUSH2 0x14F6 DUP10 CALLER ADDRESS DUP11 PUSH2 0x1A31 JUMP JUMPDEST DUP1 PUSH32 0x694AF1CC8727CDD0AFBDD53D9B87B69248BD490224E9DD090E788546506E076F DUP11 DUP13 DUP11 DUP11 PUSH1 0x40 MLOAD PUSH2 0x152C SWAP5 SWAP4 SWAP3 SWAP2 SWAP1 PUSH2 0x383A JUMP JUMPDEST PUSH1 0x40 MLOAD DUP1 SWAP2 SUB SWAP1 LOG2 JUMPDEST SWAP10 SWAP9 POP POP POP POP POP POP POP POP POP JUMP JUMPDEST PUSH1 0x0 PUSH2 0x154D DUP3 PUSH2 0x5B9 JUMP JUMPDEST PUSH2 0x1556 DUP4 PUSH2 0x194F JUMP JUMPDEST PUSH2 0x5DA SWAP2 SWAP1 PUSH2 0x3A7C JUMP JUMPDEST DUP2 PUSH2 0x156A DUP2 PUSH2 0x1BAE JUMP JUMPDEST POP PUSH1 0x0 DUP1 PUSH2 0x1577 DUP6 PUSH2 0x1BAE JUMP JUMPDEST DUP2 SLOAD DUP2 LT PUSH2 0x1595 JUMPI PUSH4 0x4E487B71 PUSH1 0xE0 SHL PUSH1 0x0 MSTORE PUSH1 0x32 PUSH1 0x4 MSTORE PUSH1 0x24 PUSH1 0x0 REVERT JUMPDEST PUSH1 0x0 SWAP2 DUP3 MSTORE PUSH1 0x20 SWAP1 SWAP2 KECCAK256 PUSH1 0x2 PUSH1 0xB SWAP1 SWAP3 MUL ADD SWAP1 DUP2 ADD SLOAD SWAP1 SWAP2 POP PUSH1 0x1 PUSH1 0x1 PUSH1 0xA0 SHL SUB AND CALLER EQ PUSH2 0x15D5 JUMPI PUSH1 0x40 MLOAD PUSH3 0x461BCD PUSH1 0xE5 SHL DUP2 MSTORE PUSH1 0x4 ADD PUSH2 0x49C SWAP1 PUSH2 0x397F JUMP JUMPDEST DUP3 MLOAD PUSH2 0x15EA SWAP1 PUSH1 0xA DUP4 ADD SWAP1 PUSH1 0x20 DUP7 ADD SWAP1 PUSH2 0x321B JUMP JUMPDEST POP PUSH1 0x40 MLOAD DUP5 DUP2 MSTORE PUSH32 0xE4A1120FD509C50AEC65802FD3C3C9A4B72BF746FE9A552396185C6DE928E8AA SWAP1 PUSH1 0x20 ADD PUSH1 0x40 MLOAD DUP1 SWAP2 SUB SWAP1 LOG1 POP POP POP POP JUMP JUMPDEST PUSH1 0x1 PUSH1 0x1 PUSH1 0xA0 SHL SUB DUP2 AND PUSH1 0x0 SWAP1 DUP2 MSTORE PUSH1 0x2 PUSH1 0x20 MSTORE PUSH1 0x40 DUP2 KECCAK256 PUSH1 0x60 SWAP2 SWAP1 PUSH2 0x1649 SWAP1 PUSH2 0x1BA4 JUMP JUMPDEST SWAP1 POP PUSH1 0x0 DUP2 PUSH8 0xFFFFFFFFFFFFFFFF DUP2 GT ISZERO PUSH2 0x1674 JUMPI PUSH4 0x4E487B71 PUSH1 0xE0 SHL PUSH1 0x0 MSTORE PUSH1 0x41 PUSH1 0x4 MSTORE PUSH1 0x24 PUSH1 0x0 REVERT JUMPDEST PUSH1 0x40 MLOAD SWAP1 DUP1 DUP3 MSTORE DUP1 PUSH1 0x20 MUL PUSH1 0x20 ADD DUP3 ADD PUSH1 0x40 MSTORE DUP1 ISZERO PUSH2 0x16AD JUMPI DUP2 PUSH1 0x20 ADD JUMPDEST PUSH2 0x169A PUSH2 0x31AF JUMP JUMPDEST DUP2 MSTORE PUSH1 0x20 ADD SWAP1 PUSH1 0x1 SWAP1 SUB SWAP1 DUP2 PUSH2 0x1692 JUMPI SWAP1 POP JUMPDEST POP SWAP1 POP PUSH1 0x0 JUMPDEST DUP3 DUP2 LT ISZERO PUSH2 0x1043 JUMPI PUSH1 0x1 PUSH1 0x1 PUSH1 0xA0 SHL SUB DUP6 AND PUSH1 0x0 SWAP1 DUP2 MSTORE PUSH1 0x2 PUSH1 0x20 MSTORE PUSH1 0x40 SWAP1 KECCAK256 PUSH2 0x16E1 SWAP1 PUSH2 0x21B SWAP1 DUP4 PUSH2 0x1C4A JUMP JUMPDEST DUP3 DUP3 DUP2 MLOAD DUP2 LT PUSH2 0x1701 JUMPI PUSH4 0x4E487B71 PUSH1 0xE0 SHL PUSH1 0x0 MSTORE PUSH1 0x32 PUSH1 0x4 MSTORE PUSH1 0x24 PUSH1 0x0 REVERT JUMPDEST PUSH1 0x20 MUL PUSH1 0x20 ADD ADD DUP2 SWAP1 MSTORE POP DUP1 DUP1 PUSH2 0x1717 SWAP1 PUSH2 0x3B51 JUMP JUMPDEST SWAP2 POP POP PUSH2 0x16B3 JUMP JUMPDEST PUSH1 0x60 PUSH1 0x1 PUSH1 0x1 PUSH1 0xA0 SHL SUB DUP9 AND PUSH2 0x1747 JUMPI PUSH1 0x40 MLOAD PUSH3 0x461BCD PUSH1 0xE5 SHL DUP2 MSTORE PUSH1 0x4 ADD PUSH2 0x49C SWAP1 PUSH2 0x39C1 JUMP JUMPDEST DUP11 DUP10 EQ PUSH2 0x178A JUMPI PUSH1 0x40 MLOAD PUSH3 0x461BCD PUSH1 0xE5 SHL DUP2 MSTORE PUSH1 0x20 PUSH1 0x4 DUP3 ADD MSTORE PUSH1 0x11 PUSH1 0x24 DUP3 ADD MSTORE PUSH17 0x13195B99DD1A081B5A5CDB585D18DA1959 PUSH1 0x7A SHL PUSH1 0x44 DUP3 ADD MSTORE PUSH1 0x64 ADD PUSH2 0x49C JUMP JUMPDEST TIMESTAMP DUP7 GT PUSH2 0x17D9 JUMPI PUSH1 0x40 MLOAD PUSH3 0x461BCD PUSH1 0xE5 SHL DUP2 MSTORE PUSH1 0x20 PUSH1 0x4 DUP3 ADD DUP2 SWAP1 MSTORE PUSH1 0x24 DUP3 ADD MSTORE PUSH32 0x54474520646174652073686F756C6420626520696E2074686520667574757265 PUSH1 0x44 DUP3 ADD MSTORE PUSH1 0x64 ADD PUSH2 0x49C JUMP JUMPDEST PUSH1 0x0 DUP5 GT PUSH2 0x1819 JUMPI PUSH1 0x40 MLOAD PUSH3 0x461BCD PUSH1 0xE5 SHL DUP2 MSTORE PUSH1 0x20 PUSH1 0x4 DUP3 ADD MSTORE PUSH1 0xD PUSH1 0x24 DUP3 ADD MSTORE PUSH13 0x496E76616C6964206379636C65 PUSH1 0x98 SHL PUSH1 0x44 DUP3 ADD MSTORE PUSH1 0x64 ADD PUSH2 0x49C JUMP JUMPDEST PUSH1 0x0 DUP6 GT DUP1 ISZERO PUSH2 0x182A JUMPI POP PUSH2 0x2710 DUP6 LT JUMPDEST PUSH2 0x186D JUMPI PUSH1 0x40 MLOAD PUSH3 0x461BCD PUSH1 0xE5 SHL DUP2 MSTORE PUSH1 0x20 PUSH1 0x4 DUP3 ADD MSTORE PUSH1 0x14 PUSH1 0x24 DUP3 ADD MSTORE PUSH20 0x496E76616C6964206269707320666F7220544745 PUSH1 0x60 SHL PUSH1 0x44 DUP3 ADD MSTORE PUSH1 0x64 ADD PUSH2 0x49C JUMP JUMPDEST PUSH1 0x0 DUP4 GT DUP1 ISZERO PUSH2 0x187E JUMPI POP PUSH2 0x2710 DUP4 LT JUMPDEST PUSH2 0x18C3 JUMPI PUSH1 0x40 MLOAD PUSH3 0x461BCD PUSH1 0xE5 SHL DUP2 MSTORE PUSH1 0x20 PUSH1 0x4 DUP3 ADD MSTORE PUSH1 0x16 PUSH1 0x24 DUP3 ADD MSTORE PUSH22 0x496E76616C6964206269707320666F72206379636C65 PUSH1 0x50 SHL PUSH1 0x44 DUP3 ADD MSTORE PUSH1 0x64 ADD PUSH2 0x49C JUMP JUMPDEST PUSH2 0x2710 PUSH2 0x18D0 DUP5 DUP8 PUSH2 0x3A7C JUMP JUMPDEST GT ISZERO PUSH2 0x18EE JUMPI PUSH1 0x40 MLOAD PUSH3 0x461BCD PUSH1 0xE5 SHL DUP2 MSTORE PUSH1 0x4 ADD PUSH2 0x49C SWAP1 PUSH2 0x39E8 JUMP JUMPDEST PUSH2 0x191E DUP13 DUP13 DUP13 DUP13 DUP13 DUP13 PUSH1 0x40 MLOAD DUP1 PUSH1 0x80 ADD PUSH1 0x40 MSTORE DUP1 DUP15 DUP2 MSTORE PUSH1 0x20 ADD DUP14 DUP2 MSTORE PUSH1 0x20 ADD DUP13 DUP2 MSTORE PUSH1 0x20 ADD DUP12 DUP2 MSTORE POP DUP10 PUSH2 0x232F JUMP JUMPDEST SWAP13 SWAP12 POP POP POP POP POP POP POP POP POP POP POP POP JUMP JUMPDEST PUSH1 0x1 PUSH1 0x1 PUSH1 0xA0 SHL SUB DUP2 AND PUSH1 0x0 SWAP1 DUP2 MSTORE PUSH1 0x8 PUSH1 0x20 MSTORE PUSH1 0x40 DUP2 KECCAK256 PUSH2 0x5DA SWAP1 PUSH2 0x1BA4 JUMP JUMPDEST PUSH1 0x1 PUSH1 0x1 PUSH1 0xA0 SHL SUB DUP2 AND PUSH1 0x0 SWAP1 DUP2 MSTORE PUSH1 0x2 PUSH1 0x20 MSTORE PUSH1 0x40 DUP2 KECCAK256 PUSH2 0x5DA SWAP1 PUSH2 0x1BA4 JUMP JUMPDEST PUSH2 0x1978 PUSH2 0x31AF JUMP JUMPDEST DUP2 PUSH2 0x1982 DUP5 PUSH2 0x5B9 JUMP JUMPDEST GT PUSH2 0x19BF JUMPI PUSH1 0x40 MLOAD PUSH3 0x461BCD PUSH1 0xE5 SHL DUP2 MSTORE PUSH1 0x20 PUSH1 0x4 DUP3 ADD MSTORE PUSH1 0xD PUSH1 0x24 DUP3 ADD MSTORE PUSH13 0x92DCECC2D8D2C840D2DCC8CAF PUSH1 0x9B SHL PUSH1 0x44 DUP3 ADD MSTORE PUSH1 0x64 ADD PUSH2 0x49C JUMP JUMPDEST PUSH1 0x1 PUSH1 0x1 PUSH1 0xA0 SHL SUB DUP4 AND PUSH1 0x0 SWAP1 DUP2 MSTORE PUSH1 0x1 PUSH1 0x20 MSTORE PUSH1 0x40 SWAP1 KECCAK256 PUSH2 0x8E7 SWAP1 PUSH2 0x21B SWAP1 DUP5 PUSH2 0x1C4A JUMP JUMPDEST PUSH1 0x0 DUP8 ISZERO PUSH2 0x1A13 JUMPI PUSH1 0x0 PUSH2 0x19F8 DUP11 PUSH2 0x25A4 JUMP JUMPDEST SWAP1 POP PUSH2 0x1A0B DUP12 DUP12 DUP4 DUP12 DUP12 DUP12 DUP12 DUP12 DUP12 PUSH2 0x26C7 JUMP JUMPDEST SWAP2 POP POP PUSH2 0x1535 JUMP JUMPDEST PUSH2 0x1A23 DUP11 DUP11 DUP10 DUP10 DUP10 DUP10 DUP10 DUP10 PUSH2 0x27A0 JUMP JUMPDEST SWAP11 SWAP10 POP POP POP POP POP POP POP POP POP POP JUMP JUMPDEST PUSH1 0x40 MLOAD PUSH4 0x70A08231 PUSH1 0xE0 SHL DUP2 MSTORE PUSH1 0x1 PUSH1 0x1 PUSH1 0xA0 SHL SUB DUP4 DUP2 AND PUSH1 0x4 DUP4 ADD MSTORE PUSH1 0x0 SWAP2 SWAP1 DUP7 AND SWAP1 PUSH4 0x70A08231 SWAP1 PUSH1 0x24 ADD PUSH1 0x20 PUSH1 0x40 MLOAD DUP1 DUP4 SUB DUP2 DUP7 DUP1 EXTCODESIZE ISZERO DUP1 ISZERO PUSH2 0x1A76 JUMPI PUSH1 0x0 DUP1 REVERT JUMPDEST POP GAS STATICCALL ISZERO DUP1 ISZERO PUSH2 0x1A8A JUMPI RETURNDATASIZE PUSH1 0x0 DUP1 RETURNDATACOPY RETURNDATASIZE PUSH1 0x0 REVERT JUMPDEST POP POP POP POP PUSH1 0x40 MLOAD RETURNDATASIZE PUSH1 0x1F NOT PUSH1 0x1F DUP3 ADD AND DUP3 ADD DUP1 PUSH1 0x40 MSTORE POP DUP2 ADD SWAP1 PUSH2 0x1AAE SWAP2 SWAP1 PUSH2 0x366F JUMP JUMPDEST SWAP1 POP PUSH2 0x1AC5 PUSH1 0x1 PUSH1 0x1 PUSH1 0xA0 SHL SUB DUP7 AND DUP6 DUP6 DUP6 PUSH2 0x2872 JUMP JUMPDEST PUSH1 0x40 MLOAD PUSH4 0x70A08231 PUSH1 0xE0 SHL DUP2 MSTORE PUSH1 0x1 PUSH1 0x1 PUSH1 0xA0 SHL SUB DUP5 DUP2 AND PUSH1 0x4 DUP4 ADD MSTORE PUSH1 0x0 SWAP2 SWAP1 DUP8 AND SWAP1 PUSH4 0x70A08231 SWAP1 PUSH1 0x24 ADD PUSH1 0x20 PUSH1 0x40 MLOAD DUP1 DUP4 SUB DUP2 DUP7 DUP1 EXTCODESIZE ISZERO DUP1 ISZERO PUSH2 0x1B0A JUMPI PUSH1 0x0 DUP1 REVERT JUMPDEST POP GAS STATICCALL ISZERO DUP1 ISZERO PUSH2 0x1B1E JUMPI RETURNDATASIZE PUSH1 0x0 DUP1 RETURNDATACOPY RETURNDATASIZE PUSH1 0x0 REVERT JUMPDEST POP POP POP POP PUSH1 0x40 MLOAD RETURNDATASIZE PUSH1 0x1F NOT PUSH1 0x1F DUP3 ADD AND DUP3 ADD DUP1 PUSH1 0x40 MSTORE POP DUP2 ADD SWAP1 PUSH2 0x1B42 SWAP2 SWAP1 PUSH2 0x366F JUMP JUMPDEST SWAP1 POP DUP3 PUSH2 0x1B4F DUP4 DUP4 PUSH2 0x3AD3 JUMP JUMPDEST EQ PUSH2 0x1B9C JUMPI PUSH1 0x40 MLOAD PUSH3 0x461BCD PUSH1 0xE5 SHL DUP2 MSTORE PUSH1 0x20 PUSH1 0x4 DUP3 ADD MSTORE PUSH1 0x1F PUSH1 0x24 DUP3 ADD MSTORE PUSH32 0x4E6F7420656E6F75676820746F6B656E20776173207472616E73666572656400 PUSH1 0x44 DUP3 ADD MSTORE PUSH1 0x64 ADD PUSH2 0x49C JUMP JUMPDEST POP POP POP POP POP POP JUMP JUMPDEST PUSH1 0x0 PUSH2 0x5DA DUP3 SLOAD SWAP1 JUMP JUMPDEST PUSH1 0x0 PUSH3 0xF4240 DUP3 LT ISZERO PUSH2 0x1BF5 JUMPI PUSH1 0x40 MLOAD PUSH3 0x461BCD PUSH1 0xE5 SHL DUP2 MSTORE PUSH1 0x20 PUSH1 0x4 DUP3 ADD MSTORE PUSH1 0xF PUSH1 0x24 DUP3 ADD MSTORE PUSH15 0x125B9D985B1A59081B1BD8DAC81A59 PUSH1 0x8A SHL PUSH1 0x44 DUP3 ADD MSTORE PUSH1 0x64 ADD PUSH2 0x49C JUMP JUMPDEST PUSH1 0x0 PUSH2 0x1C04 PUSH3 0xF4240 DUP5 PUSH2 0x3AD3 JUMP JUMPDEST PUSH1 0x0 SLOAD SWAP1 SWAP2 POP DUP2 LT PUSH2 0x5DA JUMPI PUSH1 0x40 MLOAD PUSH3 0x461BCD PUSH1 0xE5 SHL DUP2 MSTORE PUSH1 0x20 PUSH1 0x4 DUP3 ADD MSTORE PUSH1 0xF PUSH1 0x24 DUP3 ADD MSTORE PUSH15 0x125B9D985B1A59081B1BD8DAC81A59 PUSH1 0x8A SHL PUSH1 0x44 DUP3 ADD MSTORE PUSH1 0x64 ADD PUSH2 0x49C JUMP JUMPDEST PUSH1 0x0 PUSH2 0x8E7 DUP4 DUP4 PUSH2 0x28E3 JUMP JUMPDEST PUSH1 0x0 PUSH2 0x8E7 DUP4 DUP4 PUSH2 0x291B JUMP JUMPDEST PUSH1 0x0 PUSH2 0x8E7 DUP4 DUP4 PUSH2 0x2A38 JUMP JUMPDEST PUSH1 0x40 DUP1 MLOAD PUSH2 0x160 DUP2 ADD DUP3 MSTORE DUP3 SLOAD DUP2 MSTORE PUSH1 0x1 DUP4 ADD SLOAD PUSH1 0x1 PUSH1 0x1 PUSH1 0xA0 SHL SUB SWAP1 DUP2 AND PUSH1 0x20 DUP4 ADD MSTORE PUSH1 0x2 DUP5 ADD SLOAD AND SWAP2 DUP2 ADD SWAP2 SWAP1 SWAP2 MSTORE PUSH1 0x3 DUP3 ADD SLOAD PUSH1 0x60 DUP3 ADD MSTORE PUSH1 0x4 DUP3 ADD SLOAD PUSH1 0x80 DUP3 ADD MSTORE PUSH1 0x5 DUP3 ADD SLOAD PUSH1 0xA0 DUP3 ADD MSTORE PUSH1 0x6 DUP3 ADD SLOAD PUSH1 0xC0 DUP3 ADD MSTORE PUSH1 0x7 DUP3 ADD SLOAD PUSH1 0xE0 DUP3 ADD MSTORE PUSH1 0x8 DUP3 ADD SLOAD PUSH2 0x100 DUP3 ADD MSTORE PUSH1 0x9 DUP3 ADD SLOAD PUSH2 0x120 DUP3 ADD MSTORE PUSH1 0xA DUP3 ADD DUP1 SLOAD PUSH1 0x0 SWAP3 PUSH2 0x1D8E SWAP3 SWAP1 SWAP2 DUP6 SWAP2 PUSH2 0x140 DUP5 ADD SWAP2 PUSH2 0x1D07 SWAP1 PUSH2 0x3B16 JUMP JUMPDEST DUP1 PUSH1 0x1F ADD PUSH1 0x20 DUP1 SWAP2 DIV MUL PUSH1 0x20 ADD PUSH1 0x40 MLOAD SWAP1 DUP2 ADD PUSH1 0x40 MSTORE DUP1 SWAP3 SWAP2 SWAP1 DUP2 DUP2 MSTORE PUSH1 0x20 ADD DUP3 DUP1 SLOAD PUSH2 0x1D33 SWAP1 PUSH2 0x3B16 JUMP JUMPDEST DUP1 ISZERO PUSH2 0x1D80 JUMPI DUP1 PUSH1 0x1F LT PUSH2 0x1D55 JUMPI PUSH2 0x100 DUP1 DUP4 SLOAD DIV MUL DUP4 MSTORE SWAP2 PUSH1 0x20 ADD SWAP2 PUSH2 0x1D80 JUMP JUMPDEST DUP3 ADD SWAP2 SWAP1 PUSH1 0x0 MSTORE PUSH1 0x20 PUSH1 0x0 KECCAK256 SWAP1 JUMPDEST DUP2 SLOAD DUP2 MSTORE SWAP1 PUSH1 0x1 ADD SWAP1 PUSH1 0x20 ADD DUP1 DUP4 GT PUSH2 0x1D63 JUMPI DUP3 SWAP1 SUB PUSH1 0x1F AND DUP3 ADD SWAP2 JUMPDEST POP POP POP POP POP DUP2 MSTORE POP POP PUSH2 0x221D JUMP JUMPDEST SWAP1 POP PUSH1 0x0 DUP2 DUP4 PUSH1 0x9 ADD SLOAD PUSH2 0x1DA2 SWAP2 SWAP1 PUSH2 0x3A7C JUMP JUMPDEST SWAP1 POP PUSH1 0x0 DUP3 GT DUP1 ISZERO PUSH2 0x1DB8 JUMPI POP DUP3 PUSH1 0x3 ADD SLOAD DUP2 GT ISZERO JUMPDEST PUSH2 0x1DF8 JUMPI PUSH1 0x40 MLOAD PUSH3 0x461BCD PUSH1 0xE5 SHL DUP2 MSTORE PUSH1 0x20 PUSH1 0x4 DUP3 ADD MSTORE PUSH1 0x11 PUSH1 0x24 DUP3 ADD MSTORE PUSH17 0x4E6F7468696E6720746F20756E6C6F636B PUSH1 0x78 SHL PUSH1 0x44 DUP3 ADD MSTORE PUSH1 0x64 ADD PUSH2 0x49C JUMP JUMPDEST PUSH1 0x1 DUP1 DUP5 ADD SLOAD PUSH1 0x1 PUSH1 0x1 PUSH1 0xA0 SHL SUB SWAP1 DUP2 AND PUSH1 0x0 SWAP1 DUP2 MSTORE PUSH1 0x7 PUSH1 0x20 MSTORE PUSH1 0x40 SWAP1 KECCAK256 SWAP2 DUP3 ADD SLOAD PUSH1 0x3 DUP7 ADD SLOAD SWAP2 AND ISZERO ISZERO SWAP1 DUP4 EQ ISZERO PUSH2 0x1EE6 JUMPI DUP1 ISZERO PUSH2 0x1E52 JUMPI DUP5 SLOAD CALLER PUSH1 0x0 SWAP1 DUP2 MSTORE PUSH1 0x1 PUSH1 0x20 MSTORE PUSH1 0x40 SWAP1 KECCAK256 PUSH2 0x1E4C SWAP2 PUSH2 0x1C56 JUMP JUMPDEST POP PUSH2 0x1E6E JUMP JUMPDEST DUP5 SLOAD CALLER PUSH1 0x0 SWAP1 DUP2 MSTORE PUSH1 0x2 PUSH1 0x20 MSTORE PUSH1 0x40 SWAP1 KECCAK256 PUSH2 0x1E6C SWAP2 PUSH2 0x1C56 JUMP JUMPDEST POP JUMPDEST DUP5 SLOAD PUSH1 0x1 DUP7 ADD SLOAD PUSH1 0x1 PUSH1 0x1 PUSH1 0xA0 SHL SUB AND PUSH1 0x0 SWAP1 DUP2 MSTORE PUSH1 0x8 PUSH1 0x20 MSTORE PUSH1 0x40 SWAP1 KECCAK256 PUSH2 0x1E95 SWAP2 PUSH2 0x1C56 JUMP JUMPDEST POP DUP5 SLOAD PUSH1 0x1 DUP7 ADD SLOAD PUSH1 0x40 MLOAD PUSH32 0xC6532367992B32E42A62DD89FC3574876D97D081A263AA6E030F34B79B7E6E8B SWAP2 PUSH2 0x1EDD SWAP2 PUSH1 0x1 PUSH1 0x1 PUSH1 0xA0 SHL SUB SWAP1 SWAP2 AND SWAP1 CALLER SWAP1 DUP9 SWAP1 TIMESTAMP SWAP1 PUSH2 0x383A JUMP JUMPDEST PUSH1 0x40 MLOAD DUP1 SWAP2 SUB SWAP1 LOG2 JUMPDEST DUP4 DUP3 PUSH1 0x2 ADD SLOAD GT PUSH2 0x1EFD JUMPI PUSH1 0x0 PUSH1 0x2 DUP4 ADD SSTORE PUSH2 0x1F13 JUMP JUMPDEST DUP4 DUP3 PUSH1 0x2 ADD SLOAD PUSH2 0x1F0D SWAP2 SWAP1 PUSH2 0x3AD3 JUMP JUMPDEST PUSH1 0x2 DUP4 ADD SSTORE JUMPDEST PUSH1 0x2 DUP3 ADD SLOAD PUSH2 0x1F5E JUMPI DUP1 ISZERO PUSH2 0x1F42 JUMPI PUSH1 0x1 DUP6 ADD SLOAD PUSH2 0x1F3C SWAP1 PUSH1 0x3 SWAP1 PUSH1 0x1 PUSH1 0x1 PUSH1 0xA0 SHL SUB AND PUSH2 0x2A87 JUMP JUMPDEST POP PUSH2 0x1F5E JUMP JUMPDEST PUSH1 0x1 DUP6 ADD SLOAD PUSH2 0x1F5C SWAP1 PUSH1 0x5 SWAP1 PUSH1 0x1 PUSH1 0x1 PUSH1 0xA0 SHL SUB AND PUSH2 0x2A87 JUMP JUMPDEST POP JUMPDEST PUSH1 0x9 DUP6 ADD DUP4 SWAP1 SSTORE PUSH1 0x2 DUP6 ADD SLOAD PUSH1 0x1 DUP7 ADD SLOAD PUSH2 0x1F86 SWAP2 PUSH1 0x1 PUSH1 0x1 PUSH1 0xA0 SHL SUB SWAP2 DUP3 AND SWAP2 AND DUP7 PUSH2 0x2A9C JUMP JUMPDEST DUP5 SLOAD PUSH1 0x1 DUP7 ADD SLOAD PUSH1 0x9 DUP8 ADD SLOAD PUSH1 0x3 DUP9 ADD SLOAD PUSH32 0xF93385FFDF40B698B13993C059834B8E91D0CA8E7ABF827A34001CA03C03F6FF SWAP3 PUSH1 0x1 PUSH1 0x1 PUSH1 0xA0 SHL SUB AND SWAP2 CALLER SWAP2 DUP10 SWAP2 PUSH2 0x1FD0 SWAP2 PUSH2 0x3AD3 JUMP JUMPDEST PUSH1 0x40 DUP1 MLOAD PUSH1 0x1 PUSH1 0x1 PUSH1 0xA0 SHL SUB SWAP6 DUP7 AND DUP2 MSTORE SWAP5 SWAP1 SWAP4 AND PUSH1 0x20 DUP6 ADD MSTORE SWAP2 DUP4 ADD MSTORE PUSH1 0x60 DUP3 ADD MSTORE TIMESTAMP PUSH1 0x80 DUP3 ADD MSTORE PUSH1 0xA0 ADD PUSH2 0x12E0 JUMP JUMPDEST DUP1 PUSH1 0x5 ADD SLOAD TIMESTAMP LT ISZERO PUSH2 0x2055 JUMPI PUSH1 0x40 MLOAD PUSH3 0x461BCD PUSH1 0xE5 SHL DUP2 MSTORE PUSH1 0x20 PUSH1 0x4 DUP3 ADD MSTORE PUSH1 0x18 PUSH1 0x24 DUP3 ADD MSTORE PUSH32 0x4974206973206E6F742074696D6520746F20756E6C6F636B0000000000000000 PUSH1 0x44 DUP3 ADD MSTORE PUSH1 0x64 ADD PUSH2 0x49C JUMP JUMPDEST PUSH1 0x9 DUP2 ADD SLOAD ISZERO PUSH2 0x209B JUMPI PUSH1 0x40 MLOAD PUSH3 0x461BCD PUSH1 0xE5 SHL DUP2 MSTORE PUSH1 0x20 PUSH1 0x4 DUP3 ADD MSTORE PUSH1 0x11 PUSH1 0x24 DUP3 ADD MSTORE PUSH17 0x4E6F7468696E6720746F20756E6C6F636B PUSH1 0x78 SHL PUSH1 0x44 DUP3 ADD MSTORE PUSH1 0x64 ADD PUSH2 0x49C JUMP JUMPDEST PUSH1 0x1 DUP1 DUP3 ADD SLOAD PUSH1 0x1 PUSH1 0x1 PUSH1 0xA0 SHL SUB SWAP1 DUP2 AND PUSH1 0x0 SWAP1 DUP2 MSTORE PUSH1 0x7 PUSH1 0x20 MSTORE PUSH1 0x40 SWAP1 KECCAK256 SWAP2 DUP3 ADD SLOAD AND ISZERO DUP1 ISZERO SWAP1 PUSH2 0x20E7 JUMPI DUP3 SLOAD CALLER PUSH1 0x0 SWAP1 DUP2 MSTORE PUSH1 0x1 PUSH1 0x20 MSTORE PUSH1 0x40 SWAP1 KECCAK256 PUSH2 0x20E1 SWAP2 PUSH2 0x1C56 JUMP JUMPDEST POP PUSH2 0x2103 JUMP JUMPDEST DUP3 SLOAD CALLER PUSH1 0x0 SWAP1 DUP2 MSTORE PUSH1 0x2 PUSH1 0x20 MSTORE PUSH1 0x40 SWAP1 KECCAK256 PUSH2 0x2101 SWAP2 PUSH2 0x1C56 JUMP JUMPDEST POP JUMPDEST PUSH1 0x3 DUP4 ADD SLOAD PUSH1 0x2 DUP4 ADD SLOAD DUP2 LT PUSH2 0x211F JUMPI PUSH1 0x0 PUSH1 0x2 DUP5 ADD SSTORE PUSH2 0x2135 JUMP JUMPDEST DUP1 DUP4 PUSH1 0x2 ADD SLOAD PUSH2 0x212F SWAP2 SWAP1 PUSH2 0x3AD3 JUMP JUMPDEST PUSH1 0x2 DUP5 ADD SSTORE JUMPDEST PUSH1 0x2 DUP4 ADD SLOAD PUSH2 0x2180 JUMPI DUP2 ISZERO PUSH2 0x2164 JUMPI PUSH1 0x1 DUP5 ADD SLOAD PUSH2 0x215E SWAP1 PUSH1 0x3 SWAP1 PUSH1 0x1 PUSH1 0x1 PUSH1 0xA0 SHL SUB AND PUSH2 0x2A87 JUMP JUMPDEST POP PUSH2 0x2180 JUMP JUMPDEST PUSH1 0x1 DUP5 ADD SLOAD PUSH2 0x217E SWAP1 PUSH1 0x5 SWAP1 PUSH1 0x1 PUSH1 0x1 PUSH1 0xA0 SHL SUB AND PUSH2 0x2A87 JUMP JUMPDEST POP JUMPDEST PUSH1 0x9 DUP5 ADD DUP2 SWAP1 SSTORE DUP4 SLOAD PUSH1 0x1 DUP6 ADD SLOAD PUSH1 0x1 PUSH1 0x1 PUSH1 0xA0 SHL SUB AND PUSH1 0x0 SWAP1 DUP2 MSTORE PUSH1 0x8 PUSH1 0x20 MSTORE PUSH1 0x40 SWAP1 KECCAK256 PUSH2 0x21AE SWAP2 PUSH2 0x1C56 JUMP JUMPDEST POP PUSH1 0x1 DUP5 ADD SLOAD PUSH2 0x21C8 SWAP1 PUSH1 0x1 PUSH1 0x1 PUSH1 0xA0 SHL SUB AND CALLER DUP4 PUSH2 0x2A9C JUMP JUMPDEST DUP4 SLOAD PUSH1 0x1 DUP6 ADD SLOAD PUSH1 0x40 MLOAD PUSH32 0xC6532367992B32E42A62DD89FC3574876D97D081A263AA6E030F34B79B7E6E8B SWAP2 PUSH2 0x220F SWAP2 PUSH1 0x1 PUSH1 0x1 PUSH1 0xA0 SHL SUB SWAP1 SWAP2 AND SWAP1 CALLER SWAP1 DUP7 SWAP1 TIMESTAMP SWAP1 PUSH2 0x383A JUMP JUMPDEST PUSH1 0x40 MLOAD DUP1 SWAP2 SUB SWAP1 LOG2 POP POP POP POP JUMP JUMPDEST PUSH1 0x0 DUP2 PUSH1 0x60 ADD MLOAD PUSH1 0x0 EQ ISZERO PUSH2 0x2234 JUMPI POP PUSH1 0x0 SWAP2 SWAP1 POP JUMP JUMPDEST DUP2 PUSH1 0x60 ADD MLOAD DUP3 PUSH2 0x120 ADD MLOAD LT PUSH2 0x224C JUMPI POP PUSH1 0x0 SWAP2 SWAP1 POP JUMP JUMPDEST DUP2 PUSH1 0xA0 ADD MLOAD TIMESTAMP LT ISZERO PUSH2 0x2260 JUMPI POP PUSH1 0x0 SWAP2 SWAP1 POP JUMP JUMPDEST PUSH1 0xE0 DUP3 ADD MLOAD PUSH2 0x2271 JUMPI POP PUSH1 0x0 SWAP2 SWAP1 POP JUMP JUMPDEST PUSH1 0x0 PUSH2 0x2288 DUP4 PUSH1 0x60 ADD MLOAD DUP5 PUSH1 0xC0 ADD MLOAD PUSH2 0x2710 PUSH2 0x2ACC JUMP JUMPDEST SWAP1 POP PUSH1 0x0 PUSH2 0x22A2 DUP5 PUSH1 0x60 ADD MLOAD DUP6 PUSH2 0x100 ADD MLOAD PUSH2 0x2710 PUSH2 0x2ACC JUMP JUMPDEST SWAP1 POP PUSH1 0x0 DUP5 PUSH1 0xA0 ADD MLOAD TIMESTAMP LT PUSH2 0x22E9 JUMPI DUP3 DUP3 DUP7 PUSH1 0xE0 ADD MLOAD DUP8 PUSH1 0xA0 ADD MLOAD TIMESTAMP PUSH2 0x22C8 SWAP2 SWAP1 PUSH2 0x3AD3 JUMP JUMPDEST PUSH2 0x22D2 SWAP2 SWAP1 PUSH2 0x3A94 JUMP JUMPDEST PUSH2 0x22DC SWAP2 SWAP1 PUSH2 0x3AB4 JUMP JUMPDEST PUSH2 0x22E6 SWAP2 SWAP1 PUSH2 0x3A7C JUMP JUMPDEST SWAP1 POP JUMPDEST PUSH1 0x0 DUP6 PUSH1 0x60 ADD MLOAD DUP3 GT ISZERO PUSH2 0x2313 JUMPI DUP6 PUSH2 0x120 ADD MLOAD DUP7 PUSH1 0x60 ADD MLOAD PUSH2 0x230C SWAP2 SWAP1 PUSH2 0x3AD3 JUMP JUMPDEST SWAP1 POP PUSH2 0x2326 JUMP JUMPDEST PUSH2 0x120 DUP7 ADD MLOAD PUSH2 0x2323 SWAP1 DUP4 PUSH2 0x3AD3 JUMP JUMPDEST SWAP1 POP JUMPDEST SWAP6 SWAP5 POP POP POP POP POP JUMP JUMPDEST PUSH1 0x60 PUSH1 0x1 PUSH1 0x1 PUSH1 0xA0 SHL SUB DUP6 AND PUSH2 0x2357 JUMPI PUSH1 0x40 MLOAD PUSH3 0x461BCD PUSH1 0xE5 SHL DUP2 MSTORE PUSH1 0x4 ADD PUSH2 0x49C SWAP1 PUSH2 0x39C1 JUMP JUMPDEST PUSH1 0x0 PUSH2 0x2363 DUP9 DUP9 PUSH2 0x2B7B JUMP JUMPDEST SWAP1 POP DUP9 PUSH1 0x0 DUP2 PUSH8 0xFFFFFFFFFFFFFFFF DUP2 GT ISZERO PUSH2 0x238F JUMPI PUSH4 0x4E487B71 PUSH1 0xE0 SHL PUSH1 0x0 MSTORE PUSH1 0x41 PUSH1 0x4 MSTORE PUSH1 0x24 PUSH1 0x0 REVERT JUMPDEST PUSH1 0x40 MLOAD SWAP1 DUP1 DUP3 MSTORE DUP1 PUSH1 0x20 MUL PUSH1 0x20 ADD DUP3 ADD PUSH1 0x40 MSTORE DUP1 ISZERO PUSH2 0x23B8 JUMPI DUP2 PUSH1 0x20 ADD PUSH1 0x20 DUP3 MUL DUP1 CALLDATASIZE DUP4 CALLDATACOPY ADD SWAP1 POP JUMPDEST POP SWAP1 POP PUSH1 0x0 JUMPDEST DUP3 DUP2 LT ISZERO PUSH2 0x2588 JUMPI PUSH2 0x2466 DUP14 DUP14 DUP4 DUP2 DUP2 LT PUSH2 0x23E9 JUMPI PUSH4 0x4E487B71 PUSH1 0xE0 SHL PUSH1 0x0 MSTORE PUSH1 0x32 PUSH1 0x4 MSTORE PUSH1 0x24 PUSH1 0x0 REVERT JUMPDEST SWAP1 POP PUSH1 0x20 MUL ADD PUSH1 0x20 DUP2 ADD SWAP1 PUSH2 0x23FE SWAP2 SWAP1 PUSH2 0x33A0 JUMP JUMPDEST DUP11 DUP11 DUP15 DUP15 DUP7 DUP2 DUP2 LT PUSH2 0x2420 JUMPI PUSH4 0x4E487B71 PUSH1 0xE0 SHL PUSH1 0x0 MSTORE PUSH1 0x32 PUSH1 0x4 MSTORE PUSH1 0x24 PUSH1 0x0 REVERT JUMPDEST SWAP1 POP PUSH1 0x20 MUL ADD CALLDATALOAD DUP12 PUSH1 0x0 PUSH1 0x4 DUP2 LT PUSH2 0x2448 JUMPI PUSH4 0x4E487B71 PUSH1 0xE0 SHL PUSH1 0x0 MSTORE PUSH1 0x32 PUSH1 0x4 MSTORE PUSH1 0x24 PUSH1 0x0 REVERT JUMPDEST PUSH1 0x20 SWAP1 DUP2 MUL SWAP2 SWAP1 SWAP2 ADD MLOAD SWAP1 DUP14 ADD MLOAD PUSH1 0x40 DUP15 ADD MLOAD PUSH1 0x60 DUP16 ADD MLOAD DUP15 PUSH2 0x19E5 JUMP JUMPDEST DUP3 DUP3 DUP2 MLOAD DUP2 LT PUSH2 0x2486 JUMPI PUSH4 0x4E487B71 PUSH1 0xE0 SHL PUSH1 0x0 MSTORE PUSH1 0x32 PUSH1 0x4 MSTORE PUSH1 0x24 PUSH1 0x0 REVERT JUMPDEST PUSH1 0x20 MUL PUSH1 0x20 ADD ADD DUP2 DUP2 MSTORE POP POP DUP2 DUP2 DUP2 MLOAD DUP2 LT PUSH2 0x24B2 JUMPI PUSH4 0x4E487B71 PUSH1 0xE0 SHL PUSH1 0x0 MSTORE PUSH1 0x32 PUSH1 0x4 MSTORE PUSH1 0x24 PUSH1 0x0 REVERT JUMPDEST PUSH1 0x20 MUL PUSH1 0x20 ADD ADD MLOAD PUSH32 0x694AF1CC8727CDD0AFBDD53D9B87B69248BD490224E9DD090E788546506E076F DUP11 DUP16 DUP16 DUP6 DUP2 DUP2 LT PUSH2 0x24FC JUMPI PUSH4 0x4E487B71 PUSH1 0xE0 SHL PUSH1 0x0 MSTORE PUSH1 0x32 PUSH1 0x4 MSTORE PUSH1 0x24 PUSH1 0x0 REVERT JUMPDEST SWAP1 POP PUSH1 0x20 MUL ADD PUSH1 0x20 DUP2 ADD SWAP1 PUSH2 0x2511 SWAP2 SWAP1 PUSH2 0x33A0 JUMP JUMPDEST DUP15 DUP15 DUP7 DUP2 DUP2 LT PUSH2 0x2531 JUMPI PUSH4 0x4E487B71 PUSH1 0xE0 SHL PUSH1 0x0 MSTORE PUSH1 0x32 PUSH1 0x4 MSTORE PUSH1 0x24 PUSH1 0x0 REVERT JUMPDEST SWAP1 POP PUSH1 0x20 MUL ADD CALLDATALOAD DUP12 PUSH1 0x0 PUSH1 0x4 DUP2 LT PUSH2 0x2559 JUMPI PUSH4 0x4E487B71 PUSH1 0xE0 SHL PUSH1 0x0 MSTORE PUSH1 0x32 PUSH1 0x4 MSTORE PUSH1 0x24 PUSH1 0x0 REVERT JUMPDEST PUSH1 0x20 MUL ADD MLOAD PUSH1 0x40 MLOAD PUSH2 0x256E SWAP5 SWAP4 SWAP3 SWAP2 SWAP1 PUSH2 0x383A JUMP JUMPDEST PUSH1 0x40 MLOAD DUP1 SWAP2 SUB SWAP1 LOG2 DUP1 PUSH2 0x2580 DUP2 PUSH2 0x3B51 JUMP JUMPDEST SWAP2 POP POP PUSH2 0x23BE JUMP JUMPDEST POP PUSH2 0x2595 DUP9 CALLER ADDRESS DUP7 PUSH2 0x1A31 JUMP JUMPDEST SWAP12 SWAP11 POP POP POP POP POP POP POP POP POP POP POP JUMP JUMPDEST PUSH1 0x0 DUP1 DUP3 PUSH1 0x1 PUSH1 0x1 PUSH1 0xA0 SHL SUB AND PUSH4 0xC45A0155 PUSH1 0x40 MLOAD DUP2 PUSH4 0xFFFFFFFF AND PUSH1 0xE0 SHL DUP2 MSTORE PUSH1 0x4 ADD PUSH1 0x20 PUSH1 0x40 MLOAD DUP1 DUP4 SUB DUP2 DUP7 DUP1 EXTCODESIZE ISZERO DUP1 ISZERO PUSH2 0x25E0 JUMPI PUSH1 0x0 DUP1 REVERT JUMPDEST POP GAS STATICCALL SWAP3 POP POP POP DUP1 ISZERO PUSH2 0x2610 JUMPI POP PUSH1 0x40 DUP1 MLOAD PUSH1 0x1F RETURNDATASIZE SWAP1 DUP2 ADD PUSH1 0x1F NOT AND DUP3 ADD SWAP1 SWAP3 MSTORE PUSH2 0x260D SWAP2 DUP2 ADD SWAP1 PUSH2 0x33BC JUMP JUMPDEST PUSH1 0x1 JUMPDEST PUSH2 0x265C JUMPI PUSH1 0x40 MLOAD PUSH3 0x461BCD PUSH1 0xE5 SHL DUP2 MSTORE PUSH1 0x20 PUSH1 0x4 DUP3 ADD MSTORE PUSH1 0x1C PUSH1 0x24 DUP3 ADD MSTORE PUSH32 0x5468697320746F6B656E206973206E6F742061204C5020746F6B656E00000000 PUSH1 0x44 DUP3 ADD MSTORE PUSH1 0x64 ADD PUSH2 0x49C JUMP JUMPDEST SWAP1 POP PUSH1 0x1 PUSH1 0x1 PUSH1 0xA0 SHL SUB DUP2 AND ISZERO DUP1 ISZERO SWAP1 PUSH2 0x267B JUMPI POP PUSH2 0x267B DUP4 DUP3 PUSH2 0x2C3B JUMP JUMPDEST PUSH2 0x5DA JUMPI PUSH1 0x40 MLOAD PUSH3 0x461BCD PUSH1 0xE5 SHL DUP2 MSTORE PUSH1 0x20 PUSH1 0x4 DUP3 ADD MSTORE PUSH1 0x1D PUSH1 0x24 DUP3 ADD MSTORE PUSH32 0x5468697320746F6B656E206973206E6F742061204C5020746F6B656E2E000000 PUSH1 0x44 DUP3 ADD MSTORE PUSH1 0x64 ADD PUSH2 0x49C JUMP JUMPDEST PUSH1 0x0 PUSH2 0x26D9 DUP11 DUP11 DUP10 DUP10 DUP10 DUP10 DUP10 DUP10 PUSH2 0x2DCB JUMP JUMPDEST PUSH1 0x1 PUSH1 0x1 PUSH1 0xA0 SHL SUB DUP12 AND PUSH1 0x0 SWAP1 DUP2 MSTORE PUSH1 0x1 PUSH1 0x20 MSTORE PUSH1 0x40 SWAP1 KECCAK256 SWAP1 SWAP2 POP PUSH2 0x26FE SWAP1 DUP3 PUSH2 0x1C62 JUMP JUMPDEST POP PUSH2 0x270A PUSH1 0x3 DUP11 PUSH2 0x2F47 JUMP JUMPDEST POP PUSH1 0x1 PUSH1 0x1 PUSH1 0xA0 SHL SUB DUP1 DUP11 AND PUSH1 0x0 SWAP1 DUP2 MSTORE PUSH1 0x7 PUSH1 0x20 MSTORE PUSH1 0x40 SWAP1 KECCAK256 DUP1 SLOAD SWAP1 SWAP2 AND PUSH2 0x275A JUMPI DUP1 SLOAD PUSH1 0x1 PUSH1 0x1 PUSH1 0xA0 SHL SUB DUP1 DUP13 AND PUSH1 0x1 PUSH1 0x1 PUSH1 0xA0 SHL SUB NOT SWAP3 DUP4 AND OR DUP4 SSTORE PUSH1 0x1 DUP4 ADD DUP1 SLOAD SWAP2 DUP13 AND SWAP2 SWAP1 SWAP3 AND OR SWAP1 SSTORE JUMPDEST DUP8 DUP2 PUSH1 0x2 ADD SLOAD PUSH2 0x276A SWAP2 SWAP1 PUSH2 0x3A7C JUMP JUMPDEST PUSH1 0x2 DUP3 ADD SSTORE PUSH1 0x1 PUSH1 0x1 PUSH1 0xA0 SHL SUB DUP11 AND PUSH1 0x0 SWAP1 DUP2 MSTORE PUSH1 0x8 PUSH1 0x20 MSTORE PUSH1 0x40 SWAP1 KECCAK256 PUSH2 0x2791 SWAP1 DUP4 PUSH2 0x1C62 JUMP JUMPDEST POP POP SWAP10 SWAP9 POP POP POP POP POP POP POP POP POP JUMP JUMPDEST PUSH1 0x0 PUSH2 0x27B2 DUP10 DUP10 DUP10 DUP10 DUP10 DUP10 DUP10 DUP10 PUSH2 0x2DCB JUMP JUMPDEST PUSH1 0x1 PUSH1 0x1 PUSH1 0xA0 SHL SUB DUP11 AND PUSH1 0x0 SWAP1 DUP2 MSTORE PUSH1 0x2 PUSH1 0x20 MSTORE PUSH1 0x40 SWAP1 KECCAK256 SWAP1 SWAP2 POP PUSH2 0x27D7 SWAP1 DUP3 PUSH2 0x1C62 JUMP JUMPDEST POP PUSH2 0x27E3 PUSH1 0x5 DUP10 PUSH2 0x2F47 JUMP JUMPDEST POP PUSH1 0x1 PUSH1 0x1 PUSH1 0xA0 SHL SUB DUP1 DUP10 AND PUSH1 0x0 SWAP1 DUP2 MSTORE PUSH1 0x7 PUSH1 0x20 MSTORE PUSH1 0x40 SWAP1 KECCAK256 DUP1 SLOAD SWAP1 SWAP2 AND PUSH2 0x282D JUMPI DUP1 SLOAD PUSH1 0x1 PUSH1 0x1 PUSH1 0xA0 SHL SUB DUP11 AND PUSH1 0x1 PUSH1 0x1 PUSH1 0xA0 SHL SUB NOT SWAP2 DUP3 AND OR DUP3 SSTORE PUSH1 0x1 DUP3 ADD DUP1 SLOAD SWAP1 SWAP2 AND SWAP1 SSTORE JUMPDEST DUP8 DUP2 PUSH1 0x2 ADD SLOAD PUSH2 0x283D SWAP2 SWAP1 PUSH2 0x3A7C JUMP JUMPDEST PUSH1 0x2 DUP3 ADD SSTORE PUSH1 0x1 PUSH1 0x1 PUSH1 0xA0 SHL SUB DUP10 AND PUSH1 0x0 SWAP1 DUP2 MSTORE PUSH1 0x8 PUSH1 0x20 MSTORE PUSH1 0x40 SWAP1 KECCAK256 PUSH2 0x2864 SWAP1 DUP4 PUSH2 0x1C62 JUMP JUMPDEST POP POP SWAP9 SWAP8 POP POP POP POP POP POP POP POP JUMP JUMPDEST PUSH1 0x40 MLOAD PUSH1 0x1 PUSH1 0x1 PUSH1 0xA0 SHL SUB DUP1 DUP6 AND PUSH1 0x24 DUP4 ADD MSTORE DUP4 AND PUSH1 0x44 DUP3 ADD MSTORE PUSH1 0x64 DUP2 ADD DUP3 SWAP1 MSTORE PUSH2 0x28DD SWAP1 DUP6 SWAP1 PUSH4 0x23B872DD PUSH1 0xE0 SHL SWAP1 PUSH1 0x84 ADD JUMPDEST PUSH1 0x40 DUP1 MLOAD PUSH1 0x1F NOT DUP2 DUP5 SUB ADD DUP2 MSTORE SWAP2 SWAP1 MSTORE PUSH1 0x20 DUP2 ADD DUP1 MLOAD PUSH1 0x1 PUSH1 0x1 PUSH1 0xE0 SHL SUB AND PUSH1 0x1 PUSH1 0x1 PUSH1 0xE0 SHL SUB NOT SWAP1 SWAP4 AND SWAP3 SWAP1 SWAP3 OR SWAP1 SWAP2 MSTORE PUSH2 0x2F5C JUMP JUMPDEST POP POP POP POP JUMP JUMPDEST PUSH1 0x0 DUP3 PUSH1 0x0 ADD DUP3 DUP2 SLOAD DUP2 LT PUSH2 0x2908 JUMPI PUSH4 0x4E487B71 PUSH1 0xE0 SHL PUSH1 0x0 MSTORE PUSH1 0x32 PUSH1 0x4 MSTORE PUSH1 0x24 PUSH1 0x0 REVERT JUMPDEST SWAP1 PUSH1 0x0 MSTORE PUSH1 0x20 PUSH1 0x0 KECCAK256 ADD SLOAD SWAP1 POP SWAP3 SWAP2 POP POP JUMP JUMPDEST PUSH1 0x0 DUP2 DUP2 MSTORE PUSH1 0x1 DUP4 ADD PUSH1 0x20 MSTORE PUSH1 0x40 DUP2 KECCAK256 SLOAD DUP1 ISZERO PUSH2 0x2A2E JUMPI PUSH1 0x0 PUSH2 0x293F PUSH1 0x1 DUP4 PUSH2 0x3AD3 JUMP JUMPDEST DUP6 SLOAD SWAP1 SWAP2 POP PUSH1 0x0 SWAP1 PUSH2 0x2953 SWAP1 PUSH1 0x1 SWAP1 PUSH2 0x3AD3 JUMP JUMPDEST SWAP1 POP DUP2 DUP2 EQ PUSH2 0x29D4 JUMPI PUSH1 0x0 DUP7 PUSH1 0x0 ADD DUP3 DUP2 SLOAD DUP2 LT PUSH2 0x2981 JUMPI PUSH4 0x4E487B71 PUSH1 0xE0 SHL PUSH1 0x0 MSTORE PUSH1 0x32 PUSH1 0x4 MSTORE PUSH1 0x24 PUSH1 0x0 REVERT JUMPDEST SWAP1 PUSH1 0x0 MSTORE PUSH1 0x20 PUSH1 0x0 KECCAK256 ADD SLOAD SWAP1 POP DUP1 DUP8 PUSH1 0x0 ADD DUP5 DUP2 SLOAD DUP2 LT PUSH2 0x29B2 JUMPI PUSH4 0x4E487B71 PUSH1 0xE0 SHL PUSH1 0x0 MSTORE PUSH1 0x32 PUSH1 0x4 MSTORE PUSH1 0x24 PUSH1 0x0 REVERT JUMPDEST PUSH1 0x0 SWAP2 DUP3 MSTORE PUSH1 0x20 DUP1 DUP4 KECCAK256 SWAP1 SWAP2 ADD SWAP3 SWAP1 SWAP3 SSTORE SWAP2 DUP3 MSTORE PUSH1 0x1 DUP9 ADD SWAP1 MSTORE PUSH1 0x40 SWAP1 KECCAK256 DUP4 SWAP1 SSTORE JUMPDEST DUP6 SLOAD DUP7 SWAP1 DUP1 PUSH2 0x29F3 JUMPI PUSH4 0x4E487B71 PUSH1 0xE0 SHL PUSH1 0x0 MSTORE PUSH1 0x31 PUSH1 0x4 MSTORE PUSH1 0x24 PUSH1 0x0 REVERT JUMPDEST PUSH1 0x1 SWAP1 SUB DUP2 DUP2 SWAP1 PUSH1 0x0 MSTORE PUSH1 0x20 PUSH1 0x0 KECCAK256 ADD PUSH1 0x0 SWAP1 SSTORE SWAP1 SSTORE DUP6 PUSH1 0x1 ADD PUSH1 0x0 DUP7 DUP2 MSTORE PUSH1 0x20 ADD SWAP1 DUP2 MSTORE PUSH1 0x20 ADD PUSH1 0x0 KECCAK256 PUSH1 0x0 SWAP1 SSTORE PUSH1 0x1 SWAP4 POP POP POP POP PUSH2 0x5DA JUMP JUMPDEST PUSH1 0x0 SWAP2 POP POP PUSH2 0x5DA JUMP JUMPDEST PUSH1 0x0 DUP2 DUP2 MSTORE PUSH1 0x1 DUP4 ADD PUSH1 0x20 MSTORE PUSH1 0x40 DUP2 KECCAK256 SLOAD PUSH2 0x2A7F JUMPI POP DUP2 SLOAD PUSH1 0x1 DUP2 DUP2 ADD DUP5 SSTORE PUSH1 0x0 DUP5 DUP2 MSTORE PUSH1 0x20 DUP1 DUP3 KECCAK256 SWAP1 SWAP4 ADD DUP5 SWAP1 SSTORE DUP5 SLOAD DUP5 DUP3 MSTORE DUP3 DUP7 ADD SWAP1 SWAP4 MSTORE PUSH1 0x40 SWAP1 KECCAK256 SWAP2 SWAP1 SWAP2 SSTORE PUSH2 0x5DA JUMP JUMPDEST POP PUSH1 0x0 PUSH2 0x5DA JUMP JUMPDEST PUSH1 0x0 PUSH2 0x8E7 DUP4 PUSH1 0x1 PUSH1 0x1 PUSH1 0xA0 SHL SUB DUP5 AND PUSH2 0x291B JUMP JUMPDEST PUSH1 0x40 MLOAD PUSH1 0x1 PUSH1 0x1 PUSH1 0xA0 SHL SUB DUP4 AND PUSH1 0x24 DUP3 ADD MSTORE PUSH1 0x44 DUP2 ADD DUP3 SWAP1 MSTORE PUSH2 0xB97 SWAP1 DUP5 SWAP1 PUSH4 0xA9059CBB PUSH1 0xE0 SHL SWAP1 PUSH1 0x64 ADD PUSH2 0x28A6 JUMP JUMPDEST PUSH1 0x0 DUP1 DUP1 PUSH1 0x0 NOT DUP6 DUP8 MULMOD DUP6 DUP8 MUL SWAP3 POP DUP3 DUP2 LT DUP4 DUP3 SUB SUB SWAP2 POP POP DUP1 PUSH1 0x0 EQ ISZERO PUSH2 0x2B06 JUMPI PUSH1 0x0 DUP5 GT PUSH2 0x2AFB JUMPI PUSH1 0x0 DUP1 REVERT JUMPDEST POP DUP3 SWAP1 DIV SWAP1 POP PUSH2 0x8E7 JUMP JUMPDEST DUP1 DUP5 GT PUSH2 0x2B12 JUMPI PUSH1 0x0 DUP1 REVERT JUMPDEST PUSH1 0x0 DUP5 DUP7 DUP9 MULMOD PUSH1 0x2 PUSH1 0x1 DUP8 NOT DUP2 ADD DUP9 AND SWAP8 DUP9 SWAP1 DIV PUSH1 0x3 DUP2 MUL DUP4 XOR DUP1 DUP3 MUL DUP5 SUB MUL DUP1 DUP3 MUL DUP5 SUB MUL DUP1 DUP3 MUL DUP5 SUB MUL DUP1 DUP3 MUL DUP5 SUB MUL DUP1 DUP3 MUL DUP5 SUB MUL SWAP1 DUP2 MUL SWAP1 SWAP3 SUB SWAP1 SWAP2 MUL PUSH1 0x0 DUP9 SWAP1 SUB DUP9 SWAP1 DIV SWAP1 SWAP2 ADD DUP6 DUP4 GT SWAP1 SWAP5 SUB SWAP4 SWAP1 SWAP4 MUL SWAP4 SUB SWAP5 SWAP1 SWAP5 DIV SWAP2 SWAP1 SWAP2 OR MUL SWAP5 SWAP4 POP POP POP POP JUMP JUMPDEST PUSH1 0x0 DUP1 DUP1 JUMPDEST DUP4 DUP2 LT ISZERO PUSH2 0x1043 JUMPI DUP5 DUP5 DUP3 DUP2 DUP2 LT PUSH2 0x2BA8 JUMPI PUSH4 0x4E487B71 PUSH1 0xE0 SHL PUSH1 0x0 MSTORE PUSH1 0x32 PUSH1 0x4 MSTORE PUSH1 0x24 PUSH1 0x0 REVERT JUMPDEST SWAP1 POP PUSH1 0x20 MUL ADD CALLDATALOAD PUSH1 0x0 EQ ISZERO PUSH2 0x2BF5 JUMPI PUSH1 0x40 MLOAD PUSH3 0x461BCD PUSH1 0xE5 SHL DUP2 MSTORE PUSH1 0x20 PUSH1 0x4 DUP3 ADD MSTORE PUSH1 0x13 PUSH1 0x24 DUP3 ADD MSTORE PUSH19 0x416D6F756E742063616E74206265207A65726F PUSH1 0x68 SHL PUSH1 0x44 DUP3 ADD MSTORE PUSH1 0x64 ADD PUSH2 0x49C JUMP JUMPDEST DUP5 DUP5 DUP3 DUP2 DUP2 LT PUSH2 0x2C15 JUMPI PUSH4 0x4E487B71 PUSH1 0xE0 SHL PUSH1 0x0 MSTORE PUSH1 0x32 PUSH1 0x4 MSTORE PUSH1 0x24 PUSH1 0x0 REVERT JUMPDEST SWAP1 POP PUSH1 0x20 MUL ADD CALLDATALOAD DUP3 PUSH2 0x2C27 SWAP2 SWAP1 PUSH2 0x3A7C JUMP JUMPDEST SWAP2 POP DUP1 PUSH2 0x2C33 DUP2 PUSH2 0x3B51 JUMP JUMPDEST SWAP2 POP POP PUSH2 0x2B80 JUMP JUMPDEST PUSH1 0x0 DUP1 DUP4 SWAP1 POP PUSH1 0x0 DUP4 PUSH1 0x1 PUSH1 0x1 PUSH1 0xA0 SHL SUB AND PUSH4 0xE6A43905 DUP4 PUSH1 0x1 PUSH1 0x1 PUSH1 0xA0 SHL SUB AND PUSH4 0xDFE1681 PUSH1 0x40 MLOAD DUP2 PUSH4 0xFFFFFFFF AND PUSH1 0xE0 SHL DUP2 MSTORE PUSH1 0x4 ADD PUSH1 0x20 PUSH1 0x40 MLOAD DUP1 DUP4 SUB DUP2 DUP7 DUP1 EXTCODESIZE ISZERO DUP1 ISZERO PUSH2 0x2C8B JUMPI PUSH1 0x0 DUP1 REVERT JUMPDEST POP GAS STATICCALL ISZERO DUP1 ISZERO PUSH2 0x2C9F JUMPI RETURNDATASIZE PUSH1 0x0 DUP1 RETURNDATACOPY RETURNDATASIZE PUSH1 0x0 REVERT JUMPDEST POP POP POP POP PUSH1 0x40 MLOAD RETURNDATASIZE PUSH1 0x1F NOT PUSH1 0x1F DUP3 ADD AND DUP3 ADD DUP1 PUSH1 0x40 MSTORE POP DUP2 ADD SWAP1 PUSH2 0x2CC3 SWAP2 SWAP1 PUSH2 0x33BC JUMP JUMPDEST DUP5 PUSH1 0x1 PUSH1 0x1 PUSH1 0xA0 SHL SUB AND PUSH4 0xD21220A7 PUSH1 0x40 MLOAD DUP2 PUSH4 0xFFFFFFFF AND PUSH1 0xE0 SHL DUP2 MSTORE PUSH1 0x4 ADD PUSH1 0x20 PUSH1 0x40 MLOAD DUP1 DUP4 SUB DUP2 DUP7 DUP1 EXTCODESIZE ISZERO DUP1 ISZERO PUSH2 0x2CFC JUMPI PUSH1 0x0 DUP1 REVERT JUMPDEST POP GAS STATICCALL ISZERO DUP1 ISZERO PUSH2 0x2D10 JUMPI RETURNDATASIZE PUSH1 0x0 DUP1 RETURNDATACOPY RETURNDATASIZE PUSH1 0x0 REVERT JUMPDEST POP POP POP POP PUSH1 0x40 MLOAD RETURNDATASIZE PUSH1 0x1F NOT PUSH1 0x1F DUP3 ADD AND DUP3 ADD DUP1 PUSH1 0x40 MSTORE POP DUP2 ADD SWAP1 PUSH2 0x2D34 SWAP2 SWAP1 PUSH2 0x33BC JUMP JUMPDEST PUSH1 0x40 MLOAD PUSH1 0x1 PUSH1 0x1 PUSH1 0xE0 SHL SUB NOT PUSH1 0xE0 DUP6 SWAP1 SHL AND DUP2 MSTORE PUSH1 0x1 PUSH1 0x1 PUSH1 0xA0 SHL SUB SWAP3 DUP4 AND PUSH1 0x4 DUP3 ADD MSTORE SWAP2 AND PUSH1 0x24 DUP3 ADD MSTORE PUSH1 0x44 ADD PUSH1 0x20 PUSH1 0x40 MLOAD DUP1 DUP4 SUB DUP2 DUP7 DUP1 EXTCODESIZE ISZERO DUP1 ISZERO PUSH2 0x2D7A JUMPI PUSH1 0x0 DUP1 REVERT JUMPDEST POP GAS STATICCALL ISZERO DUP1 ISZERO PUSH2 0x2D8E JUMPI RETURNDATASIZE PUSH1 0x0 DUP1 RETURNDATACOPY RETURNDATASIZE PUSH1 0x0 REVERT JUMPDEST POP POP POP POP PUSH1 0x40 MLOAD RETURNDATASIZE PUSH1 0x1F NOT PUSH1 0x1F DUP3 ADD AND DUP3 ADD DUP1 PUSH1 0x40 MSTORE POP DUP2 ADD SWAP1 PUSH2 0x2DB2 SWAP2 SWAP1 PUSH2 0x33BC JUMP JUMPDEST PUSH1 0x1 PUSH1 0x1 PUSH1 0xA0 SHL SUB SWAP1 DUP2 AND SWAP1 DUP7 AND EQ SWAP3 POP POP POP SWAP3 SWAP2 POP POP JUMP JUMPDEST PUSH1 0x0 DUP1 SLOAD PUSH2 0x2DDD SWAP1 PUSH3 0xF4240 SWAP1 PUSH2 0x3A7C JUMP JUMPDEST SWAP1 POP PUSH1 0x0 PUSH1 0x40 MLOAD DUP1 PUSH2 0x160 ADD PUSH1 0x40 MSTORE DUP1 DUP4 DUP2 MSTORE PUSH1 0x20 ADD DUP11 PUSH1 0x1 PUSH1 0x1 PUSH1 0xA0 SHL SUB AND DUP2 MSTORE PUSH1 0x20 ADD DUP12 PUSH1 0x1 PUSH1 0x1 PUSH1 0xA0 SHL SUB AND DUP2 MSTORE PUSH1 0x20 ADD DUP10 DUP2 MSTORE PUSH1 0x20 ADD TIMESTAMP DUP2 MSTORE PUSH1 0x20 ADD DUP9 DUP2 MSTORE PUSH1 0x20 ADD DUP8 DUP2 MSTORE PUSH1 0x20 ADD DUP7 DUP2 MSTORE PUSH1 0x20 ADD DUP6 DUP2 MSTORE PUSH1 0x20 ADD PUSH1 0x0 DUP2 MSTORE PUSH1 0x20 ADD DUP5 DUP2 MSTORE POP SWAP1 POP PUSH1 0x0 DUP2 SWAP1 DUP1 PUSH1 0x1 DUP2 SLOAD ADD DUP1 DUP3 SSTORE DUP1 SWAP2 POP POP PUSH1 0x1 SWAP1 SUB SWAP1 PUSH1 0x0 MSTORE PUSH1 0x20 PUSH1 0x0 KECCAK256 SWAP1 PUSH1 0xB MUL ADD PUSH1 0x0 SWAP1 SWAP2 SWAP1 SWAP2 SWAP1 SWAP2 POP PUSH1 0x0 DUP3 ADD MLOAD DUP2 PUSH1 0x0 ADD SSTORE PUSH1 0x20 DUP3 ADD MLOAD DUP2 PUSH1 0x1 ADD PUSH1 0x0 PUSH2 0x100 EXP DUP2 SLOAD DUP2 PUSH1 0x1 PUSH1 0x1 PUSH1 0xA0 SHL SUB MUL NOT AND SWAP1 DUP4 PUSH1 0x1 PUSH1 0x1 PUSH1 0xA0 SHL SUB AND MUL OR SWAP1 SSTORE POP PUSH1 0x40 DUP3 ADD MLOAD DUP2 PUSH1 0x2 ADD PUSH1 0x0 PUSH2 0x100 EXP DUP2 SLOAD DUP2 PUSH1 0x1 PUSH1 0x1 PUSH1 0xA0 SHL SUB MUL NOT AND SWAP1 DUP4 PUSH1 0x1 PUSH1 0x1 PUSH1 0xA0 SHL SUB AND MUL OR SWAP1 SSTORE POP PUSH1 0x60 DUP3 ADD MLOAD DUP2 PUSH1 0x3 ADD SSTORE PUSH1 0x80 DUP3 ADD MLOAD DUP2 PUSH1 0x4 ADD SSTORE PUSH1 0xA0 DUP3 ADD MLOAD DUP2 PUSH1 0x5 ADD SSTORE PUSH1 0xC0 DUP3 ADD MLOAD DUP2 PUSH1 0x6 ADD SSTORE PUSH1 0xE0 DUP3 ADD MLOAD DUP2 PUSH1 0x7 ADD SSTORE PUSH2 0x100 DUP3 ADD MLOAD DUP2 PUSH1 0x8 ADD SSTORE PUSH2 0x120 DUP3 ADD MLOAD DUP2 PUSH1 0x9 ADD SSTORE PUSH2 0x140 DUP3 ADD MLOAD DUP2 PUSH1 0xA ADD SWAP1 DUP1 MLOAD SWAP1 PUSH1 0x20 ADD SWAP1 PUSH2 0x2F37 SWAP3 SWAP2 SWAP1 PUSH2 0x321B JUMP JUMPDEST POP POP POP POP SWAP9 SWAP8 POP POP POP POP POP POP POP POP JUMP JUMPDEST PUSH1 0x0 PUSH2 0x8E7 DUP4 PUSH1 0x1 PUSH1 0x1 PUSH1 0xA0 SHL SUB DUP5 AND PUSH2 0x2A38 JUMP JUMPDEST PUSH1 0x0 PUSH2 0x2FB1 DUP3 PUSH1 0x40 MLOAD DUP1 PUSH1 0x40 ADD PUSH1 0x40 MSTORE DUP1 PUSH1 0x20 DUP2 MSTORE PUSH1 0x20 ADD PUSH32 0x5361666545524332303A206C6F772D6C6576656C2063616C6C206661696C6564 DUP2 MSTORE POP DUP6 PUSH1 0x1 PUSH1 0x1 PUSH1 0xA0 SHL SUB AND PUSH2 0x302E SWAP1 SWAP3 SWAP2 SWAP1 PUSH4 0xFFFFFFFF AND JUMP JUMPDEST DUP1 MLOAD SWAP1 SWAP2 POP ISZERO PUSH2 0xB97 JUMPI DUP1 DUP1 PUSH1 0x20 ADD SWAP1 MLOAD DUP2 ADD SWAP1 PUSH2 0x2FCF SWAP2 SWAP1 PUSH2 0x363B JUMP JUMPDEST PUSH2 0xB97 JUMPI PUSH1 0x40 MLOAD PUSH3 0x461BCD PUSH1 0xE5 SHL DUP2 MSTORE PUSH1 0x20 PUSH1 0x4 DUP3 ADD MSTORE PUSH1 0x2A PUSH1 0x24 DUP3 ADD MSTORE PUSH32 0x5361666545524332303A204552433230206F7065726174696F6E20646964206E PUSH1 0x44 DUP3 ADD MSTORE PUSH10 0x1BDD081CDD58D8D95959 PUSH1 0xB2 SHL PUSH1 0x64 DUP3 ADD MSTORE PUSH1 0x84 ADD PUSH2 0x49C JUMP JUMPDEST PUSH1 0x60 PUSH2 0x303D DUP5 DUP5 PUSH1 0x0 DUP6 PUSH2 0x3045 JUMP JUMPDEST SWAP5 SWAP4 POP POP POP POP JUMP JUMPDEST PUSH1 0x60 DUP3 SELFBALANCE LT ISZERO PUSH2 0x30A6 JUMPI PUSH1 0x40 MLOAD PUSH3 0x461BCD PUSH1 0xE5 SHL DUP2 MSTORE PUSH1 0x20 PUSH1 0x4 DUP3 ADD MSTORE PUSH1 0x26 PUSH1 0x24 DUP3 ADD MSTORE PUSH32 0x416464726573733A20696E73756666696369656E742062616C616E636520666F PUSH1 0x44 DUP3 ADD MSTORE PUSH6 0x1C8818D85B1B PUSH1 0xD2 SHL PUSH1 0x64 DUP3 ADD MSTORE PUSH1 0x84 ADD PUSH2 0x49C JUMP JUMPDEST PUSH1 0x1 PUSH1 0x1 PUSH1 0xA0 SHL SUB DUP6 AND EXTCODESIZE PUSH2 0x30FD JUMPI PUSH1 0x40 MLOAD PUSH3 0x461BCD PUSH1 0xE5 SHL DUP2 MSTORE PUSH1 0x20 PUSH1 0x4 DUP3 ADD MSTORE PUSH1 0x1D PUSH1 0x24 DUP3 ADD MSTORE PUSH32 0x416464726573733A2063616C6C20746F206E6F6E2D636F6E7472616374000000 PUSH1 0x44 DUP3 ADD MSTORE PUSH1 0x64 ADD PUSH2 0x49C JUMP JUMPDEST PUSH1 0x0 DUP1 DUP7 PUSH1 0x1 PUSH1 0x1 PUSH1 0xA0 SHL SUB AND DUP6 DUP8 PUSH1 0x40 MLOAD PUSH2 0x3119 SWAP2 SWAP1 PUSH2 0x381E JUMP JUMPDEST PUSH1 0x0 PUSH1 0x40 MLOAD DUP1 DUP4 SUB DUP2 DUP6 DUP8 GAS CALL SWAP3 POP POP POP RETURNDATASIZE DUP1 PUSH1 0x0 DUP2 EQ PUSH2 0x3156 JUMPI PUSH1 0x40 MLOAD SWAP2 POP PUSH1 0x1F NOT PUSH1 0x3F RETURNDATASIZE ADD AND DUP3 ADD PUSH1 0x40 MSTORE RETURNDATASIZE DUP3 MSTORE RETURNDATASIZE PUSH1 0x0 PUSH1 0x20 DUP5 ADD RETURNDATACOPY PUSH2 0x315B JUMP JUMPDEST PUSH1 0x60 SWAP2 POP JUMPDEST POP SWAP2 POP SWAP2 POP PUSH2 0x316B DUP3 DUP3 DUP7 PUSH2 0x3176 JUMP JUMPDEST SWAP8 SWAP7 POP POP POP POP POP POP POP JUMP JUMPDEST PUSH1 0x60 DUP4 ISZERO PUSH2 0x3185 JUMPI POP DUP2 PUSH2 0x8E7 JUMP JUMPDEST DUP3 MLOAD ISZERO PUSH2 0x3195 JUMPI DUP3 MLOAD DUP1 DUP5 PUSH1 0x20 ADD REVERT JUMPDEST DUP2 PUSH1 0x40 MLOAD PUSH3 0x461BCD PUSH1 0xE5 SHL DUP2 MSTORE PUSH1 0x4 ADD PUSH2 0x49C SWAP2 SWAP1 PUSH2 0x396C JUMP JUMPDEST PUSH1 0x40 MLOAD DUP1 PUSH2 0x160 ADD PUSH1 0x40 MSTORE DUP1 PUSH1 0x0 DUP2 MSTORE PUSH1 0x20 ADD PUSH1 0x0 PUSH1 0x1 PUSH1 0x1 PUSH1 0xA0 SHL SUB AND DUP2 MSTORE PUSH1 0x20 ADD PUSH1 0x0 PUSH1 0x1 PUSH1 0x1 PUSH1 0xA0 SHL SUB AND DUP2 MSTORE PUSH1 0x20 ADD PUSH1 0x0 DUP2 MSTORE PUSH1 0x20 ADD PUSH1 0x0 DUP2 MSTORE PUSH1 0x20 ADD PUSH1 0x0 DUP2 MSTORE PUSH1 0x20 ADD PUSH1 0x0 DUP2 MSTORE PUSH1 0x20 ADD PUSH1 0x0 DUP2 MSTORE PUSH1 0x20 ADD PUSH1 0x0 DUP2 MSTORE PUSH1 0x20 ADD PUSH1 0x0 DUP2 MSTORE PUSH1 0x20 ADD PUSH1 0x60 DUP2 MSTORE POP SWAP1 JUMP JUMPDEST DUP3 DUP1 SLOAD PUSH2 0x3227 SWAP1 PUSH2 0x3B16 JUMP JUMPDEST SWAP1 PUSH1 0x0 MSTORE PUSH1 0x20 PUSH1 0x0 KECCAK256 SWAP1 PUSH1 0x1F ADD PUSH1 0x20 SWAP1 DIV DUP2 ADD SWAP3 DUP3 PUSH2 0x3249 JUMPI PUSH1 0x0 DUP6 SSTORE PUSH2 0x328F JUMP JUMPDEST DUP3 PUSH1 0x1F LT PUSH2 0x3262 JUMPI DUP1 MLOAD PUSH1 0xFF NOT AND DUP4 DUP1 ADD OR DUP6 SSTORE PUSH2 0x328F JUMP JUMPDEST DUP3 DUP1 ADD PUSH1 0x1 ADD DUP6 SSTORE DUP3 ISZERO PUSH2 0x328F JUMPI SWAP2 DUP3 ADD JUMPDEST DUP3 DUP2 GT ISZERO PUSH2 0x328F JUMPI DUP3 MLOAD DUP3 SSTORE SWAP2 PUSH1 0x20 ADD SWAP2 SWAP1 PUSH1 0x1 ADD SWAP1 PUSH2 0x3274 JUMP JUMPDEST POP PUSH2 0x329B SWAP3 SWAP2 POP PUSH2 0x329F JUMP JUMPDEST POP SWAP1 JUMP JUMPDEST JUMPDEST DUP1 DUP3 GT ISZERO PUSH2 0x329B JUMPI PUSH1 0x0 DUP2 SSTORE PUSH1 0x1 ADD PUSH2 0x32A0 JUMP JUMPDEST DUP1 CALLDATALOAD PUSH2 0x32BF DUP2 PUSH2 0x3B98 JUMP JUMPDEST SWAP2 SWAP1 POP JUMP JUMPDEST PUSH1 0x0 DUP1 DUP4 PUSH1 0x1F DUP5 ADD SLT PUSH2 0x32D5 JUMPI DUP1 DUP2 REVERT JUMPDEST POP DUP2 CALLDATALOAD PUSH8 0xFFFFFFFFFFFFFFFF DUP2 GT ISZERO PUSH2 0x32EC JUMPI DUP2 DUP3 REVERT JUMPDEST PUSH1 0x20 DUP4 ADD SWAP2 POP DUP4 PUSH1 0x20 DUP3 PUSH1 0x5 SHL DUP6 ADD ADD GT ISZERO PUSH2 0x3307 JUMPI PUSH1 0x0 DUP1 REVERT JUMPDEST SWAP3 POP SWAP3 SWAP1 POP JUMP JUMPDEST DUP1 CALLDATALOAD PUSH2 0x32BF DUP2 PUSH2 0x3BAD JUMP JUMPDEST PUSH1 0x0 DUP3 PUSH1 0x1F DUP4 ADD SLT PUSH2 0x3329 JUMPI DUP1 DUP2 REVERT JUMPDEST DUP2 CALLDATALOAD PUSH8 0xFFFFFFFFFFFFFFFF DUP1 DUP3 GT ISZERO PUSH2 0x3344 JUMPI PUSH2 0x3344 PUSH2 0x3B82 JUMP JUMPDEST PUSH1 0x40 MLOAD PUSH1 0x1F DUP4 ADD PUSH1 0x1F NOT SWAP1 DUP2 AND PUSH1 0x3F ADD AND DUP2 ADD SWAP1 DUP3 DUP3 GT DUP2 DUP4 LT OR ISZERO PUSH2 0x336C JUMPI PUSH2 0x336C PUSH2 0x3B82 JUMP JUMPDEST DUP2 PUSH1 0x40 MSTORE DUP4 DUP2 MSTORE DUP7 PUSH1 0x20 DUP6 DUP9 ADD ADD GT ISZERO PUSH2 0x3384 JUMPI DUP5 DUP6 REVERT JUMPDEST DUP4 PUSH1 0x20 DUP8 ADD PUSH1 0x20 DUP4 ADD CALLDATACOPY SWAP3 DUP4 ADD PUSH1 0x20 ADD SWAP4 SWAP1 SWAP4 MSTORE POP SWAP4 SWAP3 POP POP POP JUMP JUMPDEST PUSH1 0x0 PUSH1 0x20 DUP3 DUP5 SUB SLT ISZERO PUSH2 0x33B1 JUMPI DUP1 DUP2 REVERT JUMPDEST DUP2 CALLDATALOAD PUSH2 0x8E7 DUP2 PUSH2 0x3B98 JUMP JUMPDEST PUSH1 0x0 PUSH1 0x20 DUP3 DUP5 SUB SLT ISZERO PUSH2 0x33CD JUMPI DUP1 DUP2 REVERT JUMPDEST DUP2 MLOAD PUSH2 0x8E7 DUP2 PUSH2 0x3B98 JUMP JUMPDEST PUSH1 0x0 DUP1 PUSH1 0x0 DUP1 PUSH1 0x0 DUP1 PUSH1 0xC0 DUP8 DUP10 SUB SLT ISZERO PUSH2 0x33F0 JUMPI DUP2 DUP3 REVERT JUMPDEST DUP7 CALLDATALOAD PUSH2 0x33FB DUP2 PUSH2 0x3B98 JUMP JUMPDEST SWAP6 POP PUSH1 0x20 DUP8 ADD CALLDATALOAD PUSH2 0x340B DUP2 PUSH2 0x3B98 JUMP JUMPDEST SWAP5 POP PUSH1 0x40 DUP8 ADD CALLDATALOAD PUSH2 0x341B DUP2 PUSH2 0x3BAD JUMP JUMPDEST SWAP4 POP PUSH1 0x60 DUP8 ADD CALLDATALOAD SWAP3 POP PUSH1 0x80 DUP8 ADD CALLDATALOAD SWAP2 POP PUSH1 0xA0 DUP8 ADD CALLDATALOAD PUSH8 0xFFFFFFFFFFFFFFFF DUP2 GT ISZERO PUSH2 0x3444 JUMPI DUP2 DUP3 REVERT JUMPDEST PUSH2 0x3450 DUP10 DUP3 DUP11 ADD PUSH2 0x3319 JUMP JUMPDEST SWAP2 POP POP SWAP3 SWAP6 POP SWAP3 SWAP6 POP SWAP3 SWAP6 JUMP JUMPDEST PUSH1 0x0 DUP1 PUSH1 0x0 DUP1 PUSH1 0x0 DUP1 PUSH1 0x0 DUP1 PUSH1 0x0 PUSH2 0x120 DUP11 DUP13 SUB SLT ISZERO PUSH2 0x347B JUMPI DUP3 DUP4 REVERT JUMPDEST DUP10 CALLDATALOAD PUSH2 0x3486 DUP2 PUSH2 0x3B98 JUMP JUMPDEST SWAP9 POP PUSH1 0x20 DUP11 ADD CALLDATALOAD PUSH2 0x3496 DUP2 PUSH2 0x3B98 JUMP JUMPDEST SWAP8 POP PUSH1 0x40 DUP11 ADD CALLDATALOAD PUSH2 0x34A6 DUP2 PUSH2 0x3BAD JUMP JUMPDEST SWAP7 POP PUSH1 0x60 DUP11 ADD CALLDATALOAD SWAP6 POP PUSH1 0x80 DUP11 ADD CALLDATALOAD SWAP5 POP PUSH1 0xA0 DUP11 ADD CALLDATALOAD SWAP4 POP PUSH1 0xC0 DUP11 ADD CALLDATALOAD SWAP3 POP PUSH1 0xE0 DUP11 ADD CALLDATALOAD SWAP2 POP PUSH2 0x100 DUP11 ADD CALLDATALOAD PUSH8 0xFFFFFFFFFFFFFFFF DUP2 GT ISZERO PUSH2 0x34E5 JUMPI DUP2 DUP3 REVERT JUMPDEST PUSH2 0x34F1 DUP13 DUP3 DUP14 ADD PUSH2 0x3319 JUMP JUMPDEST SWAP2 POP POP SWAP3 SWAP6 SWAP9 POP SWAP3 SWAP6 SWAP9 POP SWAP3 SWAP6 SWAP9 JUMP JUMPDEST PUSH1 0x0 DUP1 PUSH1 0x40 DUP4 DUP6 SUB SLT ISZERO PUSH2 0x3513 JUMPI DUP2 DUP3 REVERT JUMPDEST DUP3 CALLDATALOAD PUSH2 0x351E DUP2 PUSH2 0x3B98 JUMP JUMPDEST SWAP5 PUSH1 0x20 SWAP4 SWAP1 SWAP4 ADD CALLDATALOAD SWAP4 POP POP POP JUMP JUMPDEST PUSH1 0x0 DUP1 PUSH1 0x0 PUSH1 0x60 DUP5 DUP7 SUB SLT ISZERO PUSH2 0x3540 JUMPI DUP3 DUP4 REVERT JUMPDEST DUP4 CALLDATALOAD PUSH2 0x354B DUP2 PUSH2 0x3B98 JUMP JUMPDEST SWAP6 PUSH1 0x20 DUP6 ADD CALLDATALOAD SWAP6 POP PUSH1 0x40 SWAP1 SWAP5 ADD CALLDATALOAD SWAP4 SWAP3 POP POP POP JUMP JUMPDEST PUSH1 0x0 DUP1 PUSH1 0x0 DUP1 PUSH1 0x0 DUP1 PUSH1 0x0 DUP1 PUSH1 0x0 DUP1 PUSH1 0x0 PUSH2 0x120 DUP13 DUP15 SUB SLT ISZERO PUSH2 0x3581 JUMPI DUP2 DUP3 REVERT JUMPDEST PUSH8 0xFFFFFFFFFFFFFFFF DUP1 DUP14 CALLDATALOAD GT ISZERO PUSH2 0x3597 JUMPI DUP3 DUP4 REVERT JUMPDEST PUSH2 0x35A4 DUP15 DUP15 CALLDATALOAD DUP16 ADD PUSH2 0x32C4 JUMP JUMPDEST SWAP1 SWAP13 POP SWAP11 POP PUSH1 0x20 DUP14 ADD CALLDATALOAD DUP2 LT ISZERO PUSH2 0x35B9 JUMPI DUP3 DUP4 REVERT JUMPDEST PUSH2 0x35C9 DUP15 PUSH1 0x20 DUP16 ADD CALLDATALOAD DUP16 ADD PUSH2 0x32C4 JUMP JUMPDEST SWAP1 SWAP11 POP SWAP9 POP PUSH2 0x35DA PUSH1 0x40 DUP15 ADD PUSH2 0x32B4 JUMP JUMPDEST SWAP8 POP PUSH2 0x35E8 PUSH1 0x60 DUP15 ADD PUSH2 0x330E JUMP JUMPDEST SWAP7 POP PUSH1 0x80 DUP14 ADD CALLDATALOAD SWAP6 POP PUSH1 0xA0 DUP14 ADD CALLDATALOAD SWAP5 POP PUSH1 0xC0 DUP14 ADD CALLDATALOAD SWAP4 POP PUSH1 0xE0 DUP14 ADD CALLDATALOAD SWAP3 POP DUP1 PUSH2 0x100 DUP15 ADD CALLDATALOAD GT ISZERO PUSH2 0x3617 JUMPI DUP2 DUP3 REVERT JUMPDEST POP PUSH2 0x3629 DUP14 PUSH2 0x100 DUP15 ADD CALLDATALOAD DUP15 ADD PUSH2 0x3319 JUMP JUMPDEST SWAP1 POP SWAP3 SWAP6 SWAP9 SWAP12 POP SWAP3 SWAP6 SWAP9 SWAP12 SWAP1 SWAP4 SWAP7 SWAP10 POP JUMP JUMPDEST PUSH1 0x0 PUSH1 0x20 DUP3 DUP5 SUB SLT ISZERO PUSH2 0x364C JUMPI DUP1 DUP2 REVERT JUMPDEST DUP2 MLOAD PUSH2 0x8E7 DUP2 PUSH2 0x3BAD JUMP JUMPDEST PUSH1 0x0 PUSH1 0x20 DUP3 DUP5 SUB SLT ISZERO PUSH2 0x3668 JUMPI DUP1 DUP2 REVERT JUMPDEST POP CALLDATALOAD SWAP2 SWAP1 POP JUMP JUMPDEST PUSH1 0x0 PUSH1 0x20 DUP3 DUP5 SUB SLT ISZERO PUSH2 0x3680 JUMPI DUP1 DUP2 REVERT JUMPDEST POP MLOAD SWAP2 SWAP1 POP JUMP JUMPDEST PUSH1 0x0 DUP1 PUSH1 0x40 DUP4 DUP6 SUB SLT ISZERO PUSH2 0x3699 JUMPI DUP2 DUP3 REVERT JUMPDEST DUP3 CALLDATALOAD SWAP2 POP PUSH1 0x20 DUP4 ADD CALLDATALOAD PUSH2 0x36AB DUP2 PUSH2 0x3B98 JUMP JUMPDEST DUP1 SWAP2 POP POP SWAP3 POP SWAP3 SWAP1 POP JUMP JUMPDEST PUSH1 0x0 DUP1 PUSH1 0x40 DUP4 DUP6 SUB SLT ISZERO PUSH2 0x36C8 JUMPI DUP2 DUP3 REVERT JUMPDEST DUP3 CALLDATALOAD SWAP2 POP PUSH1 0x20 DUP4 ADD CALLDATALOAD PUSH8 0xFFFFFFFFFFFFFFFF DUP2 GT ISZERO PUSH2 0x36E5 JUMPI DUP2 DUP3 REVERT JUMPDEST PUSH2 0x36F1 DUP6 DUP3 DUP7 ADD PUSH2 0x3319 JUMP JUMPDEST SWAP2 POP POP SWAP3 POP SWAP3 SWAP1 POP JUMP JUMPDEST PUSH1 0x0 DUP1 PUSH1 0x40 DUP4 DUP6 SUB SLT ISZERO PUSH2 0x370D JUMPI DUP2 DUP3 REVERT JUMPDEST POP POP DUP1 CALLDATALOAD SWAP3 PUSH1 0x20 SWAP1 SWAP2 ADD CALLDATALOAD SWAP2 POP JUMP JUMPDEST PUSH1 0x0 DUP1 PUSH1 0x0 PUSH1 0x60 DUP5 DUP7 SUB SLT ISZERO PUSH2 0x3730 JUMPI DUP1 DUP2 REVERT JUMPDEST POP POP DUP2 CALLDATALOAD SWAP4 PUSH1 0x20 DUP4 ADD CALLDATALOAD SWAP4 POP PUSH1 0x40 SWAP1 SWAP3 ADD CALLDATALOAD SWAP2 SWAP1 POP JUMP JUMPDEST PUSH1 0x0 DUP2 MLOAD DUP1 DUP5 MSTORE PUSH2 0x375F DUP2 PUSH1 0x20 DUP7 ADD PUSH1 0x20 DUP7 ADD PUSH2 0x3AEA JUMP JUMPDEST PUSH1 0x1F ADD PUSH1 0x1F NOT AND SWAP3 SWAP1 SWAP3 ADD PUSH1 0x20 ADD SWAP3 SWAP2 POP POP JUMP JUMPDEST PUSH1 0x0 PUSH2 0x160 DUP3 MLOAD DUP5 MSTORE PUSH1 0x20 DUP4 ADD MLOAD PUSH2 0x3796 PUSH1 0x20 DUP7 ADD DUP3 PUSH1 0x1 PUSH1 0x1 PUSH1 0xA0 SHL SUB AND SWAP1 MSTORE JUMP JUMPDEST POP PUSH1 0x40 DUP4 ADD MLOAD PUSH2 0x37B1 PUSH1 0x40 DUP7 ADD DUP3 PUSH1 0x1 PUSH1 0x1 PUSH1 0xA0 SHL SUB AND SWAP1 MSTORE JUMP JUMPDEST POP PUSH1 0x60 DUP4 ADD MLOAD PUSH1 0x60 DUP6 ADD MSTORE PUSH1 0x80 DUP4 ADD MLOAD PUSH1 0x80 DUP6 ADD MSTORE PUSH1 0xA0 DUP4 ADD MLOAD PUSH1 0xA0 DUP6 ADD MSTORE PUSH1 0xC0 DUP4 ADD MLOAD PUSH1 0xC0 DUP6 ADD MSTORE PUSH1 0xE0 DUP4 ADD MLOAD PUSH1 0xE0 DUP6 ADD MSTORE PUSH2 0x100 DUP1 DUP5 ADD MLOAD DUP2 DUP7 ADD MSTORE POP PUSH2 0x120 DUP1 DUP5 ADD MLOAD DUP2 DUP7 ADD MSTORE POP PUSH2 0x140 DUP1 DUP5 ADD MLOAD DUP3 DUP3 DUP8 ADD MSTORE PUSH2 0x3814 DUP4 DUP8 ADD DUP3 PUSH2 0x3747 JUMP JUMPDEST SWAP7 SWAP6 POP POP POP POP POP POP JUMP JUMPDEST PUSH1 0x0 DUP3 MLOAD PUSH2 0x3830 DUP2 DUP5 PUSH1 0x20 DUP8 ADD PUSH2 0x3AEA JUMP JUMPDEST SWAP2 SWAP1 SWAP2 ADD SWAP3 SWAP2 POP POP JUMP JUMPDEST PUSH1 0x1 PUSH1 0x1 PUSH1 0xA0 SHL SUB SWAP5 DUP6 AND DUP2 MSTORE SWAP3 SWAP1 SWAP4 AND PUSH1 0x20 DUP4 ADD MSTORE PUSH1 0x40 DUP3 ADD MSTORE PUSH1 0x60 DUP2 ADD SWAP2 SWAP1 SWAP2 MSTORE PUSH1 0x80 ADD SWAP1 JUMP JUMPDEST PUSH1 0x20 DUP1 DUP3 MSTORE DUP3 MLOAD DUP3 DUP3 ADD DUP2 SWAP1 MSTORE PUSH1 0x0 SWAP2 SWAP1 DUP5 DUP3 ADD SWAP1 PUSH1 0x40 DUP6 ADD SWAP1 DUP5 JUMPDEST DUP2 DUP2 LT ISZERO PUSH2 0x38C7 JUMPI PUSH2 0x38B4 DUP4 DUP6 MLOAD DUP1 MLOAD PUSH1 0x1 PUSH1 0x1 PUSH1 0xA0 SHL SUB SWAP1 DUP2 AND DUP4 MSTORE PUSH1 0x20 DUP1 DUP4 ADD MLOAD SWAP1 SWAP2 AND SWAP1 DUP4 ADD MSTORE PUSH1 0x40 SWAP1 DUP2 ADD MLOAD SWAP2 ADD MSTORE JUMP JUMPDEST SWAP3 DUP5 ADD SWAP3 PUSH1 0x60 SWAP3 SWAP1 SWAP3 ADD SWAP2 PUSH1 0x1 ADD PUSH2 0x387F JUMP JUMPDEST POP SWAP1 SWAP7 SWAP6 POP POP POP POP POP POP JUMP JUMPDEST PUSH1 0x0 PUSH1 0x20 DUP1 DUP4 ADD DUP2 DUP5 MSTORE DUP1 DUP6 MLOAD DUP1 DUP4 MSTORE PUSH1 0x40 DUP7 ADD SWAP2 POP PUSH1 0x40 DUP2 PUSH1 0x5 SHL DUP8 ADD ADD SWAP3 POP DUP4 DUP8 ADD DUP6 JUMPDEST DUP3 DUP2 LT ISZERO PUSH2 0x3927 JUMPI PUSH1 0x3F NOT DUP9 DUP7 SUB ADD DUP5 MSTORE PUSH2 0x3915 DUP6 DUP4 MLOAD PUSH2 0x3773 JUMP JUMPDEST SWAP5 POP SWAP3 DUP6 ADD SWAP3 SWAP1 DUP6 ADD SWAP1 PUSH1 0x1 ADD PUSH2 0x38F9 JUMP JUMPDEST POP SWAP3 SWAP8 SWAP7 POP POP POP POP POP POP POP JUMP JUMPDEST PUSH1 0x20 DUP1 DUP3 MSTORE DUP3 MLOAD DUP3 DUP3 ADD DUP2 SWAP1 MSTORE PUSH1 0x0 SWAP2 SWAP1 DUP5 DUP3 ADD SWAP1 PUSH1 0x40 DUP6 ADD SWAP1 DUP5 JUMPDEST DUP2 DUP2 LT ISZERO PUSH2 0x38C7 JUMPI DUP4 MLOAD DUP4 MSTORE SWAP3 DUP5 ADD SWAP3 SWAP2 DUP5 ADD SWAP2 PUSH1 0x1 ADD PUSH2 0x3950 JUMP JUMPDEST PUSH1 0x20 DUP2 MSTORE PUSH1 0x0 PUSH2 0x8E7 PUSH1 0x20 DUP4 ADD DUP5 PUSH2 0x3747 JUMP JUMPDEST PUSH1 0x20 DUP1 DUP3 MSTORE PUSH1 0x22 SWAP1 DUP3 ADD MSTORE PUSH32 0x596F7520617265206E6F7420746865206F776E6572206F662074686973206C6F PUSH1 0x40 DUP3 ADD MSTORE PUSH2 0x636B PUSH1 0xF0 SHL PUSH1 0x60 DUP3 ADD MSTORE PUSH1 0x80 ADD SWAP1 JUMP JUMPDEST PUSH1 0x20 DUP1 DUP3 MSTORE PUSH1 0xD SWAP1 DUP3 ADD MSTORE PUSH13 0x24B73B30B634B2103A37B5B2B7 PUSH1 0x99 SHL PUSH1 0x40 DUP3 ADD MSTORE PUSH1 0x60 ADD SWAP1 JUMP JUMPDEST PUSH1 0x20 DUP1 DUP3 MSTORE PUSH1 0x32 SWAP1 DUP3 ADD MSTORE PUSH32 0x53756D206F66205447452062707320616E64206379636C652073686F756C6420 PUSH1 0x40 DUP3 ADD MSTORE PUSH18 0x6265206C657373207468616E20313030303 PUSH1 0x74 SHL PUSH1 0x60 DUP3 ADD MSTORE PUSH1 0x80 ADD SWAP1 JUMP JUMPDEST DUP2 MLOAD PUSH1 0x1 PUSH1 0x1 PUSH1 0xA0 SHL SUB SWAP1 DUP2 AND DUP3 MSTORE PUSH1 0x20 DUP1 DUP5 ADD MLOAD SWAP1 SWAP2 AND SWAP1 DUP3 ADD MSTORE PUSH1 0x40 DUP1 DUP4 ADD MLOAD SWAP1 DUP3 ADD MSTORE PUSH1 0x60 DUP2 ADD PUSH2 0x5DA JUMP JUMPDEST PUSH1 0x20 DUP2 MSTORE PUSH1 0x0 PUSH2 0x8E7 PUSH1 0x20 DUP4 ADD DUP5 PUSH2 0x3773 JUMP JUMPDEST PUSH1 0x0 DUP3 NOT DUP3 GT ISZERO PUSH2 0x3A8F JUMPI PUSH2 0x3A8F PUSH2 0x3B6C JUMP JUMPDEST POP ADD SWAP1 JUMP JUMPDEST PUSH1 0x0 DUP3 PUSH2 0x3AAF JUMPI PUSH4 0x4E487B71 PUSH1 0xE0 SHL DUP2 MSTORE PUSH1 0x12 PUSH1 0x4 MSTORE PUSH1 0x24 DUP2 REVERT JUMPDEST POP DIV SWAP1 JUMP JUMPDEST PUSH1 0x0 DUP2 PUSH1 0x0 NOT DIV DUP4 GT DUP3 ISZERO ISZERO AND ISZERO PUSH2 0x3ACE JUMPI PUSH2 0x3ACE PUSH2 0x3B6C JUMP JUMPDEST POP MUL SWAP1 JUMP JUMPDEST PUSH1 0x0 DUP3 DUP3 LT ISZERO PUSH2 0x3AE5 JUMPI PUSH2 0x3AE5 PUSH2 0x3B6C JUMP JUMPDEST POP SUB SWAP1 JUMP JUMPDEST PUSH1 0x0 JUMPDEST DUP4 DUP2 LT ISZERO PUSH2 0x3B05 JUMPI DUP2 DUP2 ADD MLOAD DUP4 DUP3 ADD MSTORE PUSH1 0x20 ADD PUSH2 0x3AED JUMP JUMPDEST DUP4 DUP2 GT ISZERO PUSH2 0x28DD JUMPI POP POP PUSH1 0x0 SWAP2 ADD MSTORE JUMP JUMPDEST PUSH1 0x1 DUP2 DUP2 SHR SWAP1 DUP3 AND DUP1 PUSH2 0x3B2A JUMPI PUSH1 0x7F DUP3 AND SWAP2 POP JUMPDEST PUSH1 0x20 DUP3 LT DUP2 EQ ISZERO PUSH2 0x3B4B JUMPI PUSH4 0x4E487B71 PUSH1 0xE0 SHL PUSH1 0x0 MSTORE PUSH1 0x22 PUSH1 0x4 MSTORE PUSH1 0x24 PUSH1 0x0 REVERT JUMPDEST POP SWAP2 SWAP1 POP JUMP JUMPDEST PUSH1 0x0 PUSH1 0x0 NOT DUP3 EQ ISZERO PUSH2 0x3B65 JUMPI PUSH2 0x3B65 PUSH2 0x3B6C JUMP JUMPDEST POP PUSH1 0x1 ADD SWAP1 JUMP JUMPDEST PUSH4 0x4E487B71 PUSH1 0xE0 SHL PUSH1 0x0 MSTORE PUSH1 0x11 PUSH1 0x4 MSTORE PUSH1 0x24 PUSH1 0x0 REVERT JUMPDEST PUSH4 0x4E487B71 PUSH1 0xE0 SHL PUSH1 0x0 MSTORE PUSH1 0x41 PUSH1 0x4 MSTORE PUSH1 0x24 PUSH1 0x0 REVERT JUMPDEST PUSH1 0x1 PUSH1 0x1 PUSH1 0xA0 SHL SUB DUP2 AND DUP2 EQ PUSH2 0xDDD JUMPI PUSH1 0x0 DUP1 REVERT JUMPDEST DUP1 ISZERO ISZERO DUP2 EQ PUSH2 0xDDD JUMPI PUSH1 0x0 DUP1 REVERT INVALID LOG2 PUSH5 0x6970667358 0x22 SLT KECCAK256 SELFBALANCE 0xB9 0xED ADD POP PUSH17 0xBA8EB24B402F61F7F4FD67498B5E316BF1 0x5F 0xC7 0x48 0xE1 PUSH24 0xC772F06664736F6C63430008040033000000000000000000 "
		},
		"gasEstimates": {
			"creation": {
				"codeDepositCost": "3069000",
				"executionCost": "3381",
				"totalCost": "3072381"
			},
			"external": {
				"allLpTokenLockedCount()": "1126",
				"allNormalTokenLockedCount()": "1171",
				"cumulativeLockInfo(address)": "3053",
				"editLock(uint256,uint256,uint256)": "infinite",
				"editLockDescription(uint256,string)": "infinite",
				"getCumulativeLpTokenLockInfo(uint256,uint256)": "infinite",
				"getCumulativeLpTokenLockInfoAt(uint256)": "5029",
				"getCumulativeNormalTokenLockInfo(uint256,uint256)": "infinite",
				"getCumulativeNormalTokenLockInfoAt(uint256)": "5007",
				"getLockAt(uint256)": "infinite",
				"getLockById(uint256)": "infinite",
				"getLocksForToken(address,uint256,uint256)": "infinite",
				"getTotalLockCount()": "1091",
				"lock(address,address,bool,uint256,uint256,string)": "infinite",
				"lpLockCountForUser(address)": "infinite",
				"lpLockForUserAtIndex(address,uint256)": "infinite",
				"lpLocksForUser(address)": "infinite",
				"multipleVestingLock(address[],uint256[],address,bool,uint256,uint256,uint256,uint256,string)": "infinite",
				"normalLockCountForUser(address)": "infinite",
				"normalLockForUserAtIndex(address,uint256)": "infinite",
				"normalLocksForUser(address)": "infinite",
				"renounceLockOwnership(uint256)": "infinite",
				"totalLockCountForToken(address)": "infinite",
				"totalLockCountForUser(address)": "infinite",
				"totalTokenLockedCount()": "infinite",
				"transferLockOwnership(uint256,address)": "infinite",
				"unlock(uint256)": "infinite",
				"vestingLock(address,address,bool,uint256,uint256,uint256,uint256,uint256,string)": "infinite",
				"withdrawableTokens(uint256)": "infinite"
			},
			"internal": {
				"_createLock(address,address,bool,uint256,uint256,uint256,uint256,uint256,string memory)": "infinite",
				"_getActualIndex(uint256)": "infinite",
				"_isValidLpToken(address,address)": "infinite",
				"_lockLpToken(address,address,address,uint256,uint256,uint256,uint256,uint256,string memory)": "infinite",
				"_lockNormalToken(address,address,uint256,uint256,uint256,uint256,uint256,string memory)": "infinite",
				"_multipleVestingLock(address[] calldata,uint256[] calldata,address,bool,uint256[4] memory,string memory)": "infinite",
				"_normalUnlock(struct PinkLock.Lock storage pointer)": "infinite",
				"_parseFactoryAddress(address)": "infinite",
				"_registerLock(address,address,uint256,uint256,uint256,uint256,uint256,string memory)": "infinite",
				"_safeTransferFromEnsureExactAmount(address,address,address,uint256)": "infinite",
				"_sumAmount(uint256[] calldata)": "infinite",
				"_vestingUnlock(struct PinkLock.Lock storage pointer)": "infinite",
				"_withdrawableTokens(struct PinkLock.Lock memory)": "infinite"
			}
		},
		"methodIdentifiers": {
			"allLpTokenLockedCount()": "b982922e",
			"allNormalTokenLockedCount()": "475831c8",
			"cumulativeLockInfo(address)": "e1444fd6",
			"editLock(uint256,uint256,uint256)": "b3b9aa48",
			"editLockDescription(uint256,string)": "d3cac885",
			"getCumulativeLpTokenLockInfo(uint256,uint256)": "aec640c6",
			"getCumulativeLpTokenLockInfoAt(uint256)": "a20b8c18",
			"getCumulativeNormalTokenLockInfo(uint256,uint256)": "76c12822",
			"getCumulativeNormalTokenLockInfoAt(uint256)": "7e6706d3",
			"getLockAt(uint256)": "0d4f581a",
			"getLockById(uint256)": "08f12470",
			"getLocksForToken(address,uint256,uint256)": "332f26d7",
			"getTotalLockCount()": "fd981c66",
			"lock(address,address,bool,uint256,uint256,string)": "07279357",
			"lpLockCountForUser(address)": "07873ef1",
			"lpLockForUserAtIndex(address,uint256)": "eeacf786",
			"lpLocksForUser(address)": "aef0e540",
			"multipleVestingLock(address[],uint256[],address,bool,uint256,uint256,uint256,uint256,string)": "e0da83ce",
			"normalLockCountForUser(address)": "eb80bdae",
			"normalLockForUserAtIndex(address,uint256)": "618df7a3",
			"normalLocksForUser(address)": "da1d8cff",
			"renounceLockOwnership(uint256)": "a57e3141",
			"totalLockCountForToken(address)": "e3676f88",
			"totalLockCountForUser(address)": "cd83eadc",
			"totalTokenLockedCount()": "1982242c",
			"transferLockOwnership(uint256,address)": "5a04fb69",
			"unlock(uint256)": "6198e339",
			"vestingLock(address,address,bool,uint256,uint256,uint256,uint256,uint256,string)": "cb645e32",
			"withdrawableTokens(uint256)": "6dbdeab3"
		}
	},
	"abi": [
		{
			"anonymous": false,
			"inputs": [
				{
					"indexed": true,
					"internalType": "uint256",
					"name": "id",
					"type": "uint256"
				},
				{
					"indexed": false,
					"internalType": "address",
					"name": "token",
					"type": "address"
				},
				{
					"indexed": false,
					"internalType": "address",
					"name": "owner",
					"type": "address"
				},
				{
					"indexed": false,
					"internalType": "uint256",
					"name": "amount",
					"type": "uint256"
				},
				{
					"indexed": false,
					"internalType": "uint256",
					"name": "unlockDate",
					"type": "uint256"
				}
			],
			"name": "LockAdded",
			"type": "event"
		},
		{
			"anonymous": false,
			"inputs": [
				{
					"indexed": false,
					"internalType": "uint256",
					"name": "lockId",
					"type": "uint256"
				}
			],
			"name": "LockDescriptionChanged",
			"type": "event"
		},
		{
			"anonymous": false,
			"inputs": [
				{
					"indexed": false,
					"internalType": "uint256",
					"name": "lockId",
					"type": "uint256"
				},
				{
					"indexed": false,
					"internalType": "address",
					"name": "owner",
					"type": "address"
				},
				{
					"indexed": false,
					"internalType": "address",
					"name": "newOwner",
					"type": "address"
				}
			],
			"name": "LockOwnerChanged",
			"type": "event"
		},
		{
			"anonymous": false,
			"inputs": [
				{
					"indexed": true,
					"internalType": "uint256",
					"name": "id",
					"type": "uint256"
				},
				{
					"indexed": false,
					"internalType": "address",
					"name": "token",
					"type": "address"
				},
				{
					"indexed": false,
					"internalType": "address",
					"name": "owner",
					"type": "address"
				},
				{
					"indexed": false,
					"internalType": "uint256",
					"name": "amount",
					"type": "uint256"
				},
				{
					"indexed": false,
					"internalType": "uint256",
					"name": "unlockedAt",
					"type": "uint256"
				}
			],
			"name": "LockRemoved",
			"type": "event"
		},
		{
			"anonymous": false,
			"inputs": [
				{
					"indexed": true,
					"internalType": "uint256",
					"name": "id",
					"type": "uint256"
				},
				{
					"indexed": false,
					"internalType": "address",
					"name": "token",
					"type": "address"
				},
				{
					"indexed": false,
					"internalType": "address",
					"name": "owner",
					"type": "address"
				},
				{
					"indexed": false,
					"internalType": "uint256",
					"name": "newAmount",
					"type": "uint256"
				},
				{
					"indexed": false,
					"internalType": "uint256",
					"name": "newUnlockDate",
					"type": "uint256"
				}
			],
			"name": "LockUpdated",
			"type": "event"
		},
		{
			"anonymous": false,
			"inputs": [
				{
					"indexed": true,
					"internalType": "uint256",
					"name": "id",
					"type": "uint256"
				},
				{
					"indexed": false,
					"internalType": "address",
					"name": "token",
					"type": "address"
				},
				{
					"indexed": false,
					"internalType": "address",
					"name": "owner",
					"type": "address"
				},
				{
					"indexed": false,
					"internalType": "uint256",
					"name": "amount",
					"type": "uint256"
				},
				{
					"indexed": false,
					"internalType": "uint256",
					"name": "remaining",
					"type": "uint256"
				},
				{
					"indexed": false,
					"internalType": "uint256",
					"name": "timestamp",
					"type": "uint256"
				}
			],
			"name": "LockVested",
			"type": "event"
		},
		{
			"inputs": [],
			"name": "allLpTokenLockedCount",
			"outputs": [
				{
					"internalType": "uint256",
					"name": "",
					"type": "uint256"
				}
			],
			"stateMutability": "view",
			"type": "function"
		},
		{
			"inputs": [],
			"name": "allNormalTokenLockedCount",
			"outputs": [
				{
					"internalType": "uint256",
					"name": "",
					"type": "uint256"
				}
			],
			"stateMutability": "view",
			"type": "function"
		},
		{
			"inputs": [
				{
					"internalType": "address",
					"name": "",
					"type": "address"
				}
			],
			"name": "cumulativeLockInfo",
			"outputs": [
				{
					"internalType": "address",
					"name": "token",
					"type": "address"
				},
				{
					"internalType": "address",
					"name": "factory",
					"type": "address"
				},
				{
					"internalType": "uint256",
					"name": "amount",
					"type": "uint256"
				}
			],
			"stateMutability": "view",
			"type": "function"
		},
		{
			"inputs": [
				{
					"internalType": "uint256",
					"name": "lockId",
					"type": "uint256"
				},
				{
					"internalType": "uint256",
					"name": "newAmount",
					"type": "uint256"
				},
				{
					"internalType": "uint256",
					"name": "newUnlockDate",
					"type": "uint256"
				}
			],
			"name": "editLock",
			"outputs": [],
			"stateMutability": "nonpayable",
			"type": "function"
		},
		{
			"inputs": [
				{
					"internalType": "uint256",
					"name": "lockId",
					"type": "uint256"
				},
				{
					"internalType": "string",
					"name": "description",
					"type": "string"
				}
			],
			"name": "editLockDescription",
			"outputs": [],
			"stateMutability": "nonpayable",
			"type": "function"
		},
		{
			"inputs": [
				{
					"internalType": "uint256",
					"name": "start",
					"type": "uint256"
				},
				{
					"internalType": "uint256",
					"name": "end",
					"type": "uint256"
				}
			],
			"name": "getCumulativeLpTokenLockInfo",
			"outputs": [
				{
					"components": [
						{
							"internalType": "address",
							"name": "token",
							"type": "address"
						},
						{
							"internalType": "address",
							"name": "factory",
							"type": "address"
						},
						{
							"internalType": "uint256",
							"name": "amount",
							"type": "uint256"
						}
					],
					"internalType": "struct PinkLock.CumulativeLockInfo[]",
					"name": "",
					"type": "tuple[]"
				}
			],
			"stateMutability": "view",
			"type": "function"
		},
		{
			"inputs": [
				{
					"internalType": "uint256",
					"name": "index",
					"type": "uint256"
				}
			],
			"name": "getCumulativeLpTokenLockInfoAt",
			"outputs": [
				{
					"components": [
						{
							"internalType": "address",
							"name": "token",
							"type": "address"
						},
						{
							"internalType": "address",
							"name": "factory",
							"type": "address"
						},
						{
							"internalType": "uint256",
							"name": "amount",
							"type": "uint256"
						}
					],
					"internalType": "struct PinkLock.CumulativeLockInfo",
					"name": "",
					"type": "tuple"
				}
			],
			"stateMutability": "view",
			"type": "function"
		},
		{
			"inputs": [
				{
					"internalType": "uint256",
					"name": "start",
					"type": "uint256"
				},
				{
					"internalType": "uint256",
					"name": "end",
					"type": "uint256"
				}
			],
			"name": "getCumulativeNormalTokenLockInfo",
			"outputs": [
				{
					"components": [
						{
							"internalType": "address",
							"name": "token",
							"type": "address"
						},
						{
							"internalType": "address",
							"name": "factory",
							"type": "address"
						},
						{
							"internalType": "uint256",
							"name": "amount",
							"type": "uint256"
						}
					],
					"internalType": "struct PinkLock.CumulativeLockInfo[]",
					"name": "",
					"type": "tuple[]"
				}
			],
			"stateMutability": "view",
			"type": "function"
		},
		{
			"inputs": [
				{
					"internalType": "uint256",
					"name": "index",
					"type": "uint256"
				}
			],
			"name": "getCumulativeNormalTokenLockInfoAt",
			"outputs": [
				{
					"components": [
						{
							"internalType": "address",
							"name": "token",
							"type": "address"
						},
						{
							"internalType": "address",
							"name": "factory",
							"type": "address"
						},
						{
							"internalType": "uint256",
							"name": "amount",
							"type": "uint256"
						}
					],
					"internalType": "struct PinkLock.CumulativeLockInfo",
					"name": "",
					"type": "tuple"
				}
			],
			"stateMutability": "view",
			"type": "function"
		},
		{
			"inputs": [
				{
					"internalType": "uint256",
					"name": "index",
					"type": "uint256"
				}
			],
			"name": "getLockAt",
			"outputs": [
				{
					"components": [
						{
							"internalType": "uint256",
							"name": "id",
							"type": "uint256"
						},
						{
							"internalType": "address",
							"name": "token",
							"type": "address"
						},
						{
							"internalType": "address",
							"name": "owner",
							"type": "address"
						},
						{
							"internalType": "uint256",
							"name": "amount",
							"type": "uint256"
						},
						{
							"internalType": "uint256",
							"name": "lockDate",
							"type": "uint256"
						},
						{
							"internalType": "uint256",
							"name": "tgeDate",
							"type": "uint256"
						},
						{
							"internalType": "uint256",
							"name": "tgeBps",
							"type": "uint256"
						},
						{
							"internalType": "uint256",
							"name": "cycle",
							"type": "uint256"
						},
						{
							"internalType": "uint256",
							"name": "cycleBps",
							"type": "uint256"
						},
						{
							"internalType": "uint256",
							"name": "unlockedAmount",
							"type": "uint256"
						},
						{
							"internalType": "string",
							"name": "description",
							"type": "string"
						}
					],
					"internalType": "struct PinkLock.Lock",
					"name": "",
					"type": "tuple"
				}
			],
			"stateMutability": "view",
			"type": "function"
		},
		{
			"inputs": [
				{
					"internalType": "uint256",
					"name": "lockId",
					"type": "uint256"
				}
			],
			"name": "getLockById",
			"outputs": [
				{
					"components": [
						{
							"internalType": "uint256",
							"name": "id",
							"type": "uint256"
						},
						{
							"internalType": "address",
							"name": "token",
							"type": "address"
						},
						{
							"internalType": "address",
							"name": "owner",
							"type": "address"
						},
						{
							"internalType": "uint256",
							"name": "amount",
							"type": "uint256"
						},
						{
							"internalType": "uint256",
							"name": "lockDate",
							"type": "uint256"
						},
						{
							"internalType": "uint256",
							"name": "tgeDate",
							"type": "uint256"
						},
						{
							"internalType": "uint256",
							"name": "tgeBps",
							"type": "uint256"
						},
						{
							"internalType": "uint256",
							"name": "cycle",
							"type": "uint256"
						},
						{
							"internalType": "uint256",
							"name": "cycleBps",
							"type": "uint256"
						},
						{
							"internalType": "uint256",
							"name": "unlockedAmount",
							"type": "uint256"
						},
						{
							"internalType": "string",
							"name": "description",
							"type": "string"
						}
					],
					"internalType": "struct PinkLock.Lock",
					"name": "",
					"type": "tuple"
				}
			],
			"stateMutability": "view",
			"type": "function"
		},
		{
			"inputs": [
				{
					"internalType": "address",
					"name": "token",
					"type": "address"
				},
				{
					"internalType": "uint256",
					"name": "start",
					"type": "uint256"
				},
				{
					"internalType": "uint256",
					"name": "end",
					"type": "uint256"
				}
			],
			"name": "getLocksForToken",
			"outputs": [
				{
					"components": [
						{
							"internalType": "uint256",
							"name": "id",
							"type": "uint256"
						},
						{
							"internalType": "address",
							"name": "token",
							"type": "address"
						},
						{
							"internalType": "address",
							"name": "owner",
							"type": "address"
						},
						{
							"internalType": "uint256",
							"name": "amount",
							"type": "uint256"
						},
						{
							"internalType": "uint256",
							"name": "lockDate",
							"type": "uint256"
						},
						{
							"internalType": "uint256",
							"name": "tgeDate",
							"type": "uint256"
						},
						{
							"internalType": "uint256",
							"name": "tgeBps",
							"type": "uint256"
						},
						{
							"internalType": "uint256",
							"name": "cycle",
							"type": "uint256"
						},
						{
							"internalType": "uint256",
							"name": "cycleBps",
							"type": "uint256"
						},
						{
							"internalType": "uint256",
							"name": "unlockedAmount",
							"type": "uint256"
						},
						{
							"internalType": "string",
							"name": "description",
							"type": "string"
						}
					],
					"internalType": "struct PinkLock.Lock[]",
					"name": "",
					"type": "tuple[]"
				}
			],
			"stateMutability": "view",
			"type": "function"
		},
		{
			"inputs": [],
			"name": "getTotalLockCount",
			"outputs": [
				{
					"internalType": "uint256",
					"name": "",
					"type": "uint256"
				}
			],
			"stateMutability": "view",
			"type": "function"
		},
		{
			"inputs": [
				{
					"internalType": "address",
					"name": "owner",
					"type": "address"
				},
				{
					"internalType": "address",
					"name": "token",
					"type": "address"
				},
				{
					"internalType": "bool",
					"name": "isLpToken",
					"type": "bool"
				},
				{
					"internalType": "uint256",
					"name": "amount",
					"type": "uint256"
				},
				{
					"internalType": "uint256",
					"name": "unlockDate",
					"type": "uint256"
				},
				{
					"internalType": "string",
					"name": "description",
					"type": "string"
				}
			],
			"name": "lock",
			"outputs": [
				{
					"internalType": "uint256",
					"name": "id",
					"type": "uint256"
				}
			],
			"stateMutability": "nonpayable",
			"type": "function"
		},
		{
			"inputs": [
				{
					"internalType": "address",
					"name": "user",
					"type": "address"
				}
			],
			"name": "lpLockCountForUser",
			"outputs": [
				{
					"internalType": "uint256",
					"name": "",
					"type": "uint256"
				}
			],
			"stateMutability": "view",
			"type": "function"
		},
		{
			"inputs": [
				{
					"internalType": "address",
					"name": "user",
					"type": "address"
				},
				{
					"internalType": "uint256",
					"name": "index",
					"type": "uint256"
				}
			],
			"name": "lpLockForUserAtIndex",
			"outputs": [
				{
					"components": [
						{
							"internalType": "uint256",
							"name": "id",
							"type": "uint256"
						},
						{
							"internalType": "address",
							"name": "token",
							"type": "address"
						},
						{
							"internalType": "address",
							"name": "owner",
							"type": "address"
						},
						{
							"internalType": "uint256",
							"name": "amount",
							"type": "uint256"
						},
						{
							"internalType": "uint256",
							"name": "lockDate",
							"type": "uint256"
						},
						{
							"internalType": "uint256",
							"name": "tgeDate",
							"type": "uint256"
						},
						{
							"internalType": "uint256",
							"name": "tgeBps",
							"type": "uint256"
						},
						{
							"internalType": "uint256",
							"name": "cycle",
							"type": "uint256"
						},
						{
							"internalType": "uint256",
							"name": "cycleBps",
							"type": "uint256"
						},
						{
							"internalType": "uint256",
							"name": "unlockedAmount",
							"type": "uint256"
						},
						{
							"internalType": "string",
							"name": "description",
							"type": "string"
						}
					],
					"internalType": "struct PinkLock.Lock",
					"name": "",
					"type": "tuple"
				}
			],
			"stateMutability": "view",
			"type": "function"
		},
		{
			"inputs": [
				{
					"internalType": "address",
					"name": "user",
					"type": "address"
				}
			],
			"name": "lpLocksForUser",
			"outputs": [
				{
					"components": [
						{
							"internalType": "uint256",
							"name": "id",
							"type": "uint256"
						},
						{
							"internalType": "address",
							"name": "token",
							"type": "address"
						},
						{
							"internalType": "address",
							"name": "owner",
							"type": "address"
						},
						{
							"internalType": "uint256",
							"name": "amount",
							"type": "uint256"
						},
						{
							"internalType": "uint256",
							"name": "lockDate",
							"type": "uint256"
						},
						{
							"internalType": "uint256",
							"name": "tgeDate",
							"type": "uint256"
						},
						{
							"internalType": "uint256",
							"name": "tgeBps",
							"type": "uint256"
						},
						{
							"internalType": "uint256",
							"name": "cycle",
							"type": "uint256"
						},
						{
							"internalType": "uint256",
							"name": "cycleBps",
							"type": "uint256"
						},
						{
							"internalType": "uint256",
							"name": "unlockedAmount",
							"type": "uint256"
						},
						{
							"internalType": "string",
							"name": "description",
							"type": "string"
						}
					],
					"internalType": "struct PinkLock.Lock[]",
					"name": "",
					"type": "tuple[]"
				}
			],
			"stateMutability": "view",
			"type": "function"
		},
		{
			"inputs": [
				{
					"internalType": "address[]",
					"name": "owners",
					"type": "address[]"
				},
				{
					"internalType": "uint256[]",
					"name": "amounts",
					"type": "uint256[]"
				},
				{
					"internalType": "address",
					"name": "token",
					"type": "address"
				},
				{
					"internalType": "bool",
					"name": "isLpToken",
					"type": "bool"
				},
				{
					"internalType": "uint256",
					"name": "tgeDate",
					"type": "uint256"
				},
				{
					"internalType": "uint256",
					"name": "tgeBps",
					"type": "uint256"
				},
				{
					"internalType": "uint256",
					"name": "cycle",
					"type": "uint256"
				},
				{
					"internalType": "uint256",
					"name": "cycleBps",
					"type": "uint256"
				},
				{
					"internalType": "string",
					"name": "description",
					"type": "string"
				}
			],
			"name": "multipleVestingLock",
			"outputs": [
				{
					"internalType": "uint256[]",
					"name": "",
					"type": "uint256[]"
				}
			],
			"stateMutability": "nonpayable",
			"type": "function"
		},
		{
			"inputs": [
				{
					"internalType": "address",
					"name": "user",
					"type": "address"
				}
			],
			"name": "normalLockCountForUser",
			"outputs": [
				{
					"internalType": "uint256",
					"name": "",
					"type": "uint256"
				}
			],
			"stateMutability": "view",
			"type": "function"
		},
		{
			"inputs": [
				{
					"internalType": "address",
					"name": "user",
					"type": "address"
				},
				{
					"internalType": "uint256",
					"name": "index",
					"type": "uint256"
				}
			],
			"name": "normalLockForUserAtIndex",
			"outputs": [
				{
					"components": [
						{
							"internalType": "uint256",
							"name": "id",
							"type": "uint256"
						},
						{
							"internalType": "address",
							"name": "token",
							"type": "address"
						},
						{
							"internalType": "address",
							"name": "owner",
							"type": "address"
						},
						{
							"internalType": "uint256",
							"name": "amount",
							"type": "uint256"
						},
						{
							"internalType": "uint256",
							"name": "lockDate",
							"type": "uint256"
						},
						{
							"internalType": "uint256",
							"name": "tgeDate",
							"type": "uint256"
						},
						{
							"internalType": "uint256",
							"name": "tgeBps",
							"type": "uint256"
						},
						{
							"internalType": "uint256",
							"name": "cycle",
							"type": "uint256"
						},
						{
							"internalType": "uint256",
							"name": "cycleBps",
							"type": "uint256"
						},
						{
							"internalType": "uint256",
							"name": "unlockedAmount",
							"type": "uint256"
						},
						{
							"internalType": "string",
							"name": "description",
							"type": "string"
						}
					],
					"internalType": "struct PinkLock.Lock",
					"name": "",
					"type": "tuple"
				}
			],
			"stateMutability": "view",
			"type": "function"
		},
		{
			"inputs": [
				{
					"internalType": "address",
					"name": "user",
					"type": "address"
				}
			],
			"name": "normalLocksForUser",
			"outputs": [
				{
					"components": [
						{
							"internalType": "uint256",
							"name": "id",
							"type": "uint256"
						},
						{
							"internalType": "address",
							"name": "token",
							"type": "address"
						},
						{
							"internalType": "address",
							"name": "owner",
							"type": "address"
						},
						{
							"internalType": "uint256",
							"name": "amount",
							"type": "uint256"
						},
						{
							"internalType": "uint256",
							"name": "lockDate",
							"type": "uint256"
						},
						{
							"internalType": "uint256",
							"name": "tgeDate",
							"type": "uint256"
						},
						{
							"internalType": "uint256",
							"name": "tgeBps",
							"type": "uint256"
						},
						{
							"internalType": "uint256",
							"name": "cycle",
							"type": "uint256"
						},
						{
							"internalType": "uint256",
							"name": "cycleBps",
							"type": "uint256"
						},
						{
							"internalType": "uint256",
							"name": "unlockedAmount",
							"type": "uint256"
						},
						{
							"internalType": "string",
							"name": "description",
							"type": "string"
						}
					],
					"internalType": "struct PinkLock.Lock[]",
					"name": "",
					"type": "tuple[]"
				}
			],
			"stateMutability": "view",
			"type": "function"
		},
		{
			"inputs": [
				{
					"internalType": "uint256",
					"name": "lockId",
					"type": "uint256"
				}
			],
			"name": "renounceLockOwnership",
			"outputs": [],
			"stateMutability": "nonpayable",
			"type": "function"
		},
		{
			"inputs": [
				{
					"internalType": "address",
					"name": "token",
					"type": "address"
				}
			],
			"name": "totalLockCountForToken",
			"outputs": [
				{
					"internalType": "uint256",
					"name": "",
					"type": "uint256"
				}
			],
			"stateMutability": "view",
			"type": "function"
		},
		{
			"inputs": [
				{
					"internalType": "address",
					"name": "user",
					"type": "address"
				}
			],
			"name": "totalLockCountForUser",
			"outputs": [
				{
					"internalType": "uint256",
					"name": "",
					"type": "uint256"
				}
			],
			"stateMutability": "view",
			"type": "function"
		},
		{
			"inputs": [],
			"name": "totalTokenLockedCount",
			"outputs": [
				{
					"internalType": "uint256",
					"name": "",
					"type": "uint256"
				}
			],
			"stateMutability": "view",
			"type": "function"
		},
		{
			"inputs": [
				{
					"internalType": "uint256",
					"name": "lockId",
					"type": "uint256"
				},
				{
					"internalType": "address",
					"name": "newOwner",
					"type": "address"
				}
			],
			"name": "transferLockOwnership",
			"outputs": [],
			"stateMutability": "nonpayable",
			"type": "function"
		},
		{
			"inputs": [
				{
					"internalType": "uint256",
					"name": "lockId",
					"type": "uint256"
				}
			],
			"name": "unlock",
			"outputs": [],
			"stateMutability": "nonpayable",
			"type": "function"
		},
		{
			"inputs": [
				{
					"internalType": "address",
					"name": "owner",
					"type": "address"
				},
				{
					"internalType": "address",
					"name": "token",
					"type": "address"
				},
				{
					"internalType": "bool",
					"name": "isLpToken",
					"type": "bool"
				},
				{
					"internalType": "uint256",
					"name": "amount",
					"type": "uint256"
				},
				{
					"internalType": "uint256",
					"name": "tgeDate",
					"type": "uint256"
				},
				{
					"internalType": "uint256",
					"name": "tgeBps",
					"type": "uint256"
				},
				{
					"internalType": "uint256",
					"name": "cycle",
					"type": "uint256"
				},
				{
					"internalType": "uint256",
					"name": "cycleBps",
					"type": "uint256"
				},
				{
					"internalType": "string",
					"name": "description",
					"type": "string"
				}
			],
			"name": "vestingLock",
			"outputs": [
				{
					"internalType": "uint256",
					"name": "id",
					"type": "uint256"
				}
			],
			"stateMutability": "nonpayable",
			"type": "function"
		},
		{
			"inputs": [
				{
					"internalType": "uint256",
					"name": "lockId",
					"type": "uint256"
				}
			],
			"name": "withdrawableTokens",
			"outputs": [
				{
					"internalType": "uint256",
					"name": "",
					"type": "uint256"
				}
			],
			"stateMutability": "view",
			"type": "function"
		}
	]
}